:020000040000FA
:0600000023EF38F01200AE
:020006001200E6
:06000800FBEF31F01200D5
:02000E007FB2BF
:04001000FED7120005
:0600180068EF32F0120057
:02001E000100DF
:0C00200078700000D800000028000000EC
:04002C00D9CFE6FF43
:10003000E1CFD9FF040EE126DE6ADD6ADECF10F0E3
:10004000DDCF11F0D890115004E6030E105C000EC5
:1000500011581EE2640EF36E020EF3CFDBFF030EA7
:10006000DB6A020EDBCF10F0DB06030EDBCF11F0F4
:1000700001E2DB061050111006E0100EE66E03ECF4
:1000800038F0E552EED7DF2A010E01E3DB2AD6D79E
:10009000896A010E926E400E8A6E960E936E400E25
:1000A0008B6EA50E946E0F015D6B0F015C6BC26AC7
:1000B000C16ABA0EC06EF19E0F01200E5B6F8A8A74
:1000C000DE6ADD6ADECF10F0DDCF11F0D89011507E
:1000D00004E6E80E105C030E115805E2DF2A010E5B
:1000E00001E3DB2AEFD79B6A700ED36E9B6A9B8C71
:1000F000D3A4FED7916A8A9A0400DE6ADD6ADECF55
:1001000010F0DDCF11F0D890115004E6300E105CE5
:10011000750E115805E2DF2A010E01E3DB2AEFD745
:100120008A8AF19E0F01C00E5B6FAB8E080EA76E20
:10013000DD0EF66E6F0EF76E0800F5507D6EE50E63
:10014000F66E6F0EF76E0800F550AF6E260EAC6EB1
:10015000900EAB6E9E9AF28C9D8A9F9A9E9AD08E3C
:100160000F015F6B0F015F875F990F015F8F0F01B9
:100170005F95B798B698B8880F015F85800EB56E09
:100180000E0112511F0BF36EE00EB514F310B56E95
:10019000040EE15C02E2E16AE552E16EE552E7CF6E
:1001A000D9FF1200D9CFE6FFE1CFD9FFE652F29E88
:1001B000F29CDF6ADF501F0BF36EE00EB514F310F4
:1001C000B56E400EE66E31EC38F0E552B450400B9F
:1001D00012E11F0EDF5C0FE20400DF2ADF501F0B6D
:1001E000F36EE00EB514F310B56E200EE66E31EC32
:1001F00038F0E552EBD7DF5014080CE21C0EDF5C40
:1002000009E2DF5001E0DF06DF5001E0DF06DF50EA
:1002100001E0DF06DF5001E0DF06DF5001E0DF062E
:10022000DF5001E0DF06DF5001E0DF06DF5001E0D4
:10023000DF06DF5001E0DF06DF5001E0DF06B798A0
:10024000F28EF28CDF5000D0E552E552E7CFD9FFB5
:100250001200450ED56ED58EF294F29AF194320EBC
:10026000CD6ECD809E909D90B16EB180A192A092F6
:10027000A2921200D9CFE6FFE1CFD9FF030EE1260B
:100280000E01580E106F116B136B146B156B166B00
:10029000110E126F300E176FBF0E186F8D0E0F6F8D
:1002A000196BE66A6BEC31F0E5520A0EF36E010E43
:1002B000F3CFDBFF020EDB6A010EDBCF10F0DB06B3
:1002C000020EDBCF11F001E2DB061050111006E048
:1002D000100EE66E03EC38F0E552EED7DF6A190E29
:1002E000DF5C51E2DF50030DF3CFE9FFF4CFEAFF0B
:1002F000000EE926030EEA22EF6ADF50030DF3CF6A
:10030000E9FFF4CFEAFF000EE926030EEA22EE52DF
:10031000EE6AED6ADF50060DF3CFE9FFF4CFEAFF96
:100320004C0EE926030EEA22EF6ADF50060DF3CFEA
:10033000E9FFF4CFEAFF4C0EE926030EEA22EE5263
:10034000EE6AED6ADF50060DF3CFE9FFF4CFEAFF66
:100350004C0EE926030EEA22030EE926000EEA22DD
:10036000EE68ED68DF50060DF3CFE9FFF4CFEAFF4A
:100370004C0EE926030EEA22050EE926000EEA22BB
:10038000EF6ADF2AACD70001D86B9EEC31F0050193
:10039000B56B0501B66B0501B76B0501B86B030EB4
:1003A000E15C02E2E16AE552E16EE552E7CFD9FF96
:1003B00012008B980501C00EBA6FBB6905016E0E65
:1003C000BC6FBD69040EBC27000EBD23D58EF29410
:1003D000F29AF194B180A192A092A292B798B688B5
:1003E000F28EF28C0501B36B0501B46B12000501AE
:1003F000B42B0A0EE76EB419E8AE02D0E73402D08F
:10040000E750B45D01E3B46B1200D9CFE6FFE1CF52
:10041000D9FF040EE1260501C5A50AD0030EE66E3C
:100420006C0EE66ED0EC2AF0E552E5520501C5955A
:10043000F70E106E6B0E116E126A10C0E6FF11C03F
:10044000E6FF12C0E6FF600EE66E000EE66ED2EC2E
:1004500037F0136E050EE15E1350DE520A0EDD6EAC
:10046000B4C5E9FFEA6AE9BEEA68040ED890E93645
:10047000EA36E806FBE1000EE926050EEA22030E45
:10048000EFCFDBFFDB500F0805E20F0EF36E030E1C
:10049000F3CFDBFF0E011751010B10E0030EDB5011
:1004A00003080CE2020EDF6E030E106EDBCFE7FFD7
:1004B0001050E75E030EE7CFDBFF02D0010EDF6EC8
:1004C000030EDBCFE6FFD4EC31F0E5520001666F9E
:1004D000020EDB6A030EDB50F36E020EDBCFF4FF7D
:1004E000F350F45C62E2B4C510F0116A10BE1168FA
:1004F000040ED89010361136E806FBE1000E1026E7
:10050000050E1122DF500F011024E96E000E11209C
:10051000EA6EEF50E66EB9EC31F0E552E66E010E90
:10052000DBCFF3FFDB2AF350EA6A600FE96E000EBF
:10053000EA22E552E750EF6EB4C510F0116A10BE22
:100540001168040ED89010361136E806FBE1000E53
:100550001026050E1122DF500F011024E96E000E47
:100560001120EA6EEF50E66ED4EC31F0E552E66E03
:10057000010EDBCFF3FFDB2AF350EA6A600FE96E6E
:10058000000EEA22E552E750EF6E010EDBCFF3FFDB
:10059000DB2AF350EA6A600FE96E000EEA22200EB1
:1005A000EF6E020EDB2ADF2A95D7010EDB50EA6AD6
:1005B000600FE96E000EEA22EF6A600EE66E000E32
:1005C000E66EA3EC2AF0E552E552040EE15C02E28D
:1005D000E16AE552E16EE552E7CFD9FF1200D9CFCB
:1005E000E6FFE1CFD9FF030EE126410E0E01105DBB
:1005F00001E094D00501B3510501B45D06E1300E70
:10060000E66E4BEC2AF0E55288D0B4C5E9FFEA6A01
:10061000E9BEEA68040ED890E936EA36E806FBE15E
:10062000000EE926050EEA22020EEFCFDBFFDB50BB
:100630000F0805E20F0EF36E020EF3CFDBFF0E0183
:100640001751010B11E0020EDB5003080DE2020E00
:10065000DF6E030E106E020EDBCFE7FF1050E75E79
:10066000020EE7CFDBFF02D0010EDF6E020EDBCF02
:10067000E6FFD4EC31F0E552E66E4BEC2AF0E552A1
:10068000010EDB6A020EDB50F36E010EDBCFF4FFCE
:10069000F350F45C42E2B4C510F0116A10BE116868
:1006A000040ED89010361136E806FBE1000E102635
:1006B000050E1122DF500F011024E96E000E1120EB
:1006C000EA6EEF50E66EB9EC31F0E552E66E4BECB7
:1006D0002AF0E552B4C510F0116A10BE1168040E7C
:1006E000D89010361136E806FBE1000E1026050EF4
:1006F0001122DF500F011024E96E000E1120EA6E66
:10070000EF50E66ED4EC31F0E552E66E4BEC2AF099
:10071000E552010EDB2ADF2AB5D76ED0580E105DE8
:100720006BE10501B3510501B45D05E1E66A4BECEF
:100730002AF0E55261D0B4C5E9FFEA6AE9BEEA6889
:10074000040ED890E936EA36E806FBE1000EE92609
:10075000050EEA22020EEFCFDBFFDB500F0805E2A9
:100760000F0EF36E020EF3CFDBFF0E011751010BDC
:1007700011E0020EDB5003080DE2020EDF6E030EE5
:10078000106E020EDBCFE7FF1050E75E020EE7CFE0
:10079000DBFF02D0010EDF6E020EDBCFE6FF4BEC7B
:1007A0002AF0E552010EDB6A020EDB50F36E010EF9
:1007B000DBCFF4FFF350F45C1FE2B4C510F0116A14
:1007C00010BE1168040ED89010361136E806FBE111
:1007D000000E1026050E1122DF50DF2A0F01102413
:1007E000E96E000E1120EA6EEF50E66E4BEC2AF037
:1007F000E552010EDB2AD8D7030EE15C02E2E16A82
:10080000E552E16EE552E7CFD9FF1200D9CFE6FFFE
:10081000E1CFD9FF030EE126B4C5E9FFEA6AE9BEDC
:10082000EA68040ED890E936EA36E806FBE1000EE5
:10083000E926050EEA22020EEFCFDBFFDB500F08A0
:1008400005E20F0EF36E020EF3CFDBFF0E01175120
:10085000010B11E0020EDB5003080DE2020EDF6E09
:10086000030E106E020EDBCFE7FF1050E75E020EA4
:10087000E7CFDBFF02D0010EDF6E020EDB50F00F80
:10088000010FE66E4BEC2AF0E552790EE66E4BEC6A
:100890002AF0E552010EDB6A020EDB50F36E010E08
:1008A000DBCFF4FFF350F45C1FE2B4C510F0116A23
:1008B00010BE1168040ED89010361136E806FBE120
:1008C000000E1026050E1122DF50DF2A0F01102422
:1008D000E96E000E1120EA6EEF50E66E4BEC2AF046
:1008E000E552010EDB2AD8D7030EE15C02E2E16A91
:1008F000E552E16EE552E7CFD9FF1200D9CFE6FF0E
:10090000E1CFD9FF580E0E01105D03E00001F6059E
:100910000DE1FD0EDBCFE9FFFE0EDBCFEAFFFC0EA3
:10092000DBCFEFFF0E01316B020E5DD0300EF36EA8
:10093000FC0EDBCFF4FFF350F45C12E3FC0EDB5053
:1009400039080EE3FC0EDB50D00FE66EFD0EDBCF58
:10095000E9FFFE0EDBCFEAFFE552E750EF6E3FD036
:10096000410EF36EFC0EDBCFF4FFF350F45C13E3A7
:10097000FC0EDB5046080FE3FC0EDB50BF0F0A0FE6
:10098000E66EFD0EDBCFE9FFFE0EDBCFEAFFE552A0
:10099000E750EF6E24D0610EF36EFC0EDBCFF4FF58
:1009A000F350F45C13E3FC0EDB5066080FE3FC0E1F
:1009B000DB509F0F0A0FE66EFD0EDBCFE9FFFE0E48
:1009C000DBCFEAFFE552E750EF6E09D0450EE66E49
:1009D0004BEC2AF0E5520001F46B000E04D00E013E
:1009E000316B020E00D0E552E7CFD9FF1200D9CF0C
:1009F000E6FFE1CFD9FFE652580E0E01105D03E08D
:100A00000001F6050DE1FD0EDBCFE9FFFE0EDBCFA9
:100A1000EAFFFC0EDBCFEFFF0E01316B020E61D05F
:100A2000300EF36EFC0EDBCFF4FFF350F45C09E301
:100A3000FC0EDB50390805E3FC0EDB50D00FDF6EF7
:100A40002DD0410EF36EFC0EDBCFF4FFF350F45CBF
:100A50000AE3FC0EDB50460806E3FC0EDB50BF0F3A
:100A60000A0FDF6E1BD0610EF36EFC0EDBCFF4FFBE
:100A7000F350F45C0AE3FC0EDB50660806E3FC0E60
:100A8000DB509F0F0A0FDF6E09D0450EE66E4BEC70
:100A90002AF0E5520001F46B000E23D00E01315113
:100AA0000CE1FD0EDBCFE9FFFE0EDBCFEAFFDFCF6F
:100AB000EFFF010E316F15D014D0FD0EDBCFE9FF33
:100AC000FE0EDBCFEAFFEF38F00BEF6EFD0EDBCF53
:100AD000E9FFFE0EDBCFEAFFDF50EF26316B020E9F
:100AE00000D0E552E552E7CFD9FF1200D9CFE6FF9B
:100AF000E1CFD9FF110EE126FDEC29F0DF6E0E01EA
:100B0000065102E11AEF1DF00001F35102E0FFEC83
:100B10002AF00001F451150A02E101EF1DF0010A6B
:100B200002E18DEF1CF00F0A02E139EF1BF00B0A16
:100B300002E1C5EF1AF01F0A02E185EF1AF0020A7E
:100B400002E11FEF1AF01E0A02E1B2EF19F0010AEA
:100B500002E197EF19F0030A02E17CEF19F01D0A98
:100B600002E18BEF18F01B0A02E107EF18F0010A0F
:100B700002E1B3EF17F00E0A02E129EF11F0160AB5
:100B800002E15FEF10F0050A02E10DEF10F0020A3A
:100B900002E1B4EF0FF0010A02E198EF0FF00F0A43
:100BA00002E167EF0FF0010A02E103EF0FF0030A21
:100BB00002E1E7EF0EF0010A02E1B6EF0EF00E0AD5
:100BC00002E193EF0EF0090A02E15DEF0EF0190A5F
:100BD00002E144EF0EF0030A02E132EF0EF01B0ACD
:100BE00002E10FEF0EF01F0A02E102EF0EF01C0A05
:100BF0003FE0010A02E01AEF1DF0400EDF5C06E163
:100C00000001010EF46F0001F66B30D0A70EDF5C1F
:100C100007E10001010EF46F0001010EF66F26D00E
:100C2000110EDF5C0BE1F29EF29C120EE66E100ECE
:100C3000E66E00EC78F0E552E55218D0120EDF5C5B
:100C400006E16B0EE66E4BEC2AF0E5520FD0680E13
:100C5000DF5C0CE1410E0E01105D08E1E60EE66E70
:100C60006F0EE66ED0EC2AF0E552E5521AEF1DF059
:100C7000DF507C0A02E1F4EF0DF0350A02E19FEF4C
:100C80000DF0200A02E157EF0DF00D0A02E148EFE6
:100C90000DF0070A02E13BEF0DF00F0A02E12DEF24
:100CA0000DF0040A02E1A8EF0AF03B0A02E192EF1C
:100CB0000AF0BD0A02E16FEF0AF0030A01E1ECD38A
:100CC000010A01E1C6D3D50A01E1ABD3670A01E10C
:100CD00090D30A0A01E160D2100A01E158D2150A44
:100CE00001E150D2200A01E13CD2130A01E1F9D11D
:100CF000300A01E1EFD1200A01E1E7D1080A01E160
:100D000092D10E0A01E18AD10C0A01E182D10F0AC7
:100D100001E17AD12F0A01E15FD10F0A01E157D138
:100D2000020A01E14FD1200A01E145D10C0A01E19B
:100D30002CD1200A01E124D11B0A01E11CD1030AB4
:100D400001E114D1070A01E10CD1090A01E104D142
:100D5000210A01E1F1D0200A01E1DCD01E0A01E103
:100D6000C7D0470A01E1A7D0780A01E18AD0220A58
:100D700001E182D0080A72E0BA0A6AE00C0A61E076
:100D8000010A58E0030A4FE0010A44E0E60A35E0B0
:100D9000030A21E0070A18E0030A0AE0B60A06E09F
:100DA000E70A02E0F8EF0DF000EF0EF000EF0EF0B2
:100DB000F29EF29C120EE66E100EE66E00EC78F0DB
:100DC000E552E55200EF0EF06B0EE66E4BEC2AF0AA
:100DD000E55200EF0EF00001010EF96F0001010E67
:100DE000FA6F0001F46B0001FA5105E16B0EE66E3B
:100DF0004BEC2AF0E55200EF0EF00001F96B000118
:100E0000FA6B0001F46B6B0EE66E4BEC2AF0E552C8
:100E100000EF0EF00001C80EEC6F0001F46B000152
:100E2000EB2B00EF0EF000011E0EEC6F0001F46BD7
:100E300000EF0EF000010A0EEC6F0001F46B00EF02
:100E40000EF00001050EEC6F0001F46B00EF0EF0E8
:100E50000001EC6B0001F46B00EF0EF03AEC01F0D6
:100E60000001FA5105E16B0EE66E4BEC2AF0E552FB
:100E70000001F46B00EF0EF00001020EF46F00EFC2
:100E80000EF00E01410E106F0E01116B0E01139D3D
:100E900013CEB5F50E01300E176F0001FA6BF9C0D5
:100EA000E6FF6BEC31F0E5526B0EE66E4BEC2AF090
:100EB000E55200EF0EF00E01580E106F0E01030EFA
:100EC000116F0E01138D13CEB5F50E01310E176F94
:100ED0000001020EF56F0001010EF96F0001010E15
:100EE000FA6FF9C0E6FF6BEC31F0E55200EF0EF05F
:100EF0000001010EF76F0001AF0EF86F0001FA510B
:100F000005E16B0EE66E4BEC2AF0E5520001F46B46
:100F100000EF0EF00001800EF76F00019F0EF86FDA
:100F20000001FA5105E16B0EE66E4BEC2AF0E5523A
:100F30000001F46B00EF0EF00001F76B0001F86B9D
:100F40000001FA5105E16B0EE66E4BEC2AF0E5521A
:100F50000001F46B00EF0EF00001190EF46F00EFCA
:100F60000EF00001030EF46F00EF0EF00001040E0E
:100F7000F46F00EF0EF00001070EF46F00EF0EF0BB
:100F800000010A0EF46F00EF0EF00E01040E086F60
:100F90000E01096B0E010951092BEA6A1F0FE96E58
:100FA0000E0EEA22A80EEF6E0E01356B00010E0E3A
:100FB000F46F00EF0EF00001160EF46F0E01316BAE
:100FC00000EF0EF00001180EF46F00EF0EF00001BC
:100FD0000B0EF46F00EF0EF000010D0EF46F0E011A
:100FE000090E086F0E01096B0E010951092BEA6AFF
:100FF0001F0FE96E0E0EEA22A80EEF6E0E01356B82
:101000000E01316B00EF0EF000010F0EF46F00EFD8
:101010000EF00001110EF46F00EF0EF00001140E3F
:10102000F46F00EF0EF00001F46B410E0E01105D45
:101030004AE1E90EE66E6B0EE66ED0EC2AF0E55260
:10104000E552020EDB6A020EDB50106E116AD89078
:10105000115004E6D20E105C000E11582CE2020E64
:10106000DB50EA6A000FE96E040EEA22EF50FF0837
:101070001FE0160EE66E6C0EE66ED0EC2AF0E5521E
:10108000E552020EDBCFE6FF89EC2AF0E552200E96
:10109000E66E4BEC2AF0E552020EDB50EA6A000FD6
:1010A000E96E040EEA22EF50E66E89EC2AF0E55272
:1010B000020EDB2AC8D7160EE66E6C0EE66ED0EC7A
:1010C0002AF0E552E55200EF0EF000011C0EF46F1D
:1010D00000EF0EF00001010EF56F0001F46B00EF60
:1010E0000EF0040EDB6A0A0EF36E040EDBCFF4FF83
:1010F000F350F45C24E2020EDB6A100EF36E020E73
:10110000DBCFF4FFF350F45C17E2040EDB50100D5C
:10111000F3CF10F0F4CF11F0000E1026050E1122BF
:10112000020EDB500F011024E96E000E1120EA6E52
:10113000EF6A020EDB2AE1D7040EDB2AD4D70501C1
:10114000B36B0501B46B0501B96B0001F46B0001D1
:10115000FA5105E16B0EE66E4BEC2AF0E55200EF1A
:101160000EF00001F46B6B0EE66E4BEC2AF0E552CC
:10117000DD0EE66E6B0EE66ED0EC2AF0E552E5521F
:1011800000EF0EF00001150EF46F00EF0EF00001FD
:101190001B0EF46F00EF0EF0580E0E01105D2EE1E5
:1011A00041EC29F0E76E010EE7CFDBFF010EDB50CB
:1011B00054081EE10E019A0E1F6F0E01BC0E206F27
:1011C0000E01DE0E216F0E01F00E226F0E01120EC7
:1011D000236F0E01340E246F0E01EF0E256F0E01EA
:1011E000010E266F080EE66E74EC2EF0E55205D067
:1011F000450EE66E4BEC2AF0E552F7D0410E0E019B
:10120000105D01E0EDD041EC29F0E76E010EE7CF73
:10121000DBFF010EDB504B082EE1CD0EE66E6B0EB0
:10122000E66ED0EC2AF0E552E5520E019A0E1F6FE1
:101230000E01BC0E206F0E01DE0E216F0E01F00EAE
:10124000226F0E01120E236F0E01340E246F0E0159
:10125000BB0E256F0E01CD0E266F080EE66E74ECE8
:101260002EF0E552B60EE66E6B0EE66ED0EC2AF06E
:10127000E552E552B4D0010EDB5054082EE1A30E26
:10128000E66E6B0EE66ED0EC2AF0E552E5520E01EA
:101290009A0E1F6F0E01BC0E206F0E01DE0E216F25
:1012A0000E01F00E226F0E01120E236F0E01340E8E
:1012B000246F0E01EF0E256F0E01010E266F080E32
:1012C000E66E74EC2EF0E552890EE66E6B0EE66E5D
:1012D000D0EC2AF0E552E55282D0010EDB505308E3
:1012E00035E10001040EF56F0E019A0E1F6F0E011D
:1012F000BC0E206F0E01DE0E216F0E01F00E226F6C
:101300000E01120E236F0E01340E246F0E01560EC5
:10131000256F0E01780E266F0501B36B0501B46BC6
:10132000080EE66E74EC2EF0E5527C0EE66E6B0E47
:10133000E66ED0EC2AF0E552E5522E0EE66E4BEC4E
:101340002AF0E5520E01C80E0A6F49D0010EDB509B
:10135000570840E10001050EF56F0501B36B05016B
:10136000B46B0E010C690E01800E0D6F0E01550E4F
:101370000E6F0E01A80E1F6F0CCE20FE0DCE21FEAB
:101380000E01120E226F0ECE23FE0E0120510E0111
:1013900021190E0122190E0123190E01246F0E01CD
:1013A000A30E256F070EE66E74EC2EF0E5527C0E50
:1013B000E66E6B0EE66ED0EC2AF0E552E5522E0E8C
:1013C000E66E4BEC2AF0E5520E01C80E0A6F0E01D4
:1013D0000B6B05D0450EE66E4BEC2AF0E55205D0BE
:1013E000450EE66E4BEC2AF0E5520001F46B00EF7F
:1013F0000EF00001FA5105E16B0EE66E4BEC2AF09F
:10140000E552F29C9D9AAB9EAC9A7D6A070EAF6E38
:10141000AC8AAB8E9E9AF28C9D8A9F9A0001F46BE7
:10142000EFD30001FA5105E16B0EE66E4BEC2AF0AA
:10143000E552F29C9D9AAB9EAC9A7D6A1F0EAF6EF0
:10144000AC8AAB8E9E9AF28C9D8A9F9A0001F46BB7
:10145000D7D30001FA5105E16B0EE66E4BEC2AF092
:10146000E552F29C9D9AAB9EAC9ADD0EF66E6F0E25
:10147000F76E0800F5507D6EE50EF66E6F0EF76E96
:101480000800F550AF6EAC8AAB8E9E9AF28C9D8AA6
:101490009F9A0001F46BB4D30001FA5105E16B0E81
:1014A000E66E4BEC2AF0E552F29C9D9AAB9EAC9A0C
:1014B000DB0EF66E6F0EF76E0800F5507D6EE30ED4
:1014C000F66E6F0EF76E0800F550AF6EAC8AAB8EFD
:1014D0009E9AF28C9D8A9F9A0001F46B91D3000131
:1014E000FA5105E16B0EE66E4BEC2AF0E552F29CE8
:1014F0009D9AAB9EAC9ADA0EF66E6F0EF76E0800F0
:10150000F5507D6EE20EF66E6F0EF76E0800F55028
:10151000AF6EAC8AAB8E9E9AF28C9D8A9F9A000128
:10152000F46B6ED352EC29F0F3CFC7F5C7C518FEA4
:10153000F9C0E6FF6BEC31F0E5520001FA5105E12C
:101540006B0EE66E4BEC2AF0E5520001F46B58D3BB
:10155000410E0E01105D01E078D2E60EE66E6F0ED0
:10156000E66ED0EC2AF0E552E5526C0EE66E6B0E9C
:10157000E66ED0EC2AF0E552E552600EE66E000E03
:10158000E66E0E011251E66EE66A23EC36F0E55285
:10159000E552E552E552600EE66E000EE66EA3ECF3
:1015A0002AF0E552E5525A0EE66E6B0EE66ED0EC6E
:1015B0002AF0E552E552490EE66E6B0EE66ED0EC6F
:1015C0002AF0E552E552300E0E011125E66E4BEC85
:1015D0002AF0E552320EE66E6B0EE66ED0EC2AF083
:1015E000E552E552300E0E01131509E12E0EE66E9E
:1015F0006B0EE66ED0EC2AF0E552E55239D00E01C2
:1016000013A909D01C0EE66E6B0EE66ED0EC2AF024
:10161000E552E5520BD00E0113AB08D00A0EE66E70
:101620006B0EE66ED0EC2AF0E552E5520F0E0E017D
:101630001315300FE66E4BEC2AF0E552FE0EE66E07
:101640006A0EE66ED0EC2AF0E552E55214CEE6FFC3
:10165000B9EC31F0E552E66E4BEC2AF0E55214CECF
:10166000E6FFD4EC31F0E552E66E4BEC2AF0E552A1
:10167000E70EE66E6A0EE66ED0EC2AF0E552E55211
:10168000300E0E01151509E12E0EE66E6B0EE66E9C
:10169000D0EC2AF0E552E55239D00E0115A909D057
:1016A0001C0EE66E6B0EE66ED0EC2AF0E552E552AB
:1016B0000BD00E0115AB08D00A0EE66E6B0EE66E6F
:1016C000D0EC2AF0E552E5520F0E0E011515300F41
:1016D000E66E4BEC2AF0E552FE0EE66E6A0EE66E02
:1016E000D0EC2AF0E552E55216CEE6FFB9EC31F027
:1016F000E552E66E4BEC2AF0E55216CEE6FFD4EC4E
:1017000031F0E552E66E4BEC2AF0E552CC0EE66E77
:101710006A0EE66ED0EC2AF0E552E55217CEE6FFEF
:101720004BEC2AF0E5520E011A0511E1AA0EE66E05
:101730006A0EE66ED0EC2AF0E552E5521BCEE6FFCB
:10174000D4EC31F0E552E66E4BEC2AF0E552920E05
:10175000E66E6A0EE66ED0EC2AF0E552E552600EB7
:10176000E66E000EE66E0E011851E66EE66A23EC98
:1017700036F0E552E552E552E552600EE66E000E97
:10178000E66EA3EC2AF0E552E552880EE66E6A0E8C
:10179000E66ED0EC2AF0E552E552050EDB6A010E4A
:1017A000F36E060EF3CFDBFF0E011851106E116AB7
:1017B000D950050FE96EDACFEAFF1050EE5E1150F6
:1017C000ED5AD950050FE96EDACFEAFF020ED89034
:1017D000EE36ED36E806FBE1600EE66E000EE66ED4
:1017E000050EDBCFE6FF060EDBCFE6FF23EC36F07F
:1017F000E552E552E552E552600EE66E000EE66EE9
:10180000A3EC2AF0E552E552700EE66E6A0EE66E23
:10181000D0EC2AF0E552E552600EE66E000EE66E60
:10182000B9C510F0116A10BE116810C0E6FF11C0F2
:10183000E6FF23EC36F0E552E552E552E552600E44
:10184000E66E000EE66EA3EC2AF0E552E5525B0E62
:10185000E66E6A0EE66ED0EC2AF0E552E552600EB6
:10186000E66E000EE66EEFC0E6FFF0C0E6FF23EC8A
:1018700036F0E552E552E552E552600EE66E000E96
:10188000E66EA3EC2AF0E552E552460EE66E6A0ECD
:10189000E66ED0EC2AF0E552E552600EE66E000EE0
:1018A000E66EF1C0E6FFF2C0E6FF23EC36F0E5524B
:1018B000E552E552E552600EE66E000EE66EA3ECD0
:1018C0002AF0E552E552310EE66E6A0EE66ED0EC75
:1018D0002AF0E552E552600EE66E000EE66EFCC0A0
:1018E000E6FFFDC0E6FF23EC36F0E552E552E55297
:1018F000E552600EE66E000EE66EA3EC2AF0E552AD
:10190000E5521C0EE66E6A0EE66ED0EC2AF0E55249
:10191000E552600EE66E000EE66EFEC0E6FFFFC00A
:10192000E6FF23EC36F0E552E552E552E552600E53
:10193000E66E000EE66EA3EC2AF0E552E552080EC4
:10194000E66E6A0EE66ED0EC2AF0E552E552D05013
:10195000E66E5DEC2AF0E5521F0ED0120001F35145
:1019600008E0F50EE66E690EE66ED0EC2AF0E55260
:10197000E552DB0EE66E690EE66ED0EC2AF0E5521B
:10198000E5520E011951040A38E0070A17E0020A6D
:101990000CE0010A01E050D0D80EE66E690EE66E4A
:1019A000D0EC2AF0E552E55247D0CF0EE66E690E34
:1019B000E66ED0EC2AF0E552E5523ED0C30EE66E5C
:1019C000690EE66ED0EC2AF0E552E552600EE66E46
:1019D000000EE66E0001D851E66EE66A23EC36F0A2
:1019E000E552E552E552E552600EE66E000EE66EF7
:1019F000A3EC2AF0E552E5521FD0B90EE66E690E4F
:101A0000E66ED0EC2AF0E552E552600EE66E000E6E
:101A1000E66E0001D851E66EE66A23EC36F0E55238
:101A2000E552E552E552600EE66E000EE66EA3EC5E
:101A30002AF0E552E55200D0900EE66E690EE66E91
:101A4000D0EC2AF0E552E55205D0450EE66E4BEC9F
:101A50002AF0E5520001F46BD3D00001FA5105E100
:101A60006B0EE66E4BEC2AF0E5520001020EF56FAC
:101A70000001F46BC5D00001F56B0001FA5105E1DE
:101A80006B0EE66E4BEC2AF0E5520001F46BB8D019
:101A9000410E0E01105D03E1F4EC2FF005D0450E70
:101AA000E66E4BEC2AF0E5520001F46BA9D0410E32
:101AB0000E01105D3CE1D2EC00F00E01126F0E0140
:101AC00012511F0BF36EE00EB514F310B56E6B0ED2
:101AD000E66E4BEC2AF0E5527E0EE66E690EE66E7F
:101AE000D0EC2AF0E552E552600EE66E000EE66E8E
:101AF0000E011251E66EE66A23EC36F0E552E5522D
:101B0000E552E552600EE66E000EE66EA3EC2AF09A
:101B1000E552E552160EE66E6C0EE66ED0EC2AF03B
:101B2000E552E552E66A6BEC31F0E55205D0450E20
:101B3000E66E4BEC2AF0E5520001F46B61D0410EE9
:101B40000E01105D49E141EC29F0E76E030EE7CF8D
:101B5000DBFF030EDB502D0806E10E011207E66ADB
:101B60006BEC31F0E552030EDB502B0806E10E0161
:101B7000122BE66A6BEC31F0E5520E0112511F0B8D
:101B8000F36EE00EB514F310B56E7E0EE66E690EC0
:101B9000E66ED0EC2AF0E552E552600EE66E000EDD
:101BA000E66E0E011251E66EE66A23EC36F0E5525F
:101BB000E552E552E552600EE66E000EE66EA3ECCD
:101BC0002AF0E552E552160EE66E6C0EE66ED0EC8B
:101BD0002AF0E552E55205D0450EE66E4BEC2AF0B0
:101BE000E5520001F46B0CD000011D0EF46F08D01B
:101BF000450EE66E4BEC2AF0E5520001F46B00D086
:101C00001AEF1DF07C0EDF5C01E1FF00450EE66E71
:101C10004BEC2AF0E5520001F46B1AEF1DF0410E77
:101C2000DF5C03E0580EDF5C14E1DF500E01105D55
:101C300007E0DFCF10FEF9C0E6FF6BEC31F0E552B4
:101C40000001FA5105E16B0EE66E4BEC2AF0E5520D
:101C500005D0450EE66E4BEC2AF0E5520001F46B20
:101C60001AEF1DF0DFCFE6FF1A0EE66E0E0EE66EDF
:101C70007EEC04F0E552E552E552020803E1000172
:101C80001A0EF46F1AEF1DF0DFCFE6FF1B0EE66EA3
:101C90000E0EE66E7EEC04F0E552E552E5520208C7
:101CA0000AE10001FA5105E16B0EE66E4BEC2AF0F9
:101CB000E5520001F46B1AEF1DF0300EDF5C2AE3F1
:101CC000DF50380827E3300EDF5C0E01115D19E0AC
:101CD000300EDF5C0E01116F020E0E01111505E1D1
:101CE0000F0E0E011315010803E20E01138D02D031
:101CF0000E01139DF9C0E6FF6BEC31F0E55213CEF7
:101D0000B5F50001FA5105E16B0EE66E4BEC2AF0D9
:101D1000E55205D0450EE66E4BEC2AF0E552000187
:101D2000F46B1AEF1DF0300EDF5C17E3DF50330861
:101D300014E3DF500E01175D07E0DFCF17FEF9C097
:101D4000E6FF6BEC31F0E5520001FA5105E16B0E54
:101D5000E66E4BEC2AF0E55205D0450EE66E4BECF4
:101D60002AF0E5520001F46B1AEF1DF0490EDF5C1A
:101D700003E0690EDF5C04E10E01100E136F22D048
:101D8000450EDF5C03E0650EDF5C04E10E01200E12
:101D9000136F18D00E01135109E00E01136B0501EA
:101DA000B56BF9C0E6FF6BEC31F0E5520001FA517A
:101DB00005E16B0EE66E4BEC2AF0E5520001F46B88
:101DC0001AEF1DF00001050EF46F1AEF1DF0300E32
:101DD000DF5C09E3DF50390806E3300EDF5EDF50D9
:101DE0000E01132709D0450EE66E4BEC2AF0E552A2
:101DF0000001F46B1AEF1DF00E01316B0001060EAD
:101E0000F46F1AEF1DF0300EDF5C08E3DF50390885
:101E100005E3300EDF5C0E012F6F1AD0410EDF5C40
:101E200009E3DF50460806E3410EDF5C0A0F0E01AE
:101E30002F6F0ED0610EDF5C09E3DF50660806E30A
:101E4000610EDF5C0A0F0E012F6F02D00E012F6BA7
:101E50000E01315131E0020E0E01111505E10F0E98
:101E60000E011315010802E20E01138D0E012F5110
:101E70000E0130270E010951092BEA6A1F0FE96E86
:101E80000E0EEA2230CEEFFF30CE14FEF9C0E6FF90
:101E90006BEC31F0E55213CEB5F514CEB6F500017A
:101EA000FA5105E16B0EE66E4BEC2AF0E5520001AB
:101EB000F46B0E01316B09D02FCE30FE0E0130399C
:101EC000F00B306F0E01010E316F1AEF1DF0490E4D
:101ED000DF5C03E0690EDF5C04E10E01100E156F9C
:101EE00022D0450EDF5C03E0650EDF5C04E10E01ED
:101EF000200E156F18D00E01155109E00E01156B5B
:101F00000501B76BF9C0E6FF6BEC31F0E55200015B
:101F1000FA5105E16B0EE66E4BEC2AF0E55200013A
:101F2000F46B1AEF1DF00001080EF46F1AEF1DF0AC
:101F3000300EDF5C09E3DF50390806E3300EDF5E68
:101F4000DF500E01152709D0450EE66E4BEC2AF046
:101F5000E5520001F46B1AEF1DF00E01316B000128
:101F6000090EF46F1AEF1DF0300EDF5C08E3DF504E
:101F7000390805E3300EDF5C0E012F6F1AD0410ED9
:101F8000DF5C09E3DF50460806E3410EDF5C0A0F21
:101F90000E012F6F0ED0610EDF5C09E3DF50660883
:101FA00006E3610EDF5C0A0F0E012F6F02D00E01F7
:101FB0002F6B0E01315126E00E012F510E013027FB
:101FC0000E010951092BEA6A1F0FE96E0E0EEA2273
:101FD00030CEEFFF30CE16FEF9C0E6FF6BEC31F0ED
:101FE000E55215CEB7F516CEB8F50001FA5105E168
:101FF0006B0EE66E4BEC2AF0E5520001F46B0E011D
:10200000316B09D02FCE30FE0E013039F00B306F1E
:102010000E01010E316F1AEF1DF0580E0E01105D0A
:1020200003E00001F60503E1DFCF08FE2CD0310EFE
:10203000DF5C08E3DF50390805E3300EDF5C0E019A
:10204000086F21D0410EDF5C09E3DF50460806E34C
:10205000410EDF5C0A0F0E01086F15D0610EDF5CC8
:1020600009E3DF50660806E3610EDF5C0A0F0E012C
:10207000086F09D0450EE66E4BEC2AF0E5520001E0
:10208000F46B1AEF1DF00E01096B0E0117A30ED0B1
:102090000E010951092BEA6A1F0FE96E0E0EEA22A2
:1020A000A80EEF6E0E01082B0E01356B0E01316B81
:1020B0000E01366B00010C0EF46F1AEF1DF0580E76
:1020C0000E01105D03E00001F6054BE10E01095120
:1020D000092BEA6A1F0FE96E0E0EEA22DFCFEFFF2F
:1020E000DF500E01351B0E0108510E01D880095535
:1020F00037E20E010951092BEA6A1F0FE96E0E0E35
:10210000EA2235CEEFFF0E010951092BEA6A1F0FB3
:10211000E96E0E0EEA22A30EEF6E09CEE6FF74EC16
:102120002EF0E552B10E0E01205D10E1080E0E01F9
:10213000235D0CE30E0123510A0808E30E01195137
:1021400005E023CEE6FF0FEC22F0E5520001FA5144
:1021500005E16B0EE66E4BEC2AF0E5520001F46BE4
:1021600076D0300EDF5C08E3DF50390805E3300E2F
:10217000DF5C0E012F6F21D0410EDF5C09E3DF50E1
:10218000460806E3410EDF5C0A0F0E012F6F15D0E3
:10219000610EDF5C09E3DF50660806E3610EDF5C79
:1021A0000A0F0E012F6F09D0450EE66E4BEC2AF098
:1021B000E5520001F46B1AEF1DF00E0131513EE0C3
:1021C0000E012F510E0130270E010951092BEA6A29
:1021D0001F0FE96E0E0EEA2230CEEFFF0E013051D6
:1021E0000E01351B0E0108510E01D880095523E25E
:1021F0000E010951092BEA6A1F0FE96E0E0EEA2241
:1022000035CEEFFF0E010951092BEA6A1F0FE96E67
:102210000E0EEA22A30EEF6E09CEE6FF74EC2EF04E
:10222000E5520001FA5105E16B0EE66E4BEC2AF027
:10223000E5520001F46B0E01316B09D02FCE30FE58
:102240000E013039F00B306F0E01010E316F1AEFB5
:102250001DF0DF50630A02E160EF17F05A0A02E155
:10226000E8EF16F0010A02E140EF15F00F0A01E174
:10227000ECD3010A01E113D2030A01E1E6D0050A19
:1022800001E1CCD0010A01E1C9D0020A01E1C6D0C6
:10229000070A01E1C3D0060A02E0A9EF17F0010E18
:1022A000DB6A020EDB6A0001D851F36E010EDBCF50
:1022B000F4FFF350F45C01E3A7D0010EDB50030DF3
:1022C000F3CFE9FFF4CFEAFF000EE926030EEA227E
:1022D000EF50000801E395D0010EDB50030DF3CF62
:1022E000E9FFF4CFEAFF000EE926030EEA22EF50E1
:1022F000106E116AD890115004E6D20E105C000ED8
:10230000115801E37ED0010EDB50030DF3CFE9FF3E
:10231000F4CFEAFF000EE926030EEA22EECF10F01A
:10232000EECF11F0EFCF12F0010EDB50060DF3CF20
:10233000E9FFF4CFEAFF4C0EE926030EEA22EE5243
:10234000EECF13F0EFCF14F000011350115C1450D6
:10235000125820E2010EDB50060DF3CFE9FFF4CF57
:10236000EAFF4C0EE926030EEA22EE52EECF10F001
:10237000EFCF11F0010EDB50030DF3CFE9FFF4CFE7
:10238000EAFF000EE926030EEA22EE5210C0EEFF2D
:1023900011C0EDFF010EDB50030DF3CFE9FFF4CFC9
:1023A000EAFF000EE926030EEA22EFCFD2F4040181
:1023B000D251EA6A000FE96E040EEA22090EEF6EAE
:1023C000010EDB50030DF3CFE9FFF4CFEAFF000E5F
:1023D000E926030EEA22EE52000ED880EE54000EDB
:1023E000ED5402E2020EDB2A010EDB50060DF3CFA4
:1023F000E9FFF4CFEAFF4C0EE926030EEA22800E35
:10240000EF6E010EDB2A4FD79EEC31F0020EDB504F
:1024100003E1300EDF6E02D0330EDF6E300EDF5C74
:102420000E01195D08E0300EDF5C0E01196FE66ADF
:102430006BEC31F0E5520001FA5105E16B0EE66EEE
:102440004BEC2AF0E552AFEF17F0410E0E01105D94
:1024500001E023D16D0EE66E690EE66ED0EC2AF037
:10246000E552E552010EDB6A0001D851F36E010E10
:10247000DBCFF4FFF350F45C01E307D1010EDB5036
:10248000030DF3CFE9FFF4CFEAFF000EE926030EB8
:10249000EA22EF5001E1DDD0690EE66E690EE66ECC
:1024A000D0EC2AF0E552E552010EDB50030DF3CFDC
:1024B000E9FFF4CFEAFF000EE926030EEA22EF500F
:1024C000E66E89EC2AF0E552620EE66E690EE66E63
:1024D000D0EC2AF0E552E552600EE66E000EE66E94
:1024E000010EDB50030DF3CFE9FFF4CFEAFF000E3E
:1024F000E926030EEA22EE52EECFE6FFEFCFE6FF2B
:1025000023EC36F0E552E552E552E552600EE66EF8
:10251000000EE66EA3EC2AF0E552E5525C0EE66E84
:10252000690EE66ED0EC2AF0E552E552600EE66EDA
:10253000000EE66E010EDB50060DF3CFE9FFF4CF7F
:10254000EAFF4C0EE926030EEA22EE52EECFE6FF3A
:10255000EFCFE6FF23EC36F0E552E552E552E552C7
:10256000600EE66E000EE66EA3EC2AF0E552E55230
:10257000560EE66E690EE66ED0EC2AF0E552E55294
:10258000010EDB50060DF3CFE9FFF4CFEAFF4C0E4E
:10259000E926030EEA22EF50E66E89EC2AF0E552B6
:1025A000500EE66E690EE66ED0EC2AF0E552E5526A
:1025B000600EE66E000EE66E010EDB50060DF3CFE8
:1025C000E9FFF4CFEAFF4C0EE926030EEA22030EE0
:1025D000E926000EEA22EECFE6FFEFCFE6FF23EC7E
:1025E00036F0E552E552E552E552600EE66E000E19
:1025F000E66EA3EC2AF0E552E5524A0EE66E690E4D
:10260000E66ED0EC2AF0E552E552600EE66E000E62
:10261000E66E010EDB50060DF3CFE9FFF4CFEAFFC3
:102620004C0EE926030EEA22050EE926000EEA22E8
:10263000EF50E66EE66A23EC36F0E552E552E552DD
:10264000E552600EE66E000EE66EA3EC2AF0E5524F
:10265000E5520A0EF36E0B0EF3CFDBFF0C0EDB6AB6
:102660000B0EDBCF10F0DB060C0EDBCF11F001E21E
:10267000DB061050111006E0100EE66E03EC38F089
:10268000E552EED7010EDB2AEFD6160EE66E6C0E83
:10269000E66ED0EC2AF0E552E552AFEF17F0580E97
:1026A0000E01105D04E00001F60501E0E3D041EC0D
:1026B00029F0E76E020EE7CFDBFF010EDB6A040EA6
:1026C000DB6A0001D851F36E010EDBCFF4FFF3504B
:1026D000F45C01E3B5D0010EDB50030DF3CFE9FF4D
:1026E000F4CFEAFF000EE926030EEA22EFCF10F046
:1026F000020EDB50105C01E0A0D05B0EE66E4BECEE
:102700002AF0E552010EDB50030DF3CFE9FFF4CFC1
:10271000EAFF000EE926030EEA22EE52EE52EF50D7
:10272000E66E4BEC2AF0E552010EDB50030DF3CFC1
:10273000E9FFF4CFEAFF000EE926030EEA22EE528B
:10274000EF50E66E4BEC2AF0E552010EDB50060D21
:10275000F3CFE9FFF4CFEAFF4C0EE926030EEA229D
:10276000EE52EE52EF50E66E4BEC2AF0E552010EBF
:10277000DB50060DF3CFE9FFF4CFEAFF4C0EE9265C
:10278000030EEA22EE52EF50E66E4BEC2AF0E552D1
:10279000010EDB50060DF3CFE9FFF4CFEAFF4C0E3C
:1027A000E926030EEA22EF50E66E4BEC2AF0E552E2
:1027B000010EDB50060DF3CFE9FFF4CFEAFF4C0E1C
:1027C000E926030EEA22030EE926000EEA22EE5263
:1027D000EF50E66E4BEC2AF0E552010EDB50060D91
:1027E000F3CFE9FFF4CFEAFF4C0EE926030EEA220D
:1027F000030EE926000EEA22EF50E66E4BEC2AF0BB
:10280000E552010EDB50060DF3CFE9FFF4CFEAFFEE
:102810004C0EE926030EEA22050EE926000EEA22F6
:10282000EF50E66E4BEC2AF0E552010ED8C0DBFF0C
:10283000010EF36E040EF3CFDBFF010EDB2A41D74E
:10284000040EDB5016E15B0EE66E4BEC2AF0E5520F
:10285000010EDB6A080EF36E010EDBCFF4FFF350BE
:10286000F45C07E2E66A4BEC2AF0E552010EDB2A43
:10287000F1D7EAD0410E0E01105D01E0E5D0360E31
:10288000E66E690EE66ED0EC2AF0E552E552240EB3
:10289000E66E690EE66ED0EC2AF0E552E55298EC51
:1028A00029F0E76E020EE7CFDBFF010EDB6A040EB4
:1028B000DB6A0001D851F36E010EDBCFF4FFF35059
:1028C000F45C01E37AD0010EDB50030DF3CFE9FF96
:1028D000F4CFEAFF000EE926030EEA22EFCF10F054
:1028E000020EDB50105C66E11E0EE66E690EE66EAF
:1028F000D0EC2AF0E552E552600EE66E000EE66E70
:10290000010EDB50030DF3CFE9FFF4CFEAFF000E19
:10291000E926030EEA22EE52EECFE6FFEFCFE6FF06
:1029200023EC36F0E552E552E552E552600EE66ED4
:10293000000EE66EA3EC2AF0E552E552190EE66EA3
:10294000690EE66ED0EC2AF0E552E55252EC29F021
:10295000070EF3CFDBFF080EF4CFDBFFD950070FD4
:10296000E96EDACFEAFFEE50ED1014E0010EDB5015
:10297000030DF3CFE9FFF4CFEAFF000EE926030EC3
:10298000EA22EE52070EDBCFEEFF080EDBCFEDFFA3
:102990009EEC31F0130EE66E690EE66ED0EC2AF076
:1029A000E552E552010ED8C0DBFF010EF36E040EB6
:1029B000F3CFDBFF010EDB2A7CD7040EDB5044E1B2
:1029C000030EE66E690EE66ED0EC2AF0E552E55293
:1029D00052EC29F0070EF3CFDBFF080EF4CFDBFF3C
:1029E000D950070FE96EDACFEAFFEE50ED1024E080
:1029F0000001D82B010EDB50030DF3CFE9FFF4CF1C
:102A0000EAFF000EE926030EEA22020EDBCFEFFFFB
:102A1000010EDB50030DF3CFE9FFF4CFEAFF000E08
:102A2000E926030EEA22EE52070EDBCFEEFF080E78
:102A3000DBCFEDFF9EEC31F0130EE66E690EE66E15
:102A4000D0EC2AF0E552E5528AD2010EDB6A000191
:102A5000D851F36E010EDBCFF4FFF350F45C0FE2BC
:102A6000010EDB50060DF3CFE9FFF4CFEAFF4C0E69
:102A7000E926030EEA22EF9E010EDB2AE8D76FD289
:102A8000580E0E01105D04E00001F60501E09FD133
:102A900041EC29F0E76E020EE7CFDBFF41EC29F0B5
:102AA000E76E010EE7CFDBFF41EC29F0E76E0A0E7F
:102AB000E7CFDBFF41EC29F0E76E090EE7CFDBFF44
:102AC000D950090FE96EDACFEAFFB00ED880EE5484
:102AD000040EED540AE2B00EF36E090EF3CFDBFFE5
:102AE000040EF36E0A0EF3CFDBFF020EDB5000087C
:102AF00001E36DD1020EDB50106E116AD8901150B7
:102B000004E6D20E105C000E115801E360D1010EF4
:102B1000DB50000801E35BD1200EF36E010EDBCF2A
:102B2000F4FFF350F45C01E352D1020EDB50EA6A89
:102B3000000FE96E040EEA22010EDBCFEFFF010E5B
:102B4000DB50090801E043D10E01195107E10E01E4
:102B5000030E196FE66A6BEC31F0E552040EDB6A86
:102B60000001D851F36E040EDBCFF4FFF350F45C98
:102B700001E380D0040EDB50030DF3CFE9FFF4CF67
:102B8000EAFF000EE926030EEA22EFCF10F0020E54
:102B9000DB50105C6CE1040EDB50030DF3CFE9FF5A
:102BA000F4CFEAFF000EE926030EEA22EE52EECF42
:102BB00010F0EFCF11F0090EDB50101803E10A0EF0
:102BC000DB5011184AE0040EDB50030DF3CFE9FF90
:102BD000F4CFEAFF000EE926030EEA22EE52090EB8
:102BE000DBCFEEFF0A0EDBCFEDFF030EE66E040E29
:102BF000DB50030DF350200F010FE66EE66A040E62
:102C0000DB50030DF3CF10F0F4CF11F0000E1026BF
:102C1000030E112210C0E6FF11C0E6FF32EC31F0C6
:102C2000126E050EE15E12500A0EF36E0D0EF3CF1A
:102C3000DBFF0E0EDB6A0D0EDBCF10F0DB060E0E97
:102C4000DBCF11F001E2DB061050111006E0100E90
:102C5000E66E03EC38F0E552EED76B0EE66E4BEC09
:102C60002AF0E552FA0EF36E040EF3CFDBFF040EEA
:102C7000DB2A76D7040EDB500001D85D01E0A7D037
:102C80000001D82B040EDB50030DF3CFE9FFF4CF86
:102C9000EAFF000EE926030EEA22020EDBCFEFFF69
:102CA000040EDB50030DF3CFE9FFF4CFEAFF000E73
:102CB000E926030EEA22EE52090EDBCFEEFF0A0EE2
:102CC000DBCFEDFFD8C0E6FF200EE66EE66A0CEC27
:102CD00037F0E552E552E55207EC00F0030EE66EE0
:102CE000040EDB50030DF350200F010FE66EE66A71
:102CF000040EDB50030DF3CF10F0F4CF11F0000EF3
:102D00001026030E112210C0E6FF11C0E6FF32ECC0
:102D100031F0126E050EE15E1250040EDB50060D0E
:102D2000F3CFE9FFF4CFEAFF4C0EE926030EEA22C7
:102D3000800EEF6E040EDB50060DF3CFE9FFF4CFEB
:102D4000EAFF4C0EE926030EEA22EE52EE6AED6A25
:102D5000040EDB50060DF3CFE9FFF4CFEAFF4C0E73
:102D6000E926030EEA22030EE926000EEA22EE68A7
:102D7000ED68040EDB50060DF3CFE9FFF4CFEAFF58
:102D80004C0EE926030EEA22050EE926000EEA2281
:102D9000EF6A0A0EF36E0F0EF3CFDBFF100EDB6A45
:102DA0000F0EDBCF10F0DB06100EDBCF11F001E2CF
:102DB000DB061050111006E0100EE66E03EC38F042
:102DC000E552EED76B0EE66E4BEC2AF0E552C7D01B
:102DD000010EDB6A190EF36E010EDBCFF4FFF35028
:102DE000F45C58E2010EDB50030DF3CFE9FFF4CFA2
:102DF000EAFF000EE926030EEA22EF6A010EDB501D
:102E0000030DF3CFE9FFF4CFEAFF000EE926030E2E
:102E1000EA22EE52EE6AED6A010EDB50060DF3CFA8
:102E2000E9FFF4CFEAFF4C0EE926030EEA22EF6A2F
:102E3000010EDB50060DF3CFE9FFF4CFEAFF4C0E95
:102E4000E926030EEA22EE52EE6AED6A010EDB502D
:102E5000060DF3CFE9FFF4CFEAFF4C0EE926030E8F
:102E6000EA22030EE926000EEA22EE68ED68010E62
:102E7000DB50060DF3CFE9FFF4CFEAFF4C0EE92655
:102E8000030EEA22050EE926000EEA22EF6A010E81
:102E9000DB2AA0D70001D85102E09EEC31F00001FE
:102EA000D86B0E01195106E00E01196BE66A6BEC46
:102EB00031F0E5526B0EE66E4BEC2AF0E5524FD046
:102EC000010EDB6A190EF36E010EDBCFF4FFF35037
:102ED000F45C3EE2010EDB50060DF3CFE9FFF4CFC8
:102EE000EAFF4C0EE926030EEA22EF6A010EDB50E0
:102EF000060DF3CFE9FFF4CFEAFF4C0EE926030EEF
:102F0000EA22EE52EE6AED6A010EDB50060DF3CFB7
:102F1000E9FFF4CFEAFF4C0EE926030EEA22030E86
:102F2000E926000EEA22EE68ED68010EDB50060D80
:102F3000F3CFE9FFF4CFEAFF4C0EE926030EEA22B5
:102F4000050EE926000EEA22EF6A010EDB2ABAD747
:102F500006D0450EE66E4BEC2AF0E55200D000019B
:102F6000F46B1AEF1DF0580E0E01105D03E0000126
:102F7000F60507E1DFCF20FE0001170EF46F1AEF10
:102F80001DF0300EDF5C08E3DF50390805E3300E3A
:102F9000DF5C0E012F6F21D0410EDF5C09E3DF50B3
:102FA000460806E3410EDF5C0A0F0E012F6F15D0B5
:102FB000610EDF5C09E3DF50660806E3610EDF5C4B
:102FC0000A0F0E012F6F09D0450EE66E4BEC2AF06A
:102FD000E5520001F46B1AEF1DF00E0131510CE0C7
:102FE0000E012F510E01302730CE20FE0E01316B25
:102FF0000001170EF46F09D02FCE30FE0E013039CC
:10300000F00B306F0E01010E316F1AEF1DF0580EEC
:103010000E01105D03E00001F6051FE1DFCFE6FFC2
:1030200020CEE6FFA9EC2CF0E552E552000909E1BB
:103030000001FA5105E16B0EE66E4BEC2AF0E55209
:1030400008D00001FA5105E1450EE66E4BEC2AF07E
:10305000E5520001F46B1AEF1DF0300EDF5C08E35F
:10306000DF50390805E3300EDF5C0E012F6F21D0F1
:10307000410EDF5C09E3DF50460806E3410EDF5CEA
:103080000A0F0E012F6F15D0610EDF5C09E3DF50D0
:10309000660806E3610EDF5C0A0F0E012F6F09D090
:1030A000450EE66E4BEC2AF0E5520001F46B1AEF88
:1030B0001DF00E01315124E00E012F510E01302779
:1030C00030CEE6FF20CEE6FFA9EC2CF0E552E5522B
:1030D000000909E10001FA5105E16B0EE66E4BECC7
:1030E0002AF0E55208D00001FA5105E1450EE66EDE
:1030F0004BEC2AF0E5520E01316B0001F46B09D064
:103100002FCE30FE0E013039F00B306F0E01010E64
:10311000316F1AEF1DF0580E0E01105D03E0000133
:10312000F6053AE10E010951092BEA6A1F0FE96E13
:103130000E0EEA22DFCFEFFFDF500E01351B0E012E
:1031400008510E01095D26E30E0117A314D00E01EC
:103150000951092BEA6A1F0FE96E0E0EEA2235CEDD
:10316000EFFF0E010951092BEA6A1F0FE96E0E0EDF
:10317000EA22A30EEF6E09CEE6FF74EC2EF0E552C4
:103180000001FA5105E16B0EE66E4BEC2AF0E552B8
:103190000001F46B1AEF1DF0300EDF5C08E3DF5026
:1031A000390805E3300EDF5C0E012F6F50D0410E61
:1031B000DF5C09E3DF50460806E3410EDF5C0A0FDF
:1031C0000E012F6F44D0610EDF5C09E3DF5066080B
:1031D00006E3610EDF5C0A0F0E012F6F38D04B0E35
:1031E000DF5C2DE10E010951092BEA6A1F0FE96E20
:1031F0000E0EEA2236CEEFFF0E010951092BEA6AC4
:103200001F0FE96E0E0EEA22A30EEF6E0E0108519B
:103210000E01095D0FE309CEE6FF74EC2EF0E552D6
:103220000001FA5105E16B0EE66E4BEC2AF0E55217
:103230000001F46B0E01316B1AEF1DF008D0450E42
:10324000E66E4BEC2AF0E5520001F46BF3D30E016D
:10325000315148E00E012F510E0130270E01095166
:10326000092BEA6A1F0FE96E0E0EEA2230CEEFFF3D
:103270000E0130510E01351B0E010951000804E208
:103280000E0130510E01361B0E0108510E01095D71
:1032900026E30E0117A314D00E010951092BEA6A87
:1032A0001F0FE96E0E0EEA2235CEEFFF0E01095117
:1032B000092BEA6A1F0FE96E0E0EEA22A30EEF6ECB
:1032C00009CEE6FF74EC2EF0E5520001FA5105E15B
:1032D0006B0EE66E4BEC2AF0E5520001F46B0E012A
:1032E000316B09D02FCE30FE0E013039F00B306F2C
:1032F0000E01010E316F9ED3DFCFE6FF320EE66E78
:103300000E0EE66E7EEC04F0E552E552E552106ECC
:10331000000EE76E1018E8AE02D0103403D0E7506C
:10332000D880105403E20001120EF46F83D3DFCF74
:10333000E6FF340EE66E0E0EE66E7EEC04F0E5520D
:10334000E552E552106E000EE76E1018E8AE02D09E
:10335000103403D0E750D880105403E20001130E5C
:10336000F46F68D3DFCFE6FF330EE66E0E0EE66E27
:10337000F7EC04F0E552E552E55202085FE10E0178
:103380001B510E01345D1FE10E01A80E1F6F33CEDD
:1033900020FE0E01216B0E01120E226F32CE23FE93
:1033A0000E0120510E0121190E0122190E012319BF
:1033B0000E01246F0E01A30E256F070EE66E74EC4E
:1033C0002EF0E5522FD00E01A80E1F6F0E01EC0E4D
:1033D000206F34CE21FE1BCE22FE0E01236B33CE96
:1033E00024FE0E01256B0E01120E266F32CE27FE33
:1033F0000E0120510E0121190E0122190E0123196F
:103400000E0124190E0125190E0126190E01271986
:103410000E01286F0E01A30E296F0B0EE66E74ECE1
:103420002EF0E5520001FA5105E16B0EE66E4BEC11
:103430002AF0E5520001F46B0E01316BFBD2DFCFB5
:10344000E6FF0E010951116A1F0F106E0E0E1122B8
:1034500010C0E6FF11C0E6FFF7EC04F0E552E552BC
:10346000E552020851E10E010951EA6A1F0FE96EA7
:103470000E0EEA22EF500E01351B0E01092B0E0134
:1034800008510E01095D40E30E011B510E01215D43
:1034900018E124CE20FE25CE21FE26CE22FE27CE08
:1034A00023FE0E0120510E0121190E0122190E01D9
:1034B00023190E01246F070EE66E74EC2EF0E55210
:1034C00019D00E010951092BEA6A1F0FE96E0E0E81
:1034D000EA2235CEEFFF0E010951092BEA6A1F0FD0
:1034E000E96E0E0EEA22A30EEF6E09CEE6FF74EC33
:1034F0002EF0E5520001FA5105E16B0EE66E4BEC41
:103500002AF0E5520001F46B95D2580E0E01105DC1
:1035100003E00001F60508E1DFCF32FE0001100EE6
:10352000F46F0E01316B86D2300EDF5C08E3DF50A2
:10353000390805E3300EDF5C0E01326F20D0410EFA
:10354000DF5C09E3DF50460806E3410EDF5C0A0F4B
:103550000E01326F14D0610EDF5C09E3DF506608A4
:1035600006E3610EDF5C0A0F0E01326F08D0450ED4
:10357000E66E4BEC2AF0E5520001F46B5BD20001E1
:10358000100EF46F0E01316B55D2580E0E01105D06
:1035900003E00001F60503E1DFCF33FE3FD0300E3C
:1035A000DF5C08E3DF50390805E3300EDF5C0E0115
:1035B0002F6F20D0410EDF5C09E3DF50460806E3A1
:1035C000410EDF5C0A0F0E012F6F14D0610EDF5C1D
:1035D00009E3DF50660806E3610EDF5C0A0F0E01A7
:1035E0002F6F08D0450EE66E4BEC2AF0E552000135
:1035F000F46B20D20E01315107E00E012F510E0164
:10360000302730CE33FE0AD02FCE30FE0E013039B7
:10361000F00B306F0E01010E316F0CD20E01A80EAF
:103620001F6F33CE20FE0E01216B0E01120E226F92
:1036300032CE23FE0E0120510E0121190E01221956
:103640000E0123190E01246F0E01A30E256F070E24
:10365000E66E74EC2EF0E5520001FA5105E16B0EB6
:10366000E66E4BEC2AF0E5520001F46B0E01316B73
:10367000E1D1580E0E01105D03E00001F60503E1F3
:10368000DFCFD2F43FD0300EDF5C08E3DF503908E3
:1036900005E3300EDF5C0E012F6F20D0410EDF5CA2
:1036A00009E3DF50460806E3410EDF5C0A0F0E0116
:1036B0002F6F14D0610EDF5C09E3DF50660806E36C
:1036C000610EDF5C0A0F0E012F6F08D0450EE66E0B
:1036D0004BEC2AF0E5520001F46BACD10E013151F4
:1036E00007E00E012F510E01302730CED2F40AD060
:1036F0002FCE30FE0E013039F00B306F0E01010E6F
:10370000316F98D1FF0E0401D25D63E10401D26BE9
:103710000401D251106E116AD890115004E6D20EF5
:10372000105C000E11580AE20401D251D22BEA6A51
:10373000000FE96E040EEA22EF68EAD7010EDB6A99
:103740000001D851F36E010EDBCFF4FFF350F45CAF
:103750003DE2010EDB50030DF3CFE9FFF4CFEAFFAA
:10376000000EE926030EEA22EF5000082CE2010EBB
:10377000DB50030DF3CFE9FFF4CFEAFF000EE9269B
:10378000030EEA22EF50106E116AD890115004E631
:10379000D20E105C000E115816E2010EDB50030D24
:1037A000F3CFE9FFF4CFEAFF000EE926030EEA2289
:1037B000EFCFD2F40401D251EA6A000FE96E040E91
:1037C000EA22090EEF6E010EDB2ABAD70401D26B92
:1037D00019D00401D251EA6A000FE96E040EEA2200
:1037E000EF50FF080FE10401D251106E116AD8901A
:1037F000115004E6D20E105C000E115803E20401D1
:10380000D22BE7D70001F6052DE1F30EE66E4BEC67
:103810002AF0E552440EE66E4BEC2AF0E552D2C493
:10382000E6FF4BEC2AF0E5520401D251106E116A0A
:10383000D890115004E6D20E105C000E11580DE223
:103840000401D251EA6A000FE96E040EEA22EF5039
:10385000E66E4BEC2AF0E55204D0E6684BEC2AF019
:10386000E55256D0580E0E01105D03E00001F6053A
:1038700028E1440EE66E4BEC2AF0E552D2C4E6FF96
:103880004BEC2AF0E5520401D251106E116AD89027
:10389000115004E6D20E105C000E11580DE2040126
:1038A000D251EA6A000FE96E040EEA22EF50E66E8A
:1038B0004BEC2AF0E55204D0E6684BEC2AF0E552D6
:1038C00027D0440EE66E4BEC2AF0E552D2C4E6FF58
:1038D00089EC2AF0E5520401D251106E116AD89099
:1038E000115004E6D20E105C000E11580DE20401D6
:1038F000D251EA6A000FE96E040EEA22EF50E66E3A
:1039000089EC2AF0E55204D0E66889EC2AF0E55209
:103910000001F46B0E01316B8DD0580E0E01105D5D
:1039200003E00001F60503E1DFCF33FE3FD0300EA8
:10393000DF5C08E3DF50390805E3300EDF5C0E0181
:103940002F6F20D0410EDF5C09E3DF50460806E30D
:10395000410EDF5C0A0F0E012F6F14D0610EDF5C89
:1039600009E3DF50660806E3610EDF5C0A0F0E0113
:103970002F6F08D0450EE66E4BEC2AF0E5520001A1
:10398000F46B58D00E01315107E00E012F510E019A
:10399000302730CE33FE0AD02FCE30FE0E01303924
:1039A000F00B306F0E01010E316F44D00E01A80EE6
:1039B0001F6F33CE20FE0E01216B0E01150E226FFC
:1039C0000E01236B0E0120510E0121190E01221947
:1039D0000E0123190E01246F0E01A30E256F070E91
:1039E000E66E74EC2EF0E5520001FA5105E16B0E23
:1039F000E66E4BEC2AF0E5520001F46B0E01316BE0
:103A000019D0DF50520A09E0200A01E007D0EBC0CC
:103A1000E6FF4BEC2AF0E5520AD009D0DD0EE66E47
:103A20006B0EE66ED0EC2AF0E552E55200D00001B4
:103A3000F46B00D0110EE15C02E2E16AE552E16E46
:103A4000E552E7CFD9FF1200D9CFE6FFE1CFD9FF8A
:103A5000050EE1260001F35105E0050EEC5D02E0E4
:103A6000050EEC6F9EA08DD30E01022B02511F0894
:103A700001E2026B9E900001EC510DE00E0101513C
:103A8000012B106E0001EC51D880105404E20E019D
:103A9000016B8A8A01D08A9A0E01042B030E195DEC
:103AA00001E0D5D00451150801E3D1D0020E000188
:103AB000F55D01E0CCD00E01046B040EDB6A000161
:103AC000D851F36E040EDBCFF4FFF350F45C19E22F
:103AD000D951060DF3CFE9FFF4CFEAFF4C0EE926EA
:103AE000030EEA22EF50800B04E1040ED8C0DBFF86
:103AF00007D0D92BD851D95D01E3D96B040EDB2A4D
:103B0000DED7D951060DF3CFE9FFF4CFEAFF4C0E13
:103B1000E926030EEA22EF50800B01E093D0D95141
:103B2000060DF3CFE9FFF4CFEAFF4C0EE926030EB2
:103B3000EA22EE52EECF10F0EFCF11F0000E10C0DF
:103B4000DFFF010E11C0DBFF020EDB6A030EDB6A32
:103B5000D9CFE9FFDACFEAFF640E096E0A6A0B6A71
:103B60000C6AEECF04F0EECF05F0EECF06F0EFCF0B
:103B700007F048EC37F003C0EDFF02C0EDFF01C0D5
:103B8000EDFF00C0EFFF0001D951030DF3CFE9FFB6
:103B9000F4CFEAFF000EE926030EEA22EE52EECF42
:103BA00010F0EFCF11F0126A136AD9CFE9FFDACF24
:103BB000EAFF10C009F011C00AF012C00BF013C0E8
:103BC0000CF0EECF04F0EECF05F0EECF06F0EFCF25
:103BD00007F0AEEC37F007C0EDFF06C0EDFF05C003
:103BE000EDFF04C0EFFF0001F60520E1F30EE66EE5
:103BF0004BEC2AF0E552750EE66E4BEC2AF0E552DE
:103C00000001D951030DF3CFE9FFF4CFEAFF000E15
:103C1000E926030EEA22EF50E66E4BEC2AF0E5525D
:103C2000000EDFCFE6FF4BEC2AF0E5520001D95140
:103C3000060DF3CFE9FFF4CFEAFF4C0EE926030EA1
:103C4000EA22EF8ED92BD851D95D01E3D96B0E0151
:103C5000032B195101E195D20351020801E391D2DE
:103C6000036B03014B6B0001D85103014B5D01E372
:103C700088D24B51060DF3CFE9FFF4CFEAFF4C0E8B
:103C8000E926030EEA22EF500F0B090801E0BAD033
:103C90004B51060DF3CFE9FFF4CFEAFF4C0EE926B6
:103CA000030EEA22EE52000ED880EE54000EED54C0
:103CB0001AE24B51060DF3CFE9FFF4CFEAFF4C0EA9
:103CC000E926030EEA22EE52EE06000EEF5A4B51A1
:103CD000060DF3CFE9FFF4CFEAFF4C0EE926030E01
:103CE000EA22EF9E0FD04B51060DF3CFE9FFF4CF40
:103CF000EAFF4C0EE926030EEA22050EE926000E25
:103D0000EA22EF2A4B51060DF3CFE9FFF4CFEAFF89
:103D10004C0EE926030EEA22030EE926000EEA22E3
:103D2000FF0EEE1802E1FF0EED186BE04B51060D91
:103D3000F3CFE9FFF4CFEAFF4C0EE926030EEA22A7
:103D4000EE52EECF10F0EFCF11F04B51060DF3CF46
:103D5000E9FFF4CFEAFF4C0EE926030EEA22030E38
:103D6000E926000EEA22EECF12F0EFCF13F010504A
:103D7000125C1150135845E30E011951020813E269
:103D80000A0EE66E03014B51030DF3CFE9FFF4CFAA
:103D9000EAFF000EE926030EEA22EF50E66E55EC2C
:103DA0002EF0E552E55203014B51060DF3CFE9FF2A
:103DB000F4CFEAFF4C0EE926030EEA22030EE926B1
:103DC000000EEA22EE68ED684B51060DF3CFE9FFD5
:103DD000F4CFEAFF4C0EE926030EEA22F00EEF14B0
:103DE0000009EF6E4B51060DF3CFE9FFF4CFEAFF68
:103DF0004C0EE926030EEA22050EE926000EEA2201
:103E0000EF6A0FD14B51060DF3CFE9FFF4CFEAFF74
:103E10004C0EE926030EEA22EF500F0B080801E0D2
:103E2000D3D04B51060DF3CFE9FFF4CFEAFF4C0E90
:103E3000E926030EEA22EE52EECF10F0EFCF11F09A
:103E40004B51030DF3CFE9FFF4CFEAFF000EE92653
:103E5000030EEA22EECF12F0EECF13F0EFCF14F004
:103E600000011350105C1450115803E30E011905A2
:103E70001BE103014B51060DF3CFE9FFF4CFEAFF3D
:103E80004C0EE926030EEA22EE52EE2A000EEF2235
:103E90004B51060DF3CFE9FFF4CFEAFF4C0EE926B4
:103EA000030EEA22EF9E10D003014B51060DF3CF13
:103EB000E9FFF4CFEAFF4C0EE926030EEA22050ED5
:103EC000E926000EEA22EF2A4B51060DF3CFE9FF57
:103ED000F4CFEAFF4C0EE926030EEA22030EE92690
:103EE000000EEA22FF0EEE1802E1FF0EED186BE065
:103EF0004B51060DF3CFE9FFF4CFEAFF4C0EE92654
:103F0000030EEA22EE52EECF10F0EFCF11F04B513C
:103F1000060DF3CFE9FFF4CFEAFF4C0EE926030EBE
:103F2000EA22030EE926000EEA22EECF12F0EFCFCE
:103F300013F01250105C1350115845E30E01195143
:103F4000020813E20A0EE66E03014B51030DF3CF94
:103F5000E9FFF4CFEAFF000EE926030EEA22EF5054
:103F6000E66E55EC2EF0E552E55203014B51060D7D
:103F7000F3CFE9FFF4CFEAFF4C0EE926030EEA2265
:103F8000030EE926000EEA22EE68ED684B51060D9D
:103F9000F3CFE9FFF4CFEAFF4C0EE926030EEA2245
:103FA000F00EEF140009EF6E4B51060DF3CFE9FF51
:103FB000F4CFEAFF4C0EE926030EEA22050EE926AD
:103FC000000EEA22EF6A2DD04B51060DF3CFE9FF28
:103FD000F4CFEAFF4C0EE926030EEA22050EE9268D
:103FE000000EEA22EF6A4B51060DF3CFE9FFF4CF42
:103FF000EAFF4C0EE926030EEA22030EE926000E24
:10400000EA22EE68ED684B51060DF3CFE9FFF4CFDD
:10401000EAFF4C0EE926030EEA22F00EEF14000927
:10402000EF6E0E01190559E103014B51060DF3CF57
:10403000E9FFF4CFEAFF4C0EE926030EEA22050E53
:10404000E926000EEA22EF50106E116A113404E2E4
:104050001050FA08000E11543FE24B51060DF3CFF9
:10406000E9FFF4CFEAFF4C0EE926030EEA22050E23
:10407000E926000EEA22EF6A4B51060DF3CFE9FF65
:10408000F4CFEAFF4C0EE926030EEA22030EE926DE
:10409000000EEA22EE68ED684B51060DF3CFE9FF02
:1040A000F4CFEAFF4C0EE926030EEA22F00EEF14DD
:1040B0000009EF6E0A0EE66E4B51030DF3CFE9FFD8
:1040C000F4CFEAFF000EE926030EEA22EF50E66E77
:1040D00055EC2EF0E552E55251D003014B51060D3F
:1040E000F3CFE9FFF4CFEAFF4C0EE926030EEA22F4
:1040F000050EE926000EEA22EF5032083FE24B514E
:10410000060DF3CFE9FFF4CFEAFF4C0EE926030ECC
:10411000EA22050EE926000EEA22EF6A4B51060D4F
:10412000F3CFE9FFF4CFEAFF4C0EE926030EEA22B3
:10413000030EE926000EEA22EE68ED684B51060DEB
:10414000F3CFE9FFF4CFEAFF4C0EE926030EEA2293
:10415000F00EEF140009EF6E0A0EE66E4B51030DE0
:10416000F3CFE9FFF4CFEAFF000EE926030EEA22BF
:10417000EF50E66E55EC2EF0E552E55203014B2B65
:1041800072D5050EE15C02E2E16AE552E16EE552AC
:10419000E7CFD9FF1200D9CFE6FFE1CFD9FF050E57
:1041A000E126040EDB6AB4C5E9FFEA6AE9BEEA6803
:1041B000040ED890E936EA36E806FBE1000EE9265F
:1041C000050EEA22010EEFCFDBFFF36E030EF3CFF5
:1041D000DBFF010EDB0419E1B4C5E9FFEA6AE9BEC1
:1041E000EA68040ED890E936EA36E806FBE1000EEC
:1041F000E926050EEA22010EE926000EEA22EF501A
:10420000FF0803E1030EDB6A69D0010EDB500208F0
:104210002FE1B4C5E9FFEA6AE9BEEA68040ED89066
:10422000E936EA36E806FBE1000EE926050EEA2249
:10423000010EE926000EEA22EF50FF0819E1B4C58D
:10424000E9FFEA6AE9BEEA68040ED890E936EA3680
:10425000E806FBE1000EE926050EEA22020EE92639
:10426000000EEA22EF50FF0803E1030EDB6A36D0AE
:10427000010EDB50060832E2020EDF6E010EDB504B
:10428000DF5C20E2B4C510F0116A10BE1168040EA4
:10429000D89010361136E806FBE1000E1026050E08
:1042A0001122DF500F011024E96E000E1120EA6E7A
:1042B000040EDBCFE7FFEF50E71A040EE7CFDBFF7A
:1042C000DF2ADCD7040EDB5009E00001F12B000EE1
:1042D000F2230E0111B702D0030EDB6A030EDB508E
:1042E00001E18ED00E0111A51BD0010EDB5002089A
:1042F00017E2B4C5E9FFEA6AE9BEEA68040ED8909D
:10430000E936EA36E806FBE1000EE926050EEA2268
:10431000030EE926000EEA22EF5002E0030EDB6AEC
:104320000E0111A31BD0010EDB0418E1B4C5E9FF97
:10433000EA6AE9BEEA68040ED890E936EA36E80689
:10434000FBE1000EE926050EEA22010EE926000E29
:10435000EA22EF50A50802E1030EDB6A010E0E010E
:1043600011154EE037510501B45D4AE0FF0E0E0114
:10437000375D46E0010EDF6E020EDB6ADBCF10F028
:10438000010EDB50D880105437E3B4C511F0126A27
:1043900011BE1268040ED89011361236E806FBE101
:1043A000000E1126050E1222020EDB500F01112401
:1043B000E96E000E1220EA6EEFCF10F037CE13F048
:1043C000146A13BE1468040ED89013361436E80627
:1043D000FBE1000E1326050E1422020EDB500F0126
:1043E0001324E96E000E1420EA6EEF50105C01E019
:1043F000DF6A020EDB2AC2D7DF5002E0030EDB6A5F
:10440000030EDB50106E050EE15C03E200D0E16AA2
:10441000E552E16E1050E552E7CFD9FF1200D9CF37
:10442000E6FFE1CFD9FF03014B6BFE0EDB500A0A1A
:1044300067E0030A34E0010A01E097D00001D85197
:1044400003014B5D2BE24B51060DF3CFE9FFF4CF97
:10445000EAFF4C0EE926030EEA22EF500F0B00098B
:104460001BE14B51060DF3CFE9FFF4CFEAFF4C0EF1
:10447000E926030EEA22080EEF6E4B51060DF3CF2C
:10448000E9FFF4CFEAFF4C0EE926030EEA22050EFF
:10449000E926000EEA22EF6A4B2BD0D766D0000146
:1044A000D85103014B5D2BE24B51060DF3CFE9FFD1
:1044B000F4CFEAFF4C0EE926030EEA22EF500F0B71
:1044C00000091BE14B51060DF3CFE9FFF4CFEAFFE2
:1044D0004C0EE926030EEA22090EEF6E4B51060D33
:1044E000F3CFE9FFF4CFEAFF4C0EE926030EEA22F0
:1044F000050EE926000EEA22EF6A4B2BD0D735D005
:104500000001D85103014B5D2FE24B51060DF3CF53
:10451000E9FFF4CFEAFF4C0EE926030EEA22F00E83
:10452000EF140009EF6E4B51060DF3CFE9FFF4CF06
:10453000EAFF4C0EE926030EEA22050EE926000EDC
:10454000EA22EF6A4B51060DF3CFE9FFF4CFEAFF01
:104550004C0EE926030EEA22030EE926000EEA229B
:10456000EE68ED684B2BCCD700D0E552E7CFD9FFF2
:104570001200D9CFE6FFE1CFD9FF090EE126040EE4
:10458000DB6A050EDB6A060EDB6A070EDB6A080EC5
:10459000DB68030EDB6A0501B3510501B45D02E17E
:1045A0002FEF29F0F8DD000902E13AEF27F0B4C55A
:1045B00037FE0E0138510501B45D01E1D8D3B4C511
:1045C00038FE040E0001F55D01E1D1D3050EF55D65
:1045D00001E1CDD3B4C5E9FFEA6AE9BEEA68040E99
:1045E000D890E936EA36E806FBE1000EE926050E2A
:1045F000EA22EF50070801E085D0B4C5E9FFEA6A76
:10460000E9BEEA68040ED890E936EA36E806FBE12E
:10461000000EE926050EEA22010EE926000EEA2226
:10462000EF50A8086FE1B4C5E9FFEA6AE9BEEA689D
:10463000040ED890E936EA36E806FBE1000EE926DA
:10464000050EEA22070EE926000EEA22EF50A30823
:1046500059E1B4C5E9FFEA6AE9BEEA68040ED890F8
:10466000E936EA36E806FBE1000EE926050EEA2205
:10467000020EE926000EEA22040EEFCFDBFFB4C5DE
:10468000E9FFEA6AE9BEEA68040ED890E936EA363C
:10469000E806FBE1000EE926050EEA22030EE926F4
:1046A000000EEA22050EEFCFDBFFB4C5E9FFEA6A90
:1046B000E9BEEA68040ED890E936EA36E806FBE17E
:1046C000000EE926050EEA22040EE926000EEA2273
:1046D000060EEFCFDBFFB4C5E9FFEA6AE9BEEA6880
:1046E000040ED890E936EA36E806FBE1000EE9262A
:1046F000050EEA22050EE926000EEA22070EEFCF8C
:10470000DBFFF3D0B4C5E9FFEA6AE9BEEA68040E4C
:10471000D890E936EA36E806FBE1000EE926050EF8
:10472000EA22EF500B0801E0E0D0B4C5E9FFEA6AE5
:10473000E9BEEA68040ED890E936EA36E806FBE1FD
:10474000000EE926050EEA22010EE926000EEA22F5
:10475000EF50A80801E0C9D0B4C5E9FFEA6AE9BE94
:10476000EA68040ED890E936EA36E806FBE1000E66
:10477000E926050EEA22020EE926000EEA22EF5093
:10478000EC0801E0B2D0B4C5E9FFEA6AE9BEEA6824
:10479000040ED890E936EA36E806FBE1000EE92679
:1047A000050EEA220B0EE926000EEA22EF50A308BE
:1047B00001E09BD0B4C5E9FFEA6AE9BEEA68040EED
:1047C000D890E936EA36E806FBE1000EE926050E48
:1047D000EA22030EE926000EEA22EF50FF0817E155
:1047E000B4C5E9FFEA6AE9BEEA68040ED890E93682
:1047F000EA36E806FBE1000EE926050EEA22040E81
:10480000E926000EEA22080EEFCFDBFF16D0B4C572
:10481000E9FFEA6AE9BEEA68040ED890E936EA36AA
:10482000E806FBE1000EE926050EEA22030EE92662
:10483000000EEA22080EEFCFDBFFB4C5E9FFEA6AFB
:10484000E9BEEA68040ED890E936EA36E806FBE1EC
:10485000000EE926050EEA22060EE926000EEA22DF
:10486000040EEFCFDBFFB4C5E9FFEA6AE9BEEA68F0
:10487000040ED890E936EA36E806FBE1000EE92698
:10488000050EEA22070EE926000EEA22050EEFCFFA
:10489000DBFFB4C5E9FFEA6AE9BEEA68040ED89016
:1048A000E936EA36E806FBE1000EE926050EEA22C3
:1048B000080EE926000EEA22060EEFCFDBFFB4C594
:1048C000E9FFEA6AE9BEEA68040ED890E936EA36FA
:1048D000E806FBE1000EE926050EEA22090EE926AC
:1048E000000EEA22070EEFCFDBFF060EDB50430A75
:1048F00001E11AD2070A01E117D20D0A01E114D22F
:10490000070A01E111D27E0A01E1F7D1220A04E08F
:10491000120A01E02CD22BD2B00EF36E040EDBCFC4
:10492000F4FFF350F45C1BE2040EDBCFD2F4DBCFD8
:1049300010F00001F851D880105410E3F751F36ED5
:10494000040EDBCFF4FFF350F45C08E30E01A50E78
:104950001F6F010EE66E74EC2EF0E55219D0050EB5
:10496000DBCFD2F4040EDB50B30803E10401D26BB9
:104970000FD0040EDB50B1080BE10401B10ED26F71
:104980000E01195105E0070EDBCFE6FF48DDE552C9
:104990000401D251000801E3AFD1D251106E116A67
:1049A000D890115004E6D20E105C000E115801E3AD
:1049B000A3D1070EDB500A0A01E137D1030A01E156
:1049C00086D0010A2AE00B0A1FE0070A1DE0040A4C
:1049D00009E0010A07E0070EDB500F0B0D0801E0AC
:1049E0008AD181D1D251EA6A000FE96E040EEA221F
:1049F000EF50FF0808E1D251EA6A000FE96E040E99
:104A0000EA22010EEF6E78D1D251EA6A000FE96E08
:104A1000040EEA22030EEF6E6FD1D251EA6A000F44
:104A2000E96E040EEA22EF50090808E0D251EA6A62
:104A3000000FE96E040EEA22080EEF6E0E01195106
:104A400045E003014B6B0001D85103014B5D3EE291
:104A50004B51030DF3CFE9FFF4CFEAFF000EE92637
:104A6000030EEA22EF500401D25D2DE103014B5108
:104A7000060DF3CFE9FFF4CFEAFF4C0EE926030E53
:104A8000EA22EF500F0B00091BE14B51060DF3CF4B
:104A9000E9FFF4CFEAFF4C0EE926030EEA22080EE6
:104AA000EF6E4B51060DF3CFE9FFF4CFEAFF4C0E4A
:104AB000E926030EEA22050EE926000EEA22EF6A35
:104AC000D8C04BF302D003014B2BBDD715D1D25127
:104AD000EA6A000FE96E040EEA22EF50090808E0C6
:104AE000D251EA6A000FE96E040EEA22080EEF6E58
:104AF000DF6A0E01195101E197D003014B6B0001F0
:104B0000D85103014B5D40E24B51030DF3CFE9FF58
:104B1000F4CFEAFF000EE926030EEA22EF5004016B
:104B2000D25D2FE103014B51060DF3CFE9FFF4CF26
:104B3000EAFF4C0EE926030EEA22EF500F0B0009A4
:104B40001BE14B51060DF3CFE9FFF4CFEAFF4C0E0A
:104B5000E926030EEA22090EEF6E4B51060DF3CF44
:104B6000E9FFF4CFEAFF4C0EE926030EEA22050E18
:104B7000E926000EEA22EF6A010EDF6ED8C04BF381
:104B800002D003014B2BBBD7DF504EE10E011905BC
:104B90004BE1190E0001D85D47E2D851030DF3CF68
:104BA000E9FFF4CFEAFF000EE926030EEA22D2C4A1
:104BB000EFFFD851060DF3CFE9FFF4CFEAFF4C0E1B
:104BC000E926030EEA22F00EEF140909EF6ED85120
:104BD000060DF3CFE9FFF4CFEAFF4C0EE926030EF2
:104BE000EA22050EE926000EEA22EF6AD851060DE8
:104BF000F3CFE9FFF4CFEAFF4C0EE926030EEA22D9
:104C0000EE52EE6AED6AD851060DF3CFE9FFF4CF0C
:104C1000EAFF4C0EE926030EEA22030EE926000EF7
:104C2000EA22EE68ED68D82B67D0D251EA6A000F0D
:104C3000E96E040EEA22EF50090808E0D251EA6A50
:104C4000000FE96E040EEA22080EEF6E0E011951F4
:104C500049E003014B6B0001D85103014B5D42E277
:104C60004B51030DF3CFE9FFF4CFEAFF000EE92625
:104C7000030EEA22EF500401D25D31E103014B51F2
:104C8000060DF3CFE9FFF4CFEAFF4C0EE926030E41
:104C9000EA22F00EEF140009EF6E4B51060DF3CF30
:104CA000E9FFF4CFEAFF4C0EE926030EEA22050ED7
:104CB000E926000EEA22EF6A4B51060DF3CFE9FF19
:104CC000F4CFEAFF4C0EE926030EEA22030EE92692
:104CD000000EEA22EE68ED68D8C04BF302D0030163
:104CE0004B2BB9D709D0D251EA6A000FE96E040EF6
:104CF000EA22030EEF6E00D03AD0040EDB50B40867
:104D000012E1050EDBCFD2F40401D25100080BE210
:104D10000F0ED25D08E2D251EA6A000FE96E040E6E
:104D2000EA220F0EEF6E23D0040EDB50B40804E12C
:104D3000050EDBCFD2F403D0040EDBCFD2F4040196
:104D4000D251000813E2D251106E116AD89011505E
:104D500004E6D20E105C000E115808E2D251EA6A45
:104D6000000FE96E040EEA220E0EEF6E00D01C0E4C
:104D70000001F45D09E1EFEC02F0010EF36E030EA9
:104D8000F3CFDBFF0001F46BF50509E1EFEC02F076
:104D9000010EF36E030EF3CFDBFF0001F56B020E85
:104DA000F55D13E1F60503E106EC04F009D0410ED0
:104DB0000E01105D03E105EC02F002D0EFEC02F011
:104DC000010EF36E030EF3CFDBFF030E0001F55D62
:104DD00050E1B4C5E9FFEA6AE9BEEA68040ED8907A
:104DE000E936EA36E806FBE1000EE926050EEA227E
:104DF000010EEFCFDBFFDF6E020EDB6A010EDB5030
:104E0000F36E020EDBCFF4FFF350F45C27E2B4C57F
:104E100010F0116A10BE1168040ED89010361136C9
:104E2000E806FBE1000E1026050E1122DF50DF2AF6
:104E30000F011024E96E000E1120EA6EEF50E66EAD
:104E4000020EDBCFF3FFDB2AF350EA6A1F0FE96E95
:104E50000E0EEA22E552E750EF6ED0D7010EDBCFFF
:104E6000E6FF74EC2EF0E552010EF36E030EF3CF65
:104E7000DBFF05D0010EF36E030EF3CFDBFF050E53
:104E80000001F55D01E01AD1010EF36E030EF3CFC0
:104E9000DBFF0E010B5141E1B4C5E9FFEA6AE9BE4F
:104EA000EA68040ED890E936EA36E806FBE1000E1F
:104EB000E926050EEA22EF0416E1B4C5E9FFEA6A25
:104EC000E9BEEA68040ED890E936EA36E806FBE166
:104ED000000EE926050EEA22010EE926000EEA225E
:104EE000EF50A50817E04E0EE66ED5DAE552410EFA
:104EF0000E01105D02E105EC02F00E010A6B0B6B76
:104F0000F20EE66E680EE66E4BDBE552E5520001EE
:104F1000F56B02D00E010B2BD0D0B4C5E9FFEA6AC5
:104F2000E9BEEA68040ED890E936EA36E806FBE105
:104F3000000EE926050EEA22EF50070870E1B4C51D
:104F4000E9FFEA6AE9BEEA68040ED890E936EA3673
:104F5000E806FBE1000EE926050EEA22010EE9262D
:104F6000000EEA22EF50A8085AE1B4C5E9FFEA6A48
:104F7000E9BEEA68040ED890E936EA36E806FBE1B5
:104F8000000EE926050EEA22030EE926000EEA22AB
:104F9000EF500E010C5D43E1B4C5E9FFEA6AE9BEDA
:104FA000EA68040ED890E936EA36E806FBE1000E1E
:104FB000E926050EEA22040EE926000EEA22EF5049
:104FC00012082DE1B4C5E9FFEA6AE9BEEA68040EF9
:104FD000D890E936EA36E806FBE1000EE926050E30
:104FE000EA22050EE926000EEA22EF500E010E5DC0
:104FF00016E1B4C5E9FFEA6AE9BEEA68040ED89092
:10500000E936EA36E806FBE1000EE926050EEA225B
:10501000070EE926000EEA22EF50A30817E04E0E15
:10502000E66E39DAE552410E0E01105D02E105EC43
:1050300002F00E010A6B0B6BF20EE66E680EE66E66
:10504000AFDAE552E5520001F56B02D00E010B2BF1
:105050000E010B51030831E20A070B6B0A510AE1FA
:105060000001F56BE50EE66E680EE66E99DAE55224
:10507000E55223D06B0EE66E0EDAE5520E010C2BD4
:105080000D070E2B0E2BA80E1F6F0CCE20FE0DCE83
:1050900021FE120E226F0ECE23FE2051211922195D
:1050A0002319246FA30E256F070EE66E74EC2EF005
:1050B000E5522E0EE66EEFD9E552CBD0040EF55D2B
:1050C00001E0C7D0DF6ADE52010EDD6EB4C5E9FF34
:1050D000EA6AE9BEEA68040ED890E936EA36E806DC
:1050E000FBE1000EE926050EEA22EF50F36E010EF9
:1050F000DBCFF4FFF350F45C28E2B4C511F0126A80
:1051000011BE1268040ED89011361236E806FBE183
:10511000000E1126050E1222010EDB500F01112484
:10512000E96E000E1220EA6EEFCF10F0010EDB04E4
:10513000EA6A1F0FE96E0E0EEA22EF50105C02E0E1
:10514000010EDF6E010EDB2AC1D7DF5005E16B0EC9
:10515000E66EA1D9E55215D04E0EE66E9CD9E55209
:10516000410E0E01105D02E105EC02F00E010A6B2A
:10517000F20EE66E680EE66E13DAE552E5520001B5
:10518000F56B0F0E0E011F15E76E010EE7CFDBFF6B
:10519000040EF36E010EDBCFF4FFF350F45C03E278
:1051A000DE52040EDD6EDF6A010EDB50DF5C11E2C1
:1051B000DF50EA6A1F0FE96E0E0EEA22EF2ADF2A9D
:1051C000DF50EA6A1F0FE96E0E0EEA22EF06DF2AB1
:1051D000EBD7010EDF6E020EDB6A010EDB50FE0F15
:1051E000DF5C10E2DF50EA6A1F0FE96E0E0EEA2262
:1051F000020EDBCFE7FFEF50E71A020EE7CFDBFF2F
:10520000DF2AEBD7010EDB50FE0FEA6A1F0FE96EB3
:105210000E0EEA22020EDBCFEFFF010EDBCFE6FF20
:1052200074EC2EF0E5522E0EE66E35D9E5520E01E5
:105230000A070A5109E10001F56BE50EE66E680EFA
:10524000E66EAED9E552E552010EF36E030EF3CFD2
:10525000DBFF030EDB5002E0F7EC01F008D01C0E80
:105260000001F45D04E1EFEC02F00001F46B090EC3
:10527000E15C02E2E16AE552E16EE552E7CFD9FF77
:105280001200D9CFE6FFE1CFD9FFE652B6D8DF6EE4
:105290000E010651FBE0DF5000D0E552E552E7CFAA
:1052A000D9FF1200D9CFE6FFE1CFD9FF030EE126E7
:1052B000010EDB6A020EDB6AE4DFDF6E300EDF5CBC
:1052C00022E3DF5039081FE3300EDF5ED950010FB3
:1052D000E96EDACFEAFF0A0EEC02F3CFEDFFEF0240
:1052E000F3CFEEFFF450ED26DF50106E116AD95067
:1052F000010FE96EDACFEAFF1050EE261150ED22D1
:10530000C0DFDF6EDBD7010EDBCF10F0020EDBCF8C
:1053100011F010C0F3FF11C0F4FF030EE15C03E2D3
:1053200000D0E16AE552E16EE552E7CFD9FF120005
:10533000D9CFE6FFE1CFD9FF020EE126010EDB6AED
:10534000A0DFDF6E300EDF5C06E3DF50390803E3D9
:10535000300EDF5E13D0410EDF5C06E3DF504608FF
:1053600003E3370EDF5E0AD0610EDF5C06E3DF5039
:10537000660803E3570EDF5E01D0DF6A010EDFCF60
:10538000DBFFDBCFF3FFF338F00BF36E010EF3CF4F
:10539000DBFF77DFDF6E300EDF5C06E3DF503908BE
:1053A00003E3300EDF5E13D0410EDF5C06E3DF5017
:1053B000460803E3370EDF5E0AD0610EDF5C06E3CA
:1053C000DF50660803E3570EDF5E01D0DF6A010E8F
:1053D000DBCFE7FFDF50E712010EE7CFDBFFDB504B
:1053E000106E020EE15C03E200D0E16AE552E16E6C
:1053F0001050E552E7CFD9FF1200D9CFE6FFE1CF39
:10540000D9FFE652DF6A000E0601E76EAD19E8AE7D
:1054100002D0AD3503D0E750D880AD5533E200015E
:10542000FB51FB2BE96EEA6AE9BEEA686C0EE926DD
:10543000060EEA22EFCFDFFF400EE76EFB19E8AE63
:1054400002D0E73402D0E750FB5D01E3FB6B0601BD
:10545000AD070601AE510FE0AEA104D00001FC2B58
:10546000000EFD230601AEA304D00001FE2B000EAA
:10547000FF230601AE6B0E01010E066F0001ED6FFA
:10548000DF5004D00E01066BDF5000D0E552E5522C
:10549000E7CFD9FF1200D9CFE6FFE1CFD9FF000156
:1054A000ED0502E0EE5105E0ACA2FED7FE0EDB50AA
:1054B000AD6EE552E7CFD9FF1200D9CFE6FFE1CFBD
:1054C000D9FFE652DF6ADFCF10F0080EE76E101842
:1054D000E8AE02D0E73402D0E750105C15E2FE0ED1
:1054E000DBAE05D0310EE66ED6DFE55204D0300ECD
:1054F000E66ED1DFE552FE0EDBCFF3FFF39EF346FF
:10550000F3CFDBFFDF2ADFD7E552E552E7CFD9FF44
:105510001200D9CFE6FFE1CFD9FFFE0EDBCFE6FFC9
:10552000B9EC31F0E552E66EB6DFE552FE0EDBCFA8
:10553000E6FFD4EC31F0E552E66EADDFE552E55220
:10554000E7CFD9FF1200D9CFE6FFE1CFD9FF020E96
:10555000E1260001ED0502E0EE5118E0FD0EDBCF83
:10556000DEFFDBCFDDFFDECFE9FFDDCFEAFFEF506F
:105570000DE0ACA2FED7DFCFE9FFDF2A010EDBCFC3
:10558000EAFF01E3DB2AEF50AD6EEDD7020EE15CDE
:1055900002E2E16AE552E16EE552E7CFD9FF12007F
:1055A000D9CFE6FFE1CFD9FF020EE1260001ED05DC
:1055B00002E0EE511AE0FD0EDBCFDEFFDBCFDDFFB8
:1055C000DECFF6FFDDCFF7FF0800F5500EE0ACA20E
:1055D000FED7DFCFF6FFDF2A010EDBCFF7FF01E3B7
:1055E000DB2A0800F550AD6EEBD7020EE15C02E25B
:1055F000E16AE552E16EE552E7CFD9FF1200D9CF5B
:10560000E6FFE1CFD9FFE652DF6ADA0EE66E680EFA
:10561000E66EC6DFE552E552DFCF10F0400EE76ED2
:105620001018E8AE02D0E73402D0E750105C13E265
:10563000DFCFE9FFEA6AE9BEEA686C0EE926060EEA
:10564000EA22EF50E66E65DFE552200EE66E23DFBC
:10565000E552DF2AE1D7D10EE66E680EE66EA0DFD6
:10566000E552E552ACC6E6FF54DFE552C80EE66EE1
:10567000680EE66E95DFE552E552FBC0E6FF49DFB6
:10568000E552000E0601E76EAD19E8AE02D0AD3569
:1056900003D0E750D880AD550BE2C00EE66E680E21
:1056A000E66E7EDFE552E552ADC6E6FF32DFE5523B
:1056B000E552E552E7CFD9FF1200D9CFE6FFE1CF9F
:1056C000D9FF060EE1260501B36B0501B46B050198
:1056D000B56B0501B66B0501B76B0501B86B0E0123
:1056E000316B0501C66B0501C56B0501C58F0E0148
:1056F000110E126F640EF36E020EF3CFDBFF030E7A
:10570000DB6A020EDBCF10F0DB06030EDBCF11F0FD
:1057100001E2DB061050111006E0100EE66E03ECFD
:1057200038F0E552EED70400100EE66E000EE66E7D
:10573000E66A0F0EE66E0E0EE66EFAEC30F0106EB4
:10574000050EE15E10508D0E0E010F5D06E03AEC85
:1057500001F00E01FE0E126F02D084EC31F0000158
:10576000D851190802E20001D86B0E01195109083D
:1057700002E20E01196BFF0E0E01175D03E10E012F
:10578000300E176F13CEB5F514CEB6F515CEB7F5AE
:1057900016CEB8F518CEC7F50401D26B0401D2516C
:1057A000106E116AD890115004E6D20E105C000EF3
:1057B00011580AE20401D251D22BEA6A000FE96EB5
:1057C000040EEA22EF68EAD7DF6A190EDF5C39E2DD
:1057D000DF50060DF3CFE9FFF4CFEAFF4C0EE926C8
:1057E000030EEA22EF6ADF50060DF3CFE9FFF4CF94
:1057F000EAFF4C0EE926030EEA22EE52EE6AED6A4B
:10580000DF50060DF3CFE9FFF4CFEAFF4C0EE92697
:10581000030EEA22030EE926000EEA22EE68ED6886
:10582000DF50060DF3CFE9FFF4CFEAFF4C0EE92677
:10583000030EEA22050EE926000EEA22EF6ADF2AAD
:10584000C4D7DF6A0001D851DF5C24E2DF50030DCA
:10585000F3CFE9FFF4CFEAFF000EE926030EEA22B8
:10586000010EEFCFDBFF010EDB50106E116AD890F6
:10587000115004E6D20E105C000E115809E2010E20
:10588000DB50EA6A000FE96E040EEA22090EEF6EA1
:10589000DF2AD8D7DF6A400EDF5C09E2DF50DF2A5B
:1058A000EA6A6C0FE96E060EEA22EF6AF4D704008A
:1058B00016EC00F029EC01F0960EF36E040EF3CF17
:1058C000DBFF050EDB6A040EDBCF10F0DB06050EF6
:1058D000DBCF11F001E2DB061050111006E0100ED4
:1058E000E66E03EC38F0E552EED70E01016BEEECFC
:1058F00031F0C7C518FED9EC01F0FE0E0E01125DA5
:1059000010E1D2EC00F00E01126F0E0112511F0BCC
:10591000F36EE00EB514F310B56EE66A6BEC31F081
:10592000E5520501B96BF00EE66EB5DDE5520400F7
:1059300076EC05F024EC1DF0B9EC22F0F8D7060E59
:10594000E15C02E2E16AE552E16EE552E7CFD9FFA0
:105950001200D9CFE6FFE1CFD9FF080EE126070EEE
:10596000DB6A030E0E01195D02E2010E92D1FD0EFB
:10597000DBCF10F0640EE76E1018E8AE02D01034E2
:1059800003D0E750D880105405E2640EF36EFD0E8C
:10599000F3CFDBFFFD0EDBCF10F0116A126A136A42
:1059A00010AE03D011681268136810C0DFFF010E3B
:1059B00011C0DBFF020E12C0DBFF030E13C0DBFFC2
:1059C00003014B6B0001D85103014B5D01E35FD133
:1059D0004B51030DF3CFE9FFF4CFEAFF000EE926A8
:1059E000030EEA22EFCF10F0FE0EDB50105C01E058
:1059F0004BD14B51030DF3CFE9FFF4CFEAFF000E7B
:105A0000E926030EEA22EE52EECF10F0EFCF11F0AE
:105A1000126A136AD9CFE9FFDACFEAFF10C009F0A2
:105A200011C00AF012C00BF013C00CF0EECF04F05E
:105A3000EECF05F0EECF06F0EFCF07F048EC37F0F1
:105A400003C0EDFF02C0EDFF01C0EDFF00C0EFFF9E
:105A5000D9CFE9FFDACFEAFF640E096E0A6A0B6A52
:105A60000C6AEECF04F0EECF05F0EECF06F0EFCFEC
:105A700007F0AEEC37F007C0EDFF06C0EDFF05C044
:105A8000EDFF04C0EFFF03014B51060DF3CFE9FF1B
:105A9000F4CFEAFF4C0EE926030EEA22EE52EECFD7
:105AA00010F0EFCF11F0DFCF12F0010EDBCF13F0CB
:105AB0001050125C1150135823E24B51060DF3CFD6
