:020000040000FA
:06000000ABEF34F012002A
:020006001200E6
:060008009EEF2EF0120035
:02000E007FB2BF
:04001000FED7120005
:060018000BEF2FF01200B7
:02001E000100DF
:0C00200088690000D800000026000000E5
:04002C00D9CFE6FF43
:10003000E1CFD9FF040EE126DE6ADD6ADECF10F0E3
:10004000DDCF11F0D890115004E6030E105C000EC5
:1000500011581EE2640EF36E020EF3CFDBFF030EA7
:10006000DB6A020EDBCF10F0DB06030EDBCF11F0F4
:1000700001E2DB061050111006E0100EE66E8BEC6C
:1000800034F0E552EED7DF2A010E01E3DB2AD6D7A2
:10009000896A010E926E400E8A6E860E936E400E35
:1000A0008B6EA50E946E0F015D6B0F015C6BC26AC7
:1000B000C16ABA0EC06EF19E0F01200E5B6F8A8A74
:1000C000DE6ADD6ADECF10F0DDCF11F0D89011507E
:1000D00004E6E80E105C030E115805E2DF2A010E5B
:1000E00001E3DB2AEFD79B6A700ED36E9B6A9B8C71
:1000F000D3A4FED7916A8A9A0400DE6ADD6ADECF55
:1001000010F0DDCF11F0D890115004E6300E105CE5
:10011000750E115805E2DF2A010E01E3DB2AEFD745
:100120008A8AF19E0F01C00E5B6FAB8E080EA76E20
:10013000ED0EF66E680EF76E0800F5507D6EF50E4A
:10014000F66E680EF76E0800F550AF6E260EAC6EB8
:10015000900EAB6E9E9AF28C9D8A9F9A9E9AD08E3C
:100160000F015F6B0F015F875F990F015F8F0F01B9
:100170005F95B798B698B8880F015F85800EB56E09
:100180000E0111511F0BF36EE00EB514F310B56E96
:10019000040EE15C02E2E16AE552E16EE552E7CF6E
:1001A000D9FF1200D9CFE6FFE1CFD9FFE652F29E88
:1001B000F29CDF6ADF501F0BF36EE00EB514F310F4
:1001C000B56E400EE66EB9EC34F0E552B450400B1B
:1001D00012E11F0EDF5C0FE20400DF2ADF501F0B6D
:1001E000F36EE00EB514F310B56E200EE66EB9ECAA
:1001F00034F0E552EBD7DF5014080CE21C0EDF5C44
:1002000009E2DF5001E0DF06DF5001E0DF06DF50EA
:1002100001E0DF06DF5001E0DF06DF5001E0DF062E
:10022000DF5001E0DF06DF5001E0DF06B798F28E15
:10023000F28CDF5000D0E552E552E7CFD9FF120033
:10024000450ED56ED58EF294F29AF194320ECD6EA3
:10025000CD809E909D90B16EB180A192A092A2920D
:100260001200D9CFE6FFE1CFD9FF030EE1260E0140
:10027000580E0F6F106B126B136B146B156B110E06
:10028000116F300E166FBF0E176F8D0E0E6F186B3D
:10029000E66A0EEC2EF0E5520A0EF36E010EF3CF75
:1002A000DBFF020EDB6A010EDBCF10F0DB06020E75
:1002B000DBCF11F001E2DB061050111006E0100E4A
:1002C000E66E8BEC34F0E552EED7DF6A190EDF5C98
:1002D00051E2DF50030DF3CFE9FFF4CFEAFF000E48
:1002E000E926030EEA22EF6ADF50030DF3CFE9FFA0
:1002F000F4CFEAFF000EE926030EEA22EE52EE6A80
:10030000ED6ADF50060DF3CFE9FFF4CFEAFF4C0EA4
:10031000E926030EEA22EF6ADF50060DF3CFE9FF6C
:10032000F4CFEAFF4C0EE926030EEA22EE52EE6A03
:10033000ED6ADF50060DF3CFE9FFF4CFEAFF4C0E74
:10034000E926030EEA22030EE926000EEA22EE68F1
:10035000ED68DF50060DF3CFE9FFF4CFEAFF4C0E56
:10036000E926030EEA22050EE926000EEA22EF6ACC
:10037000DF2AACD70001D86B41EC2EF00501B56B3C
:100380000501B66B0501B76B0501B86B030EE15CA7
:1003900002E2E16AE552E16EE552E7CFD9FF1200D1
:1003A0008B980501C00EBA6FBB6905016E0EBC6F5C
:1003B000BD69040EBC27000EBD23D58EF294F29ABF
:1003C000F194B180A192A092A292B798B688F28ED1
:1003D000F28C0501B36B0501B46B12000501B42B5F
:1003E0000A0EE76EB419E8AE02D0E73402D0E75047
:1003F000B45D01E3B46B1200D9CFE6FFE1CFD9FFC2
:10040000040EE1260501C5A50AD0130EE66E650EA1
:10041000E66E77EC27F0E552E5520501C595070E2B
:10042000106E650E116E126A10C0E6FF11C0E6FF75
:1004300012C0E6FF600EE66E000EE66E5AEC34F077
:10044000136E050EE15E1350DE520A0EDD6EB4C56A
:10045000E9FFEA6AE9BEEA68040ED890E936EA36AE
:10046000E806FBE1000EE926050EEA22030EEFCFB7
:10047000DBFFDB500F0805E20F0EF36E030EF3CF28
:10048000DBFF0E011651010B10E0030EDB500308D9
:100490000CE2020EDF6E030E106EDBCFE7FF105092
:1004A000E75E030EE7CFDBFF02D0010EDF6E030E27
:1004B000DBCFE6FF77EC2EF0E5520001666F020E0F
:1004C000DB6A030EDB50F36E020EDBCFF4FFF3505A
:1004D000F45C62E2B4C510F0116A10BE1168040E3B
:1004E000D89010361136E806FBE1000E1026050EF6
:1004F0001122DF500F011024E96E000E1120EA6E68
:10050000EF50E66E5CEC2EF0E552E66E010EDBCFAE
:10051000F3FFDB2AF350EA6A600FE96E000EEA226D
:10052000E552E750EF6EB4C510F0116A10BE1168C5
:10053000040ED89010361136E806FBE1000E1026A6
:10054000050E1122DF500F011024E96E000E11205C
:10055000EA6EEF50E66E77EC2EF0E552E66E010E95
:10056000DBCFF3FFDB2AF350EA6A600FE96E000E7F
:10057000EA22E552E750EF6E010EDBCFF3FFDB2AF4
:10058000F350EA6A600FE96E000EEA22200EEF6E69
:10059000020EDB2ADF2A95D7010EDB50EA6A600FD4
:1005A000E96E000EEA22EF6A600EE66E000EE66E5D
:1005B0004AEC27F0E552E552040EE15C02E2E16A02
:1005C000E552E16EE552E7CFD9FF1200D9CFE6FF41
:1005D000E1CFD9FF030EE126410E0E010F5D01E0D0
:1005E0008FD00501B3510501B45D06E1300EE66E12
:1005F0001EEC27F0E55283D0B4C5E9FFEA6AE9BEF4
:10060000EA68040ED890E936EA36E806FBE1000E07
:10061000E926050EEA22020EEFCFDBFFDB500F08C2
:1006200005E20F0EF36E020EF3CFDBFF0E0116A1F3
:100630000DD0020EDF6E030E106E020EDBCFE7FF51
:100640001050E75E020EE7CFDBFF02D0010EDF6E37
:10065000020EDBCFE6FF77EC2EF0E552E66E1EECE5
:1006600027F0E552010EDB6A020EDB50F36E010E3D
:10067000DBCFF4FFF350F45C42E2B4C510F0116A32
:1006800010BE1168040ED89010361136E806FBE152
:10069000000E1026050E1122DF500F011024E96E06
:1006A000000E1120EA6EEF50E66E5CEC2EF0E55283
:1006B000E66E1EEC27F0E552B4C510F0116A10BECC
:1006C0001168040ED89010361136E806FBE1000ED2
:1006D0001026050E1122DF500F011024E96E000EC6
:1006E0001120EA6EEF50E66E77EC2EF0E552E66EE2
:1006F0001EEC27F0E552010EDB2ADF2AB5D769D0C0
:10070000580E0F5D66E10501B3510501B45D05E1C9
:10071000E66A1EEC27F0E5525CD0B4C5E9FFEA6A50
:10072000E9BEEA68040ED890E936EA36E806FBE14D
:10073000000EE926050EEA22020EEFCFDBFFDB50AA
:100740000F0805E20F0EF36E020EF3CFDBFF0E0172
:1007500016A10DD0020EDF6E030E106E020EDBCF5F
:10076000E7FF1050E75E020EE7CFDBFF02D0010E7D
:10077000DF6E020EDBCFE6FF1EEC27F0E552010E26
:10078000DB6A020EDB50F36E010EDBCFF4FFF35099
:10079000F45C1FE2B4C510F0116A10BE1168040EBB
:1007A000D89010361136E806FBE1000E1026050E33
:1007B0001122DF50DF2A0F011024E96E000E1120F4
:1007C000EA6EEF50E66E1EEC27F0E552010EDB2AD2
:1007D000D8D7030EE15C02E2E16AE552E16EE55230
:1007E000E7CFD9FF1200D9CFE6FFE1CFD9FF030E43
:1007F000E126B4C5E9FFEA6AE9BEEA68040ED890CA
:10080000E936EA36E806FBE1000EE926050EEA22A3
:10081000020EEFCFDBFFDB500F0805E20F0EF36E89
:10082000020EF3CFDBFF020EDF6E030E106E020E20
:10083000DBCFE7FF1050E75E020EE7CFDBFFDB50B8
:10084000F00F010FE66E1EEC27F0E552790EE66E12
:100850001EEC27F0E552010EDB6A020EDB50F36E50
:10086000010EDBCFF4FFF350F45C1FE2B4C510F0CF
:10087000116A10BE1168040ED89010361136E806C1
:10088000FBE1000E1026050E1122DF50DF2A0F01BA
:100890001024E96E000E1120EA6EEF50E66E1EEC99
:1008A00027F0E552010EDB2AD8D7030EE15C02E205
:1008B000E16AE552E16EE552E7CFD9FF1200D9CFE8
:1008C000E6FFE1CFD9FF110EE126D0EC26F0DF6E76
:1008D0000E01055102E15EEF1AF00001F35102E052
:1008E000A6EC27F00001F451110A02E148EF1AF0DA
:1008F000010A02E1D4EF19F0050A02E180EF18F0D5
:100900001A0A02E10CEF18F0010A02E1CCEF17F02D
:10091000020A02E1DDEF16F01F0A02E15CEF16F0B9
:10092000010A02E108EF16F0060A02E17EEF0FF07D
:10093000190A02E1B4EF0EF0060A02E162EF0EF0CE
:10094000020A02E109EF0EF0010A02E1EDEF0DF0FB
:100950000F0A02E1BCEF0DF0010A02E158EF0DF0C1
:10096000030A02E13CEF0DF0010A02E10BEF0DF08A
:100970000E0A02E1E8EF0CF0090A02E1B2EF0CF016
:10098000010A02E18FEF0CF0150A02E182EF0CF090
:10099000160A3FE0010A02E05EEF1AF0400EDF5C4B
:1009A00006E10001010EF46F0001F66B30D0A70ED6
:1009B000DF5C07E10001010EF46F0001010EF66F2C
:1009C00026D0110EDF5C0BE1F29EF29C120EE66E59
:1009D000100EE66E00EC78F0E552E55218D0120EDB
:1009E000DF5C06E16B0EE66E1EEC27F0E5520FD0E1
:1009F000680EDF5C0CE1410E0E010F5D08E1F60EA2
:100A0000E66E680EE66E77EC27F0E552E5525EEF93
:100A10001AF0DF507C0A02E174EF0CF00C0A02E1DC
:100A200094EF0BF0390A02E13FEF0BF0200A02E1EC
:100A3000F7EF0AF00D0A02E1E8EF0AF0070A02E117
:100A4000DBEF0AF00F0A02E1CDEF0AF0040A01E140
:100A500042D33B0A01E128D3070A01E1F8D1100A89
:100A600001E1F0D1150A01E1E8D1200A01E1D4D178
:100A7000130A01E191D1300A01E187D1200A01E195
:100A80007FD1080A01E12AD10E0A01E122D1030A2D
:100A900001E11AD1200A01E112D1020A01E10AD1D1
:100AA000200A01E100D10C0A01E1E7D0200A01E1AE
:100AB000DFD01B0A01E1D7D0030A01E1CFD0070A3A
:100AC00001E1C7D0510A01E1A7D0780A01E18AD03B
:100AD000220A01E182D0080A72E0BA0A6AE00C0A2E
:100AE00061E0010A58E0030A4FE0010A44E0E60A27
:100AF00035E0030A21E0070A18E0030A0AE0B60A13
:100B000006E0E70A02E078EF0CF080EF0CF080EFEF
:100B10000CF0F29EF29C120EE66E100EE66E00ECE9
:100B200078F0E552E55280EF0CF06B0EE66E1EECAD
:100B300027F0E55280EF0CF00001010EF76F000185
:100B4000010EF86F0001F46B0001F85105E16B0E26
:100B5000E66E1EEC27F0E55280EF0CF00001F76B1B
:100B60000001F86B0001F46B6B0EE66E1EEC27F0D3
:100B7000E55280EF0CF00001C80EEC6F0001F46B41
:100B80000001EB2B80EF0CF000011E0EEC6F00015A
:100B9000F46B80EF0CF000010A0EEC6F0001F46BB7
:100BA00080EF0CF00001050EEC6F0001F46B80EF9C
:100BB0000CF00001EC6B0001F46B80EF0CF031ECF9
:100BC00001F00001F85105E16B0EE66E1EEC27F016
:100BD000E5520001F46B80EF0CF00001020EF46F9F
:100BE00080EF0CF00E01410E0F6F0E01106B0E0125
:100BF000129D12CEB5F50E01300E166F0001F86B86
:100C0000F7C0E6FF0EEC2EF0E5526B0EE66E1EEC22
:100C100027F0E55280EF0CF00E01580E0F6F0E0119
:100C2000030E106F0E01128D12CEB5F50E01310EAE
:100C3000166F0001020EF56F0001010EF76F000143
:100C4000010EF86FF7C0E6FF0EEC2EF0E55280EFD4
:100C50000CF00001030EF46F80EF0CF00001040EA5
:100C6000F46F80EF0CF00001070EF46F80EF0CF0D2
:100C700000010A0EF46F80EF0CF00E01040E076FF6
:100C80000E01086B0E010851082BEA6A1E0FE96E6F
:100C90000E0EEA22A80EEF6E0E01336B00010D0E50
:100CA000F46F80EF0CF00001120EF46F0E01306B48
:100CB00080EF0CF00001140EF46F80EF0CF00001D7
:100CC0000B0EF46F80EF0CF000010E0EF46F80EF4E
:100CD0000CF00001100EF46F80EF0CF00001F46BCB
:100CE000410E0E010F5D4AE1F90EE66E640EE66EEE
:100CF00077EC27F0E552E552020EDB6A020EDB507C
:100D0000106E116AD890115004E6D20E105C000EDD
:100D100011582CE2020EDB50EA6A000FE96E040E55
:100D2000EA22EF50FF081FE0260EE66E650EE66E23
:100D300077EC27F0E552E552020EDBCFE6FF30EC10
:100D400027F0E552200EE66E1EEC27F0E552020E6B
:100D5000DB50EA6A000FE96E040EEA22EF50E66EFD
:100D600030EC27F0E552020EDB2AC8D7260EE66EDD
:100D7000650EE66E77EC27F0E552E55280EF0CF059
:100D80000001160EF46F80EF0CF00001010EF56FFC
:100D90000001F46B80EF0CF0040EDB6A0A0EF36EB8
:100DA000040EDBCFF4FFF350F45C24E2020EDB6AA6
:100DB000100EF36E020EDBCFF4FFF350F45C17E27B
:100DC000040EDB50100DF3CF10F0F4CF11F0000E35
:100DD0001026050E1122020EDB500F011024E96EC1
:100DE000000E1120EA6EEF6A020EDB2AE1D7040E34
:100DF000DB2AD4D70501B36B0501B46B0501B96BD0
:100E00000001F46B0001F85105E16B0EE66E1EEC7B
:100E100027F0E55280EF0CF00001F46B6B0EE66EEC
:100E20001EEC27F0E552ED0EE66E640EE66E77ECF2
:100E300027F0E552E55280EF0CF00001110EF46F3F
:100E400080EF0CF00001150EF46F80EF0CF0580EDF
:100E50000E010F5D2EE114EC26F0E76E010EE7CFD8
:100E6000DBFF010EDB5054081EE10E019A0E1E6FCF
:100E70000E01BC0E1F6F0E01DE0E206F0E01F00E74
:100E8000216F0E01120E226F0E01340E236F0E0120
:100E9000EF0E246F0E01010E256F080EE66E17ECA3
:100EA0002BF0E55205D0450EE66E1EEC27F0E5521C
:100EB000F7D0410E0E010F5D01E0EDD014EC26F0ED
:100EC000E76E010EE7CFDBFF010EDB504B082EE192
:100ED000DD0EE66E640EE66E77EC27F0E552E55225
:100EE0000E019A0E1E6F0E01BC0E1F6F0E01DE0E5C
:100EF000206F0E01F00E216F0E01120E226F0E01F7
:100F0000340E236F0E01BB0E246F0E01CD0E256F24
:100F1000080EE66E17EC2BF0E552C60EE66E640E78
:100F2000E66E77EC27F0E552E552B4D0010EDB50C7
:100F300054082EE1B30EE66E640EE66E77EC27F0F1
:100F4000E552E5520E019A0E1E6F0E01BC0E1F6F88
:100F50000E01DE0E206F0E01F00E216F0E01120E3B
:100F6000226F0E01340E236F0E01EF0E246F0E015F
:100F7000010E256F080EE66E17EC2BF0E552990E68
:100F8000E66E640EE66E77EC27F0E552E55282D00D
:100F9000010EDB50530835E10001040EF56F0E0120
:100FA0009A0E1E6F0E01BC0E1F6F0E01DE0E206F1B
:100FB0000E01F00E216F0E01120E226F0E01340E83
:100FC000236F0E01560E246F0E01780E256F05015A
:100FD000B36B0501B46B080EE66E17EC2BF0E5520F
:100FE0008C0EE66E640EE66E77EC27F0E552E55265
:100FF0002E0EE66E1EEC27F0E5520E01C80E096FAC
:1010000049D0010EDB50570840E10001050EF56F95
:101010000501B36B0501B46B0E010B690E01800E67
:101020000C6F0E01550E0D6F0E01A80E1E6F0BCE2C
:101030001FFE0CCE20FE0E01120E216F0DCE22FEE1
:101040000E011F510E0120190E0121190E01221946
:101050000E01236F0E01A30E246F070EE66E17EC30
:101060002BF0E5528C0EE66E640EE66E77EC27F000
:10107000E552E5522E0EE66E1EEC27F0E5520E010B
:10108000C80E096F0E010A6B05D0450EE66E1EEC08
:1010900027F0E55205D0450EE66E1EEC27F0E5522E
:1010A0000001F46B80EF0CF025EC26F0F3CFC7F5D0
:1010B000C7C517FEF7C0E6FF0EEC2EF0E5520001A3
:1010C000F85105E16B0EE66E1EEC27F0E5520001CB
:1010D000F46B80EF0CF0410E0E010F5D01E055D274
:1010E000F60EE66E680EE66E77EC27F0E552E552F6
:1010F0007C0EE66E640EE66E77EC27F0E552E55264
:10110000600EE66E000EE66E0E011151E66EE66AA6
:10111000ABEC32F0E552E552E552E552600EE66E78
:10112000000EE66E4AEC27F0E552E5526A0EE66ED6
:10113000640EE66E77EC27F0E552E552590EE66E46
:10114000640EE66E77EC27F0E552E552300E0E01A4
:101150001025E66E1EEC27F0E552420EE66E640E98
:10116000E66E77EC27F0E552E552300E0E011215CF
:1011700009E13E0EE66E640EE66E77EC27F0E5526E
:10118000E55239D00E0112A909D02C0EE66E640E7C
:10119000E66E77EC27F0E552E5520BD00E0112AB6C
:1011A00008D01A0EE66E640EE66E77EC27F0E55274
:1011B000E5520F0E0E011215300FE66E1EEC27F0F1
:1011C000E5520E0EE66E640EE66E77EC27F0E55201
:1011D000E55213CEE6FF5CEC2EF0E552E66E1EEC17
:1011E00027F0E55213CEE6FF77EC2EF0E552E66EDF
:1011F0001EEC27F0E552F70EE66E630EE66E77EC16
:1012000027F0E552E552300E0E01141509E13E0EAD
:10121000E66E640EE66E77EC27F0E552E55239D0C3
:101220000E0114A909D02C0EE66E640EE66E77EC62
:1012300027F0E552E5520BD00E0114AB08D01A0E80
:10124000E66E640EE66E77EC27F0E552E5520F0E7F
:101250000E011415300FE66E1EEC27F0E5520E0E4F
:10126000E66E640EE66E77EC27F0E552E55215CE99
:10127000E6FF5CEC2EF0E552E66E1EEC27F0E55240
:1012800015CEE6FF77EC2EF0E552E66E1EEC27F069
:10129000E552DC0EE66E630EE66E77EC27F0E55263
:1012A000E55216CEE6FF1EEC27F0E552C40EE66EC0
:1012B000630EE66E77EC27F0E552E552600EE66EBF
:1012C000000EE66E0E011751E66EE66AABEC32F0E8
:1012D000E552E552E552E552600EE66E000EE66E0E
:1012E0004AEC27F0E552E552BA0EE66E630EE66E62
:1012F00077EC27F0E552E552050EDB6A010EF36E3E
:10130000060EF3CFDBFF0E011751106E116AD95094
:10131000050FE96EDACFEAFF1050EE5E1150ED5A7C
:10132000D950050FE96EDACFEAFF020ED890EE36FB
:10133000ED36E806FBE1600EE66E000EE66E050E89
:10134000DBCFE6FF060EDBCFE6FFABEC32F0E5527B
:10135000E552E552E552600EE66E000EE66E4AEC8E
:1013600027F0E552E552A20EE66E630EE66E77ECCC
:1013700027F0E552E552600EE66E000EE66EB9C546
:1013800010F0116A10BE116810C0E6FF11C0E6FF30
:10139000ABEC32F0E552E552E552E552600EE66EF6
:1013A000000EE66E4AEC27F0E552E5528D0EE66E31
:1013B000630EE66E77EC27F0E552E552600EE66EBE
:1013C000000EE66EEFC0E6FFF0C0E6FFABEC32F0D9
:1013D000E552E552E552E552600EE66E000EE66E0D
:1013E0004AEC27F0E552E552780EE66E630EE66EA3
:1013F00077EC27F0E552E552600EE66E000EE66EE1
:10140000F1C0E6FFF2C0E6FFABEC32F0E552E55288
:10141000E552E552600EE66E000EE66E4AEC27F0ED
:10142000E552E552630EE66E630EE66E77EC27F04A
:10143000E552E552600EE66E000EE66EFAC0E6FF7B
:10144000FBC0E6FFABEC32F0E552E552E552E55267
:10145000600EE66E000EE66E4AEC27F0E552E552AD
:101460004E0EE66E630EE66E77EC27F0E552E5521F
:10147000600EE66E000EE66EFCC0E6FFFDC0E6FF05
:10148000ABEC32F0E552E552E552E552600EE66E05
:10149000000EE66E4AEC27F0E552E5520001F351EA
:1014A00008E03B0EE66E630EE66E77EC27F0E55241
:1014B000E552210EE66E630EE66E77EC27F0E552FC
:1014C000E5520E011851040A38E0070A17E0020A33
:1014D0000CE0010A01E050D01E0EE66E630EE66ECF
:1014E00077EC27F0E552E55247D0150EE66E630E15
:1014F000E66E77EC27F0E552E5523ED0090EE66E37
:10150000630EE66E77EC27F0E552E552600EE66E6C
:10151000000EE66E0001D851E66EE66AABEC32F0E2
:10152000E552E552E552E552600EE66E000EE66EBB
:101530004AEC27F0E552E5521FD0FF0EE66E620E30
:10154000E66E77EC27F0E552E552600EE66E000E8F
:10155000E66E0001D851E66EE66AABEC32F0E55279
:10156000E552E552E552600EE66E000EE66E4AEC7C
:1015700027F0E552E55200D0D60EE66E620EE66E1A
:1015800077EC27F0E552E55205D0450EE66E1EECED
:1015900027F0E5520001F46BB3D10001F85105E1E9
:1015A0006B0EE66E1EEC27F0E5520001020EF56FA1
:1015B0000001F46BA5D10001F56B0001F85105E1C4
:1015C0006B0EE66E1EEC27F0E5520001F46B98D12D
:1015D000410E0E010F5D03E197EC2CF005D0450E96
:1015E000E66E1EEC27F0E5520001F46B89D1410E46
:1015F0000E010F5D3CE1D2EC00F00E01116F0E0107
:1016000011511F0BF36EE00EB514F310B56E6B0E97
:10161000E66E1EEC27F0E552C40EE66E620EE66E34
:1016200077EC27F0E552E552600EE66E000EE66EAE
:101630000E011151E66EE66AABEC32F0E552E5526E
:10164000E552E552600EE66E000EE66E4AEC27F0BB
:10165000E552E552260EE66E650EE66E77EC27F053
:10166000E552E552E66A0EEC2EF0E55205D0450E45
:10167000E66E1EEC27F0E5520001F46B41D1410EFD
:101680000E010F5D49E114EC26F0E76E030EE7CF83
:10169000DBFF030EDB502D0806E10E011107E66AA1
:1016A0000EEC2EF0E552030EDB502B0806E10E0186
:1016B000112BE66A0EEC2EF0E5520E0111511F0BB4
:1016C000F36EE00EB514F310B56EC40EE66E620E46
:1016D000E66E77EC27F0E552E552600EE66E000EFE
:1016E000E66E0E011151E66EE66AABEC32F0E552A1
:1016F000E552E552E552600EE66E000EE66E4AECEB
:1017000027F0E552E552260EE66E650EE66E77ECA2
:1017100027F0E552E55205D0450EE66E1EEC27F0A7
:10172000E5520001F46BECD00501B45103E1050171
:101730000A0EB46F0501B407B4C5E9FFEA6AE9BE51
:10174000EA68040ED890E936EA36E806FBE1000EB6
:10175000E926050EEA22070EEF6EB4C5E9FFEA6A34
:10176000E9BEEA68040ED890E936EA36E806FBE1FD
:10177000000EE926050EEA22010EE926000EEA22F5
:10178000A80EEF6EB4C5E9FFEA6AE9BEEA68040E86
:10179000D890E936EA36E806FBE1000EE926050EA8
:1017A000EA22020EE926000EEA22330EEF6EB4C5DD
:1017B000E9FFEA6AE9BEEA68040ED890E936EA363B
:1017C000E806FBE1000EE926050EEA22030EE926F3
:1017D000000EEA22EF6AB4C5E9FFEA6AE9BEEA68E8
:1017E000040ED890E936EA36E806FBE1000EE92659
:1017F000050EEA22040EE926000EEA22020EEF6E22
:10180000B4C5E9FFEA6AE9BEEA68040ED890E93691
:10181000EA36E806FBE1000EE926050EEA22070E8D
:10182000E926000EEA22A30EEF6E0E0106512EE10C
:10183000B4C5E9FFEA6AE9BEEA68040ED890E93661
:10184000EA36E806FBE1000EE926050EEA22050E5F
:10185000E926000EEA22010EEF6EB4C5E9FFEA6A3E
:10186000E9BEEA68040ED890E936EA36E806FBE1FC
:10187000000EE926050EEA22060EE926000EEA22EF
:10188000200EEF6E0E01010E066F2BD0B4C5E9FFDE
:10189000EA6AE9BEEA68040ED890E936EA36E80654
:1018A000FBE1000EE926050EEA22050EE926000EF0
:1018B000EA22EF6AB4C5E9FFEA6AE9BEEA68040E03
:1018C000D890E936EA36E806FBE1000EE926050E77
:1018D000EA22060EE926000EEA22210EEF6E0E0124
:1018E000066B0001F46B0CD00001170EF46F08D0EA
:1018F000450EE66E1EEC27F0E5520001F46B00D0B9
:101900005EEF1AF07C0EDF5C01E1FF00450EE66E33
:101910001EEC27F0E5520001F46B5EEF1AF0410E69
:10192000DF5C03E0580EDF5C14E1DF500E010F5D59
:1019300007E0DFCF0FFEF7C0E6FF0EEC2EF0E5521A
:101940000001F85105E16B0EE66E1EEC27F0E55242
:1019500005D0450EE66E1EEC27F0E5520001F46B53
:101960005EEF1AF0300EDF5C2AE3DF50370827E322
:10197000300EDF5C0E01105D19E0300EDF5C0E01F1
:10198000106F020E0E01101505E10F0E0E0112155B
:10199000010803E20E01128D02D00E01129DF7C064
:1019A000E6FF0EEC2EF0E55212CEB5F50001F8512F
:1019B00005E16B0EE66E1EEC27F0E55205D0450EF4
:1019C000E66E1EEC27F0E5520001F46B5EEF1AF0B4
:1019D000300EDF5C17E3DF50330814E3DF500E01F5
:1019E000165D07E0DFCF16FEF7C0E6FF0EEC2EF027
:1019F000E5520001F85105E16B0EE66E1EEC27F092
:101A0000E55205D0450EE66E1EEC27F0E5520001CA
:101A1000F46B5EEF1AF0490EDF5C03E0690EDF5CE9
:101A200004E10E01100E126F22D0450EDF5C03E0C0
:101A3000650EDF5C04E10E01200E126F18D00E015E
:101A4000125109E00E01126B0501B56BF7C0E6FFFC
:101A50000EEC2EF0E5520001F85105E16B0EE66E3A
:101A60001EEC27F0E5520001F46B5EEF1AF0000166
:101A7000050EF46F5EEF1AF0300EDF5C09E3DF5005
:101A8000390806E3300EDF5EDF500E01122709D061
:101A9000450EE66E1EEC27F0E5520001F46B5EEF9A
:101AA0001AF00E01306B0001060EF46F5EEF1AF0B3
:101AB000300EDF5C08E3DF50390805E3300EDF5CF1
:101AC0000E012E6F1AD0410EDF5C09E3DF5046088D
:101AD00006E3410EDF5C0A0F0E012E6F0ED0610E81
:101AE000DF5C09E3DF50660806E3610EDF5C0A0F86
:101AF0000E012E6F02D00E012E6B0E01305131E01F
:101B0000020E0E01101505E10F0E0E01121501084F
:101B100002E20E01128D0E012E510E012F270E0131
:101B20000851082BEA6A1E0FE96E0E0EEA222FCE2C
:101B3000EFFF2FCE13FEF7C0E6FF0EEC2EF0E552BE
:101B400012CEB5F513CEB6F50001F85105E16B0ED6
:101B5000E66E1EEC27F0E5520001F46B0E01306BCF
:101B600009D02ECE2FFE0E012F39F00B2F6F0E0154
:101B7000010E306F5EEF1AF0490EDF5C03E0690E74
:101B8000DF5C04E10E01100E146F22D0450EDF5C05
:101B900003E0650EDF5C04E10E01200E146F18D027
:101BA0000E01145109E00E01146B0501B76BF7C06B
:101BB000E6FF0EEC2EF0E5520001F85105E16B0E48
:101BC000E66E1EEC27F0E5520001F46B5EEF1AF0B2
:101BD0000001080EF46F5EEF1AF0300EDF5C09E3CF
:101BE000DF50390806E3300EDF5EDF500E011427A8
:101BF00009D0450EE66E1EEC27F0E5520001F46BAD
:101C00005EEF1AF00E01306B0001090EF46F5EEF0B
:101C10001AF0300EDF5C08E3DF50390805E3300EC0
:101C2000DF5C0E012E6F1AD0410EDF5C09E3DF503E
:101C3000460806E3410EDF5C0A0F0E012E6F0ED040
:101C4000610EDF5C09E3DF50660806E3610EDF5CCE
:101C50000A0F0E012E6F02D00E012E6B0E013051B5
:101C600026E00E012E510E012F270E010851082BE0
:101C7000EA6A1E0FE96E0E0EEA222FCEEFFF2FCE7C
:101C800015FEF7C0E6FF0EEC2EF0E55214CEB7F5C8
:101C900015CEB8F50001F85105E16B0EE66E1EECAD
:101CA00027F0E5520001F46B0E01306B09D02ECE07
:101CB0002FFE0E012F39F00B2F6F0E01010E306F2A
:101CC0005EEF1AF0580E0E010F5D03E00001F605FD
:101CD00003E1DFCF07FE2CD0310EDF5C08E3DF50DD
:101CE000390805E3300EDF5C0E01076F21D0410E8D
:101CF000DF5C09E3DF50460806E3410EDF5C0A0FB4
:101D00000E01076F15D0610EDF5C09E3DF50660836
:101D100006E3610EDF5C0A0F0E01076F09D0450E66
:101D2000E66E1EEC27F0E5520001F46B5EEF1AF050
:101D30000E01086B0E0116A30ED00E010851082BE0
:101D4000EA6A1E0FE96E0E0EEA22A80EEF6E0E0171
:101D5000072B0E01336B0E01306B0E01346B00014B
:101D60000C0EF46F5EEF1AF0580E0E010F5D03E0DB
:101D70000001F6054BE10E010851082BEA6A1E0F1F
:101D8000E96E0E0EEA22DFCFEFFFDF500E01331BAC
:101D90000E0107510E01D880085537E20E01085197
:101DA000082BEA6A1E0FE96E0E0EEA2233CEEFFF11
:101DB0000E010851082BEA6A1E0FE96E0E0EEA2288
:101DC000A30EEF6E08CEE6FF17EC2BF0E552B10E36
:101DD0000E011F5D10E1080E0E01225D0CE30E01E5
:101DE00022510A0808E30E01185105E022CEE6FF51
:101DF00050EC1FF0E5520001F85105E16B0EE66E64
:101E00001EEC27F0E5520001F46B76D0300EDF5C5B
:101E100008E3DF50390805E3300EDF5C0E012E6F5A
:101E200021D0410EDF5C09E3DF50460806E3410E96
:101E3000DF5C0A0F0E012E6F15D0610EDF5C09E327
:101E4000DF50660806E3610EDF5C0A0F0E012E6F9D
:101E500009D0450EE66E1EEC27F0E5520001F46B4A
:101E60005EEF1AF00E0130513EE00E012E510E01D0
:101E70002F270E010851082BEA6A1E0FE96E0E0E7D
:101E8000EA222FCEEFFF0E012F510E01331B0E0160
:101E900007510E01D880085523E20E010851082B86
:101EA000EA6A1E0FE96E0E0EEA2233CEEFFF0E0134
:101EB0000851082BEA6A1E0FE96E0E0EEA22A30EE5
:101EC000EF6E08CEE6FF17EC2BF0E5520001F8515B
:101ED00005E16B0EE66E1EEC27F0E5520001F46B97
:101EE0000E01306B09D02ECE2FFE0E012F39F00BD4
:101EF0002F6F0E01010E306F5EEF1AF0DF50630A94
:101F000002E1B5EF15F05A0A02E13DEF15F0010AC2
:101F100002E195EF13F00F0A01E1ECD3010A01E1B0
:101F200013D2030A01E1E6D0050A01E1CCD0010A8F
:101F300001E1C9D0020A01E1C6D0070A01E1C3D01C
:101F4000060A02E0FEEF15F0010EDB6A020EDB6A04
:101F50000001D851F36E010EDBCFF4FFF350F45CB7
:101F600001E3A7D0010EDB50030DF3CFE9FFF4CF5F
:101F7000EAFF000EE926030EEA22EF50000801E313
:101F800095D0010EDB50030DF3CFE9FFF4CFEAFF4C
:101F9000000EE926030EEA22EF50106E116AD89067
:101FA000115004E6D20E105C000E115801E37ED0F1
:101FB000010EDB50030DF3CFE9FFF4CFEAFF000E73
:101FC000E926030EEA22EECF10F0EECF11F0EFCFAC
:101FD00012F0010EDB50060DF3CFE9FFF4CFEAFF5C
:101FE0004C0EE926030EEA22EE52EECF13F0EFCFAD
:101FF00014F000011350115C1450125820E2010E2D
:10200000DB50060DF3CFE9FFF4CFEAFF4C0EE926D3
:10201000030EEA22EE52EECF10F0EFCF11F0010ED8
:10202000DB50030DF3CFE9FFF4CFEAFF000EE92602
:10203000030EEA22EE5210C0EEFF11C0EDFF010EBA
:10204000DB50030DF3CFE9FFF4CFEAFF000EE926E2
:10205000030EEA22EFCFD2F40401D251EA6A000F54
:10206000E96E040EEA22090EEF6E010EDB50030D3D
:10207000F3CFE9FFF4CFEAFF000EE926030EEA22D0
:10208000EE52000ED880EE54000EED5402E2020E25
:10209000DB2A010EDB50060DF3CFE9FFF4CFEAFF98
:1020A0004C0EE926030EEA22800EEF6E010EDB2AAB
:1020B0004FD741EC2EF0020EDB5003E1300EDF6E05
:1020C00002D0330EDF6E300EDF5C0E01185D08E0CB
:1020D000300EDF5C0E01186FE66A0EEC2EF0E55252
:1020E0000001F85105E16B0EE66E1EEC27F0E5529B
:1020F00004EF16F0410E0E010F5D01E023D1B30E87
:10210000E66E620EE66E77EC27F0E552E552010EC0
:10211000DB6A0001D851F36E010EDBCFF4FFF35000
:10212000F45C01E307D1010EDB50030DF3CFE9FFAF
:10213000F4CFEAFF000EE926030EEA22EF5001E198
:10214000DDD0AF0EE66E620EE66E77EC27F0E5525C
:10215000E552010EDB50030DF3CFE9FFF4CFEAFFA8
:10216000000EE926030EEA22EF50E66E30EC27F06F
:10217000E552A80EE66E620EE66E77EC27F0E552A9
:10218000E552600EE66E000EE66E010EDB50030DAA
:10219000F3CFE9FFF4CFEAFF000EE926030EEA22AF
:1021A000EE52EECFE6FFEFCFE6FFABEC32F0E552BA
:1021B000E552E552E552600EE66E000EE66E4AEC20
:1021C00027F0E552E552A20EE66E620EE66E77EC5F
:1021D00027F0E552E552600EE66E000EE66E010E47
:1021E000DB50060DF3CFE9FFF4CFEAFF4C0EE926F2
:1021F000030EEA22EE52EECFE6FFEFCFE6FFABECA6
:1022000032F0E552E552E552E552600EE66E000E00
:10221000E66E4AEC27F0E552E5529C0EE66E620E41
:10222000E66E77EC27F0E552E552010EDB50060D25
:10223000F3CFE9FFF4CFEAFF4C0EE926030EEA22C2
:10224000EF50E66E30EC27F0E552960EE66E620E29
:10225000E66E77EC27F0E552E552600EE66E000E72
:10226000E66E010EDB50060DF3CFE9FFF4CFEAFF77
:102270004C0EE926030EEA22030EE926000EEA229E
:10228000EECFE6FFEFCFE6FFABEC32F0E552E552E2
:10229000E552E552600EE66E000EE66E4AEC27F05F
:1022A000E552E552900EE66E620EE66E77EC27F090
:1022B000E552E552600EE66E000EE66E010EDB5052
:1022C000060DF3CFE9FFF4CFEAFF4C0EE926030E2B
:1022D000EA22050EE926000EEA22EF50E66EE66AD3
:1022E000ABEC32F0E552E552E552E552600EE66E97
:1022F000000EE66E4AEC27F0E552E5520A0EF36E48
:102300000B0EF3CFDBFF0C0EDB6A0B0EDBCF10F0F6
:10231000DB060C0EDBCF11F001E2DB0610501110D2
:1023200006E0100EE66E8BEC34F0E552EED7010EAF
:10233000DB2AEFD6260EE66E650EE66E77EC27F00A
:10234000E552E55204EF16F0580E0E010F5D04E061
:102350000001F60501E0E3D014EC26F0E76E020E72
:10236000E7CFDBFF010EDB6A040EDB6A0001D85108
:10237000F36E010EDBCFF4FFF350F45C01E3B5D054
:10238000010EDB50030DF3CFE9FFF4CFEAFF000E9F
:10239000E926030EEA22EFCF10F0020EDB50105CAC
:1023A00001E0A0D05B0EE66E1EEC27F0E552010EB8
:1023B000DB50030DF3CFE9FFF4CFEAFF000EE9266F
:1023C000030EEA22EE52EE52EF50E66E1EEC27F0BC
:1023D000E552010EDB50030DF3CFE9FFF4CFEAFF26
:1023E000000EE926030EEA22EE52EF50E66E1EECD6
:1023F00027F0E552010EDB50060DF3CFE9FFF4CFD5
:10240000EAFF4C0EE926030EEA22EE52EE52EF509E
:10241000E66E1EEC27F0E552010EDB50060DF3CF01
:10242000E9FFF4CFEAFF4C0EE926030EEA22EE5252
:10243000EF50E66E1EEC27F0E552010EDB50060D64
:10244000F3CFE9FFF4CFEAFF4C0EE926030EEA22B0
:10245000EF50E66E1EEC27F0E552010EDB50060D44
:10246000F3CFE9FFF4CFEAFF4C0EE926030EEA2290
:10247000030EE926000EEA22EE52EF50E66E1EEC45
:1024800027F0E552010EDB50060DF3CFE9FFF4CF44
:10249000EAFF4C0EE926030EEA22030EE926000E9F
:1024A000EA22EF50E66E1EEC27F0E552010EDB50FB
:1024B000060DF3CFE9FFF4CFEAFF4C0EE926030E39
:1024C000EA22050EE926000EEA22EF50E66E1EEC27
:1024D00027F0E552010ED8C0DBFF010EF36E040EAB
:1024E000F3CFDBFF010EDB2A41D7040EDB5016E1F0
:1024F0005B0EE66E1EEC27F0E552010EDB6A080E5D
:10250000F36E010EDBCFF4FFF350F45C07E2E66AF2
:102510001EEC27F0E552010EDB2AF1D7EAD0410E7E
:102520000E010F5D01E0E5D07C0EE66E620EE66EF8
:1025300077EC27F0E552E5526A0EE66E620EE66E23
:1025400077EC27F0E552E5526BEC26F0E76E020ED1
:10255000E7CFDBFF010EDB6A040EDB6A0001D85116
:10256000F36E010EDBCFF4FFF350F45C01E37AD09D
:10257000010EDB50030DF3CFE9FFF4CFEAFF000EAD
:10258000E926030EEA22EFCF10F0020EDB50105CBA
:1025900066E1640EE66E620EE66E77EC27F0E552B9
:1025A000E552600EE66E000EE66E010EDB50030D86
:1025B000F3CFE9FFF4CFEAFF000EE926030EEA228B
:1025C000EE52EECFE6FFEFCFE6FFABEC32F0E55296
:1025D000E552E552E552600EE66E000EE66E4AECFC
:1025E00027F0E552E5525F0EE66E620EE66E77EC7E
:1025F00027F0E552E55225EC26F0070EF3CFDBFF7E
:10260000080EF4CFDBFFD950070FE96EDACFEAFFEF
:10261000EE50ED1014E0010EDB50030DF3CFE9FF97
:10262000F4CFEAFF000EE926030EEA22EE52070E6F
:10263000DBCFEEFF080EDBCFEDFF41EC2EF0590EA5
:10264000E66E620EE66E77EC27F0E552E552010E7B
:10265000D8C0DBFF010EF36E040EF3CFDBFF010EDB
:10266000DB2A7CD7040EDB5044E1490EE66E620E95
:10267000E66E77EC27F0E552E55225EC26F0070EE2
:10268000F3CFDBFF080EF4CFDBFFD950070FE96E65
:10269000DACFEAFFEE50ED1024E00001D82B010E56
:1026A000DB50030DF3CFE9FFF4CFEAFF000EE9267C
:1026B000030EEA22020EDBCFEFFF010EDB50030D0B
:1026C000F3CFE9FFF4CFEAFF000EE926030EEA227A
:1026D000EE52070EDBCFEEFF080EDBCFEDFF41EC35
:1026E0002EF0590EE66E620EE66E77EC27F0E5529C
:1026F000E5528AD2010EDB6A0001D851F36E010E59
:10270000DBCFF4FFF350F45C0FE2010EDB50060D5B
:10271000F3CFE9FFF4CFEAFF4C0EE926030EEA22DD
:10272000EF9E010EDB2AE8D76FD2580E0E010F5D27
:1027300004E00001F60501E09FD114EC26F0E76EFD
:10274000020EE7CFDBFF14EC26F0E76E010EE7CFB9
:10275000DBFF14EC26F0E76E0A0EE7CFDBFF14EC8C
:1027600026F0E76E090EE7CFDBFFD950090FE96EBF
:10277000DACFEAFFB00ED880EE54040EED540AE230
:10278000B00EF36E090EF3CFDBFF040EF36E0A0EEC
:10279000F3CFDBFF020EDB50000801E36DD1020E28
:1027A000DB50106E116AD890115004E6D20E105C06
:1027B000000E115801E360D1010EDB50000801E367
:1027C0005BD1200EF36E010EDBCFF4FFF350F45C0F
:1027D00001E352D1020EDB50EA6A000FE96E040EEB
:1027E000EA22010EDBCFEFFF010EDB50090801E00A
:1027F00043D10E01185107E10E01030E186FE66A6E
:102800000EEC2EF0E552040EDB6A0001D851F36E97
:10281000040EDBCFF4FFF350F45C01E380D0040E30
:10282000DB50030DF3CFE9FFF4CFEAFF000EE926FA
:10283000030EEA22EFCF10F0020EDB50105C6CE1C9
:10284000040EDB50030DF3CFE9FFF4CFEAFF000ED7
:10285000E926030EEA22EE52EECF10F0EFCF11F090
:10286000090EDB50101803E10A0EDB5011184AE084
:10287000040EDB50030DF3CFE9FFF4CFEAFF000EA7
:10288000E926030EEA22EE52090EDBCFEEFF0A0E16
:10289000DBCFEDFF030EE66E040EDB50030DF350AD
:1028A000200F010FE66EE66A040EDB50030DF3CF36
:1028B00010F0F4CF11F0000E1026030E112210C0FC
:1028C000E6FF11C0E6FFD5EC2DF0126E050EE15EBD
:1028D00012500A0EF36E0D0EF3CFDBFF0E0EDB6A05
:1028E0000D0EDBCF10F0DB060E0EDBCF11F001E298
:1028F000DB061050111006E0100EE66E8BEC34F083
:10290000E552EED76B0EE66E1EEC27F0E552FA0E9E
:10291000F36E040EF3CFDBFF040EDB2A76D7040E32
:10292000DB500001D85D01E0A7D00001D82B040ED8
:10293000DB50030DF3CFE9FFF4CFEAFF000EE926E9
:10294000030EEA22020EDBCFEFFF040EDB50030D75
:10295000F3CFE9FFF4CFEAFF000EE926030EEA22E7
:10296000EE52090EDBCFEEFF0A0EDBCFEDFFD8C033
:10297000E6FF200EE66EE66A94EC33F0E552E5528F
:10298000E55207EC00F0030EE66E040EDB50030D7B
:10299000F350200F010FE66EE66A040EDB50030DC4
:1029A000F3CF10F0F4CF11F0000E1026030E112219
:1029B00010C0E6FF11C0E6FFD5EC2DF0126E050E3B
:1029C000E15E1250040EDB50060DF3CFE9FFF4CFA9
:1029D000EAFF4C0EE926030EEA22800EEF6E040E8B
:1029E000DB50060DF3CFE9FFF4CFEAFF4C0EE926EA
:1029F000030EEA22EE52EE6AED6A040EDB50060D7B
:102A0000F3CFE9FFF4CFEAFF4C0EE926030EEA22EA
:102A1000030EE926000EEA22EE68ED68040EDB5094
:102A2000060DF3CFE9FFF4CFEAFF4C0EE926030EC3
:102A3000EA22050EE926000EEA22EF6A0A0EF36E7C
:102A40000F0EF3CFDBFF100EDB6A0F0EDBCF10F0A3
:102A5000DB06100EDBCF11F001E2DB061050111087
:102A600006E0100EE66E8BEC34F0E552EED76B0EFE
:102A7000E66E1EEC27F0E552C7D0010EDB6A190E98
:102A8000F36E010EDBCFF4FFF350F45C58E2010E5D
:102A9000DB50030DF3CFE9FFF4CFEAFF000EE92688
:102AA000030EEA22EF6A010EDB50030DF3CFE9FFBC
:102AB000F4CFEAFF000EE926030EEA22EE52EE6A98
:102AC000ED6A010EDB50060DF3CFE9FFF4CFEAFF0C
:102AD0004C0EE926030EEA22EF6A010EDB50060DCA
:102AE000F3CFE9FFF4CFEAFF4C0EE926030EEA220A
:102AF000EE52EE6AED6A010EDB50060DF3CFE9FFF0
:102B0000F4CFEAFF4C0EE926030EEA22030EE92673
:102B1000000EEA22EE68ED68010EDB50060DF3CFE1
:102B2000E9FFF4CFEAFF4C0EE926030EEA22050E78
:102B3000E926000EEA22EF6A010EDB2AA0D7000187
:102B4000D85102E041EC2EF00001D86B0E01185173
:102B500006E00E01186BE66A0EEC2EF0E5526B0EE5
:102B6000E66E1EEC27F0E5524FD0010EDB6A190E1F
:102B7000F36E010EDBCFF4FFF350F45C3EE2010E86
:102B8000DB50060DF3CFE9FFF4CFEAFF4C0EE92648
:102B9000030EEA22EF6A010EDB50060DF3CFE9FFC8
:102BA000F4CFEAFF4C0EE926030EEA22EE52EE6A5B
:102BB000ED6A010EDB50060DF3CFE9FFF4CFEAFF1B
:102BC0004C0EE926030EEA22030EE926000EEA2245
:102BD000EE68ED68010EDB50060DF3CFE9FFF4CF90
:102BE000EAFF4C0EE926030EEA22050EE926000E46
:102BF000EA22EF6A010EDB2ABAD706D0450EE66E4E
:102C00001EEC27F0E55200D00001F46B5EEF1AF0E5
:102C1000580E0E010F5D03E00001F60507E1DFCF5E
:102C20001FFE0001130EF46F5EEF1AF0300EDF5C32
:102C300008E3DF50390805E3300EDF5C0E012E6F2C
:102C400021D0410EDF5C09E3DF50460806E3410E68
:102C5000DF5C0A0F0E012E6F15D0610EDF5C09E3F9
:102C6000DF50660806E3610EDF5C0A0F0E012E6F6F
:102C700009D0450EE66E1EEC27F0E5520001F46B1C
:102C80005EEF1AF00E0130510CE00E012E510E01D4
:102C90002F272FCE1FFE0E01306B0001130EF46F95
:102CA00009D02ECE2FFE0E012F39F00B2F6F0E0103
:102CB000010E306F5EEF1AF0580E0E010F5D03E04B
:102CC0000001F6051EE1DFCFE6FF1FCEE6FF4CEC6C
:102CD00029F0E552E552000909E10001F85105E14A
:102CE0006B0EE66E1EEC27F0E55208D00001F8519D
:102CF00005E1450EE66E1EEC27F0E5520001F46B8F
:102D0000DDD3300EDF5C08E3DF50390805E3300E19
:102D1000DF5C0E012E6F20D0410EDF5C09E3DF5037
:102D2000460806E3410EDF5C0A0F0E012E6F14D039
:102D3000610EDF5C09E3DF50660806E3610EDF5CCD
:102D40000A0F0E012E6F08D0450EE66E1EEC27F01E
:102D5000E5520001F46BB2D30E01305124E00E01B4
:102D60002E510E012F272FCEE6FF1FCEE6FF4CEC93
:102D700029F0E552E552000909E10001F85105E1A9
:102D80006B0EE66E1EEC27F0E55208D00001F851FC
:102D900005E1450EE66E1EEC27F0E5520E01306BA4
:102DA0000001F46B09D02ECE2FFE0E012F39F00B4F
:102DB0002F6F0E01010E306F81D3580E0E010F5D83
:102DC00003E00001F60539E10E010851082BEA6A1B
:102DD0001E0FE96E0E0EEA22DFCFEFFFDF500E016D
:102DE000331B0E0107510E01085D26E30E0116A3E9
:102DF00014D00E010851082BEA6A1E0FE96E0E0E60
:102E0000EA2233CEEFFF0E010851082BEA6A1E0FAB
:102E1000E96E0E0EEA22A30EEF6E08CEE6FF17EC67
:102E20002BF0E5520001F85105E16B0EE66E1EEC49
:102E300027F0E5520001F46B41D3300EDF5C08E36C
:102E4000DF50390805E3300EDF5C0E012E6F4FD0E6
:102E5000410EDF5C09E3DF50460806E3410EDF5C0C
:102E60000A0F0E012E6F43D0610EDF5C09E3DF50C5
:102E7000660806E3610EDF5C0A0F0E012E6F37D085
:102E80004B0EDF5C2CE10E010851082BEA6A1E0F85
:102E9000E96E0E0EEA2234CEEFFF0E010851082B28
:102EA000EA6A1E0FE96E0E0EEA22A30EEF6E0E0105
:102EB00007510E01085D0FE308CEE6FF17EC2BF07B
:102EC000E5520001F85105E16B0EE66E1EEC27F0AD
:102ED000E5520001F46B0E01306BF0D208D0450EC4
:102EE000E66E1EEC27F0E5520001F46BE7D20E010E
:102EF000305148E00E012E510E012F270E010851CE
:102F0000082BEA6A1E0FE96E0E0EEA222FCEEFFFA3
:102F10000E012F510E01331B0E010851000804E26F
:102F20000E012F510E01341B0E0107510E01085DD9
:102F300026E30E0116A314D00E010851082BEA6AED
:102F40001E0FE96E0E0EEA2233CEEFFF0E0108517E
:102F5000082BEA6A1E0FE96E0E0EEA22A30EEF6E30
:102F600008CEE6FF17EC2BF0E5520001F85105E121
:102F70006B0EE66E1EEC27F0E5520001F46B0E01BD
:102F8000306B09D02ECE2FFE0E012F39F00B2F6F94
:102F90000E01010E306F92D2580E0E010F5D03E04C
:102FA0000001F60508E1DFCF31FE00010F0EF46FDE
:102FB0000E01306B83D2300EDF5C08E3DF5039083E
:102FC00005E3300EDF5C0E01316F20D0410EDF5C77
:102FD00009E3DF50460806E3410EDF5C0A0F0E01ED
:102FE000316F14D0610EDF5C09E3DF50660806E341
:102FF000610EDF5C0A0F0E01316F08D0450EE66EE0
:103000001EEC27F0E5520001F46B58D200010F0EC0
:10301000F46F0E01306B52D2580E0E010F5D03E0BB
:103020000001F60503E1DFCF32FE3FD0300EDF5C5A
:1030300008E3DF50390805E3300EDF5C0E012E6F28
:1030400020D0410EDF5C09E3DF50460806E3410E65
:10305000DF5C0A0F0E012E6F14D0610EDF5C09E3F6
:10306000DF50660806E3610EDF5C0A0F0E012E6F6B
:1030700008D0450EE66E1EEC27F0E5520001F46B19
:103080001DD20E01305107E00E012E510E012F27E7
:103090002FCE32FE0AD02ECE2FFE0E012F39F00B8E
:1030A0002F6F0E01010E306F09D20E01A80E1E6F98
:1030B00032CE1FFE0E01206B0E01120E216F31CE9B
:1030C00022FE0E011F510E0120190E0121190E01C1
:1030D00022190E01236F0E01A30E246F070EE66E58
:1030E00017EC2BF0E5520001F85105E16B0EE66E8E
:1030F0001EEC27F0E5520001F46B0E01306BDED1BF
:10310000580E0E010F5D03E00001F60503E1DFCF6D
:10311000D2F43FD0300EDF5C08E3DF50390805E31E
:10312000300EDF5C0E012E6F20D0410EDF5C09E314
:10313000DF50460806E3410EDF5C0A0F0E012E6FDA
:1031400014D0610EDF5C09E3DF50660806E3610E10
:10315000DF5C0A0F0E012E6F08D0450EE66E1EECE6
:1031600027F0E5520001F46BA9D10E01305107E0C0
:103170000E012E510E012F272FCED2F40AD02ECEC3
:103180002FFE0E012F39F00B2F6F0E01010E306F45
:1031900095D1FF0E0401D25D63E10401D26B0401FD
:1031A000D251106E116AD890115004E6D20E105C04
:1031B000000E11580AE20401D251D22BEA6A000F24
:1031C000E96E040EEA22EF68EAD7010EDB6A00011D
:1031D000D851F36E010EDBCFF4FFF350F45C3DE207
:1031E000010EDB50030DF3CFE9FFF4CFEAFF000E31
:1031F000E926030EEA22EF5000082CE2010EDB5014
:10320000030DF3CFE9FFF4CFEAFF000EE926030E2A
:10321000EA22EF50106E116AD890115004E6D20ED7
:10322000105C000E115816E2010EDB50030DF3CFB7
:10323000E9FFF4CFEAFF000EE926030EEA22EFCF02
:10324000D2F40401D251EA6A000FE96E040EEA22B8
:10325000090EEF6E010EDB2ABAD70401D26B19D02A
:103260000401D251EA6A000FE96E040EEA22EF501F
:10327000FF080FE10401D251106E116AD89011506D
:1032800004E6D20E105C000E115803E20401D22BAA
:10329000E7D70001F6052DE1F30EE66E1EEC27F0F0
:1032A000E552440EE66E1EEC27F0E552D2C4E6FF6E
:1032B0001EEC27F0E5520401D251106E116AD8902D
:1032C000115004E6D20E105C000E11580DE20401FC
:1032D000D251EA6A000FE96E040EEA22EF50E66E60
:1032E0001EEC27F0E55204D0E6681EEC27F0E5520C
:1032F00056D0580E0E010F5D03E00001F60528E1DF
:10330000440EE66E1EEC27F0E552D2C4E6FF1EEC3A
:1033100027F0E5520401D251106E116AD890115075
:1033200004E6D20E105C000E11580DE20401D251D9
:10333000EA6A000FE96E040EEA22EF50E66E1EEC18
:1033400027F0E55204D0E6681EEC27F0E55227D0BE
:10335000440EE66E1EEC27F0E552D2C4E6FF30ECD8
:1033600027F0E5520401D251106E116AD890115025
:1033700004E6D20E105C000E11580DE20401D25189
:10338000EA6A000FE96E040EEA22EF50E66E30ECB6
:1033900027F0E55204D0E66830EC27F0E552000152
:1033A000F46B0E01306B8AD0580E0E010F5D03E0F6
:1033B0000001F60503E1DFCF32FE3FD0300EDF5CC7
:1033C00008E3DF50390805E3300EDF5C0E012E6F95
:1033D00020D0410EDF5C09E3DF50460806E3410ED2
:1033E000DF5C0A0F0E012E6F14D0610EDF5C09E363
:1033F000DF50660806E3610EDF5C0A0F0E012E6FD8
:1034000008D0450EE66E1EEC27F0E5520001F46B85
:1034100055D00E01305107E00E012E510E012F271D
:103420002FCE32FE0AD02ECE2FFE0E012F39F00BFA
:103430002F6F0E01010E306F41D00E01A80E1E6FCE
:1034400032CE1FFE0E01206B0E01150E216F0E01F4
:10345000226B0E011F510E0120190E0121190E01C0
:1034600022190E01236F0E01A30E246F070EE66EC4
:1034700017EC2BF0E5520001F85105E16B0EE66EFA
:103480001EEC27F0E5520001F46B0E01306B16D0F4
:10349000DF50720A01E006D0EBC0E6FF1EEC27F019
:1034A000E55209D0ED0EE66E640EE66E77EC27F07D
:1034B000E552E55200D00001F46B00D0110EE15C42
:1034C00002E2E16AE552E16EE552E7CFD9FF120070
:1034D000D9CFE6FFE1CFD9FF050EE1260001F35178
:1034E00005E0050EEC5D02E0050EEC6F9EA08DD3AD
:1034F0000E01012B01511F0801E2016B9E9000019A
:10350000EC510DE00E010051002B106E0001EC514A
:10351000D880105404E20E01006B8A8A01D08A9A86
:103520000E01032B030E185D01E0D5D003511508E1
:1035300001E3D1D0020E0001F55D01E0CCD00E0117
:10354000036B040EDB6A0001D851F36E040EDBCF6F
:10355000F4FFF350F45C19E2D951060DF3CFE9FF03
:10356000F4CFEAFF4C0EE926030EEA22EF50800B5F
:1035700004E1040ED8C0DBFF07D0D92BD851D95DA8
:1035800001E3D96B040EDB2ADED7D951060DF3CF48
:10359000E9FFF4CFEAFF4C0EE926030EEA22EF50D2
:1035A000800B01E093D0D951060DF3CFE9FFF4CFA2
:1035B000EAFF4C0EE926030EEA22EE52EECF10F09F
:1035C000EFCF11F0000E10C0DFFF010E11C0DBFFC6
:1035D000020EDB6A030EDB6AD9CFE9FFDACFEAFF1E
:1035E000640E096E0A6A0B6A0C6AEECF04F0EECF25
:1035F00005F0EECF06F0EFCF07F0D0EC33F003C0CC
:10360000EDFF02C0EDFF01C0EDFF00C0EFFF0001C4
:10361000D951030DF3CFE9FFF4CFEAFF000EE926FD
:10362000030EEA22EE52EECF10F0EFCF11F0126A45
:10363000136AD9CFE9FFDACFEAFF10C009F011C051
:103640000AF012C00BF013C00CF0EECF04F0EECF76
:1036500005F0EECF06F0EFCF07F036EC34F007C000
:10366000EDFF06C0EDFF05C0EDFF04C0EFFF000158
:10367000F60520E1F30EE66E1EEC27F0E552750E1E
:10368000E66E1EEC27F0E5520001D951030DF3CF91
:10369000E9FFF4CFEAFF000EE926030EEA22EF501D
:1036A000E66E1EEC27F0E552000EDFCFE6FF1EECC3
:1036B00027F0E5520001D951060DF3CFE9FFF4CF11
:1036C000EAFF4C0EE926030EEA22EF8ED92BD851E1
:1036D000D95D01E3D96B0E01022B185101E195D29E
:1036E0000251020801E391D2026B03014B6B00010E
:1036F000D85103014B5D01E388D24B51060DF3CF46
:10370000E9FFF4CFEAFF4C0EE926030EEA22EF5060
:103710000F0B090801E0BAD04B51060DF3CFE9FFBA
:10372000F4CFEAFF4C0EE926030EEA22EE52000E19
:10373000D880EE54000EED541AE24B51060DF3CF33
:10374000E9FFF4CFEAFF4C0EE926030EEA22EE521F
:10375000EE06000EEF5A4B51060DF3CFE9FFF4CF02
:10376000EAFF4C0EE926030EEA22EF9E0FD04B51E2
:10377000060DF3CFE9FFF4CFEAFF4C0EE926030E66
:10378000EA22050EE926000EEA22EF2A4B51060D29
:10379000F3CFE9FFF4CFEAFF4C0EE926030EEA224D
:1037A000030EE926000EEA22FF0EEE1802E1FF0EDC
:1037B000ED186BE04B51060DF3CFE9FFF4CFEAFFB4
:1037C0004C0EE926030EEA22EE52EECF10F0EFCFB8
:1037D00011F04B51060DF3CFE9FFF4CFEAFF4C0E89
:1037E000E926030EEA22030EE926000EEA22EECFB6
:1037F00012F0EFCF13F01050125C1150135845E344
:103800000E011851020813E20A0EE66E03014B5135
:10381000030DF3CFE9FFF4CFEAFF000EE926030E14
:10382000EA22EF50E66EF8EC2AF0E552E552030189
:103830004B51060DF3CFE9FFF4CFEAFF4C0EE9261A
:10384000030EEA22030EE926000EEA22EE68ED6876
:103850004B51060DF3CFE9FFF4CFEAFF4C0EE926FA
:10386000030EEA22F00EEF140009EF6E4B51060D25
:10387000F3CFE9FFF4CFEAFF4C0EE926030EEA226C
:10388000050EE926000EEA22EF6A0FD14B51060D14
:10389000F3CFE9FFF4CFEAFF4C0EE926030EEA224C
:1038A000EF500F0B080801E0D3D04B51060DF3CFBA
:1038B000E9FFF4CFEAFF4C0EE926030EEA22EE52AE
:1038C000EECF10F0EFCF11F04B51030DF3CFE9FF26
:1038D000F4CFEAFF000EE926030EEA22EECF12F043
:1038E000EECF13F0EFCF14F000011350105C145022
:1038F000115803E30E0118051BE103014B51060D9E
:10390000F3CFE9FFF4CFEAFF4C0EE926030EEA22DB
:10391000EE52EE2A000EEF224B51060DF3CFE9FFD7
:10392000F4CFEAFF4C0EE926030EEA22EF9E10D0F8
:1039300003014B51060DF3CFE9FFF4CFEAFF4C0E24
:10394000E926030EEA22050EE926000EEA22EF2AF6
:103950004B51060DF3CFE9FFF4CFEAFF4C0EE926F9
:10396000030EEA22030EE926000EEA22FF0EEE18ED
:1039700002E1FF0EED186BE04B51060DF3CFE9FFAE
:10398000F4CFEAFF4C0EE926030EEA22EE52EECF08
:1039900010F0EFCF11F04B51060DF3CFE9FFF4CF4C
:1039A000EAFF4C0EE926030EEA22030EE926000E7A
:1039B000EA22EECF12F0EFCF13F01250105C13504A
:1039C000115845E30E011851020813E20A0EE66E83
:1039D00003014B51030DF3CFE9FFF4CFEAFF000ED3
:1039E000E926030EEA22EF50E66EF8EC2AF0E552E3
:1039F000E55203014B51060DF3CFE9FFF4CFEAFF87
:103A00004C0EE926030EEA22030EE926000EEA22F6
:103A1000EE68ED684B51060DF3CFE9FFF4CFEAFFF6
:103A20004C0EE926030EEA22F00EEF140009EF6EA9
:103A30004B51060DF3CFE9FFF4CFEAFF4C0EE92618
:103A4000030EEA22050EE926000EEA22EF6A2DD0C7
:103A50004B51060DF3CFE9FFF4CFEAFF4C0EE926F8
:103A6000030EEA22050EE926000EEA22EF6A4B5108
:103A7000060DF3CFE9FFF4CFEAFF4C0EE926030E63
:103A8000EA22030EE926000EEA22EE68ED684B51A9
:103A9000060DF3CFE9FFF4CFEAFF4C0EE926030E43
:103AA000EA22F00EEF140009EF6E0E01180559E13D
:103AB00003014B51060DF3CFE9FFF4CFEAFF4C0EA3
:103AC000E926030EEA22050EE926000EEA22EF504F
:103AD000106E116A113404E21050FA08000E1154ED
:103AE0003FE24B51060DF3CFE9FFF4CFEAFF4C0E56
:103AF000E926030EEA22050EE926000EEA22EF6A05
:103B00004B51060DF3CFE9FFF4CFEAFF4C0EE92647
:103B1000030EEA22030EE926000EEA22EE68ED68A3
:103B20004B51060DF3CFE9FFF4CFEAFF4C0EE92627
:103B3000030EEA22F00EEF140009EF6E0A0EE66E95
:103B40004B51030DF3CFE9FFF4CFEAFF000EE92656
:103B5000030EEA22EF50E66EF8EC2AF0E552E55249
:103B600051D003014B51060DF3CFE9FFF4CFEAFF2B
:103B70004C0EE926030EEA22050EE926000EEA2283
:103B8000EF5032083FE24B51060DF3CFE9FFF4CF7F
:103B9000EAFF4C0EE926030EEA22050EE926000E86
:103BA000EA22EF6A4B51060DF3CFE9FFF4CFEAFFAB
:103BB0004C0EE926030EEA22030EE926000EEA2245
:103BC000EE68ED684B51060DF3CFE9FFF4CFEAFF45
:103BD0004C0EE926030EEA22F00EEF140009EF6EF8
:103BE0000A0EE66E4B51030DF3CFE9FFF4CFEAFF67
:103BF000000EE926030EEA22EF50E66EF8EC2AF0FA
:103C0000E552E55203014B2B72D5050EE15C02E251
:103C1000E16AE552E16EE552E7CFD9FF1200D9CF54
:103C2000E6FFE1CFD9FF050EE126040EDB6AB4C53D
:103C3000E9FFEA6AE9BEEA68040ED890E936EA3696
:103C4000E806FBE1000EE926050EEA22010EEFCFA1
:103C5000DBFFF36E030EF3CFDBFF010EDB0419E194
:103C6000B4C5E9FFEA6AE9BEEA68040ED890E9360D
:103C7000EA36E806FBE1000EE926050EEA22010E0F
:103C8000E926000EEA22EF50FF0803E1030EDB6A8B
:103C900066D0010EDB5002082FE1B4C5E9FFEA6AE5
:103CA000E9BEEA68040ED890E936EA36E806FBE198
:103CB000000EE926050EEA22010EE926000EEA2290
:103CC000EF50FF0819E1B4C5E9FFEA6AE9BEEA6806
:103CD000040ED890E936EA36E806FBE1000EE92644
:103CE000050EEA22020EE926000EEA22EF50FF0836
:103CF00003E1030EDB6A33D0010EDB5006082FE22E
:103D0000020EDF6E010EDB50DF5C20E2B4C510F066
:103D1000116A10BE1168040ED89010361136E806EC
:103D2000FBE1000E1026050E1122DF500F011024BA
:103D3000E96E000E1120EA6E040EDBCFE7FFEF50B4
:103D4000E71A040EE7CFDBFFDF2ADCD7040EDB50D7
:103D500006E00001F12B000EF223030EDB6A030ED6
:103D6000DB5001E18ED00E0110A51BD0010EDB50FF
:103D7000020817E2B4C5E9FFEA6AE9BEEA68040E80
:103D8000D890E936EA36E806FBE1000EE926050E92
:103D9000EA22030EE926000EEA22EF5002E0030EAB
:103DA000DB6A0E0110A31BD0010EDB0418E1B4C5C1
:103DB000E9FFEA6AE9BEEA68040ED890E936EA3615
:103DC000E806FBE1000EE926050EEA22010EE926CF
:103DD000000EEA22EF50A50802E1030EDB6A010E95
:103DE0000E0110154EE035510501B45D4AE0FF0E9D
:103DF0000E01355D46E0010EDF6E020EDB6ADBCFA1
:103E000010F0010EDB50D880105437E3B4C511F028
:103E1000126A11BE1268040ED89011361236E806E6
:103E2000FBE1000E1126050E1222020EDB500F01DF
:103E30001124E96E000E1220EA6EEFCF10F035CE9D
:103E400013F0146A13BE1468040ED8901336143697
:103E5000E806FBE1000E1326050E1422020EDB50CD
:103E60000F011324E96E000E1420EA6EEF50105C6F
:103E700001E0DF6A020EDB2AC2D7DF5002E0030E48
:103E8000DB6A030EDB50106E050EE15C03E200D02E
:103E9000E16AE552E16E1050E552E7CFD9FF12001A
:103EA000D9CFE6FFE1CFD9FF03014B6BFE0EDB500C
:103EB0000A0A67E0030A34E0010A01E097D0000132
:103EC000D85103014B5D2BE24B51060DF3CFE9FFB7
:103ED000F4CFEAFF4C0EE926030EEA22EF500F0B57
:103EE00000091BE14B51060DF3CFE9FFF4CFEAFFC8
:103EF0004C0EE926030EEA22080EEF6E4B51060D1A
:103F0000F3CFE9FFF4CFEAFF4C0EE926030EEA22D5
:103F1000050EE926000EEA22EF6A4B2BD0D766D0B9
:103F20000001D85103014B5D2BE24B51060DF3CF3D
:103F3000E9FFF4CFEAFF4C0EE926030EEA22EF5028
:103F40000F0B00091BE14B51060DF3CFE9FFF4CF36
:103F5000EAFF4C0EE926030EEA22090EEF6E4B51E2
:103F6000060DF3CFE9FFF4CFEAFF4C0EE926030E6E
:103F7000EA22050EE926000EEA22EF6A4B2BD0D783
:103F800035D00001D85103014B5D2FE24B51060D96
:103F9000F3CFE9FFF4CFEAFF4C0EE926030EEA2245
:103FA000F00EEF140009EF6E4B51060DF3CFE9FF51
:103FB000F4CFEAFF4C0EE926030EEA22050EE926AD
:103FC000000EEA22EF6A4B51060DF3CFE9FFF4CF62
:103FD000EAFF4C0EE926030EEA22030EE926000E44
:103FE000EA22EE68ED684B2BCCD700D0E552E7CF44
:103FF000D9FF1200D9CFE6FFE1CFD9FF040EE126A9
:10400000030EDB6A0501B3510501B45D02E102EF65
:1040100026F005DE000902E10DEF24F0B4C535FEFF
:104020000E0136510501B45D01E174D3B4C536FE0D
:10403000B4C5E9FFEA6AE9BEEA68040ED890E93639
:10404000EA36E806FBE1000EE926050EEA22EF500B
:10405000070801E05FD3B4C5E9FFEA6AE9BEEA6890
:10406000040ED890E936EA36E806FBE1000EE926B0
:10407000050EEA22010EE926000EEA22EF50A808FA
:1040800001E048D3B4C5E9FFEA6AE9BEEA68040E74
:10409000D890E936EA36E806FBE1000EE926050E7F
:1040A000EA22070EE926000EEA22EF50A30801E0FB
:1040B00031D3040E0001F55D01E12CD3050EF55D51
:1040C00001E128D3B4C5E9FFEA6AE9BEEA68040E53
:1040D000D890E936EA36E806FBE1000EE926050E3F
:1040E000EA22040EE926000EEA22EF50430A01E11B
:1040F000B8D2070A01E1B5D20D0A01E1B2D2070A2E
:1041000001E1AFD27E0A01E171D2220A01E002D3BD
:10411000B4C5E9FFEA6AE9BEEA68040ED890E93658
:10412000EA36E806FBE1000EE926050EEA22020E59
:10413000E926000EEA22EFCF10F0B00E105C16E276
:10414000B4C5E9FFEA6AE9BEEA68040ED890E93628
:10415000EA36E806FBE1000EE926050EEA22020E29
:10416000E926000EEA22EFCFD2F461D0B4C5E9FF10
:10417000EA6AE9BEEA68040ED890E936EA36E8064B
:10418000FBE1000EE926050EEA22030EE926000EE9
:10419000EA22EFCFD2F4B4C5E9FFEA6AE9BEEA68E1
:1041A000040ED890E936EA36E806FBE1000EE9266F
:1041B000050EEA22020EE926000EEA22EF50B308AD
:1041C00003E10401D26B33D0B4C5E9FFEA6AE9BE6A
:1041D000EA68040ED890E936EA36E806FBE1000EFC
:1041E000E926050EEA22020EE926000EEA22EF5029
:1041F000B1081DE10401B10ED26F0E01185117E094
:10420000B4C5E9FFEA6AE9BEEA68040ED890E93667
:10421000EA36E806FBE1000EE926050EEA22050E65
:10422000E926000EEA22EF50E66E3ADEE55204017E
:10423000D251000801E3D9D1D251106E116AD89041
:10424000115004E6D20E105C000E115801E3CDD1DE
:10425000B4C5E9FFEA6AE9BEEA68040ED890E93617
:10426000EA36E806FBE1000EE926050EEA22050E15
:10427000E926000EEA22EF500A0A01E13AD1030AC8
:1042800001E188D0010A2BE00B0A1FE0070A1DE0BC
:10429000040A08E0010A06E0B4C5E9FFEA6AE9AEEB
:1042A00088D186D10401D251EA6A000FE96E040E6A
:1042B000EA22EF50FF0808E1D251EA6A000FE96EE6
:1042C000040EEA22010EEF6E90D10401D251EA6A87
:1042D000000FE96E040EEA22030EEF6E86D1040190
:1042E000D251EA6A000FE96E040EEA22EF50090883
:1042F00008E0D251EA6A000FE96E040EEA22080EC5
:10430000EF6E0E01185145E003014B6B0001D851CF
:1043100003014B5D3EE24B51030DF3CFE9FFF4CFB8
:10432000EAFF000EE926030EEA22EF500401D25DF7
:104330002DE103014B51060DF3CFE9FFF4CFEAFF66
:104340004C0EE926030EEA22EF500F0B00091BE189
:104350004B51060DF3CFE9FFF4CFEAFF4C0EE926EF
:10436000030EEA22080EEF6E4B51060DF3CFE9FF64
:10437000F4CFEAFF4C0EE926030EEA22050EE926E9
:10438000000EEA22EF6AD8C04BF302D003014B2B98
:10439000BDD72BD10401D251EA6A000FE96E040E99
:1043A000EA22EF50090808E0D251EA6A000FE96EEC
:1043B000040EEA22080EEF6EDF6A0E01185101E1C9
:1043C00097D003014B6B0001D85103014B5D40E2D4
:1043D0004B51030DF3CFE9FFF4CFEAFF000EE926BE
:1043E000030EEA22EF500401D25D2FE103014B518D
:1043F000060DF3CFE9FFF4CFEAFF4C0EE926030EDA
:10440000EA22EF500F0B00091BE14B51060DF3CFD1
:10441000E9FFF4CFEAFF4C0EE926030EEA22090E6B
:10442000EF6E4B51060DF3CFE9FFF4CFEAFF4C0ED0
:10443000E926030EEA22050EE926000EEA22EF6ABB
:10444000010EDF6ED8C04BF302D003014B2BBBD75C
:10445000DF504EE10E0118054BE1190E0001D85D49
:1044600047E2D851030DF3CFE9FFF4CFEAFF000E86
:10447000E926030EEA22D2C4EFFFD851060DF3CF8E
:10448000E9FFF4CFEAFF4C0EE926030EEA22F00E14
:10449000EF140909EF6ED851060DF3CFE9FFF4CF01
:1044A000EAFF4C0EE926030EEA22050EE926000E6D
:1044B000EA22EF6AD851060DF3CFE9FFF4CFEAFF05
:1044C0004C0EE926030EEA22EE52EE6AED6AD8514E
:1044D000060DF3CFE9FFF4CFEAFF4C0EE926030EF9
:1044E000EA22030EE926000EEA22EE68ED68D82BD8
:1044F0007CD00401D251EA6A000FE96E040EEA2270
:10450000EF50090808E0D251EA6A000FE96E040E84
:10451000EA22080EEF6E0E01185149E003014B6BC1
:104520000001D85103014B5D42E24B51030DF3CF23
:10453000E9FFF4CFEAFF000EE926030EEA22EF506E
:104540000401D25D31E103014B51060DF3CFE9FFC8
:10455000F4CFEAFF4C0EE926030EEA22F00EEF1428
:104560000009EF6E4B51060DF3CFE9FFF4CFEAFFE0
:104570004C0EE926030EEA22050EE926000EEA2279
:10458000EF6A4B51060DF3CFE9FFF4CFEAFF4C0E73
:10459000E926030EEA22030EE926000EEA22EE685F
:1045A000ED68D8C04BF302D003014B2BB9D71DD017
:1045B000EA68040ED890E936EA36E806FBE1000E18
:1045C000E926050EEA22050EE926000EEA22EF5042
:1045D0000F0B0D0809E10401D251EA6A000FE96EE0
:1045E000040EEA22030EEF6E00D094D0B4C5E9FFAA
:1045F000EA6AE9BEEA68040ED890E936EA36E806C7
:10460000FBE1000EE926050EEA22020EE926000E65
:10461000EA22EF50B40824E1B4C5E9FFEA6AE9BE32
:10462000EA68040ED890E936EA36E806FBE1000EA7
:10463000E926050EEA22030EE926000EEA22EFCF54
:10464000D2F40401D25100080BE20F0ED25D08E251
:10465000D251EA6A000FE96E040EEA220F0EEF6EE5
:1046600059D0B4C5E9FFEA6AE9BEEA68040ED890F9
:10467000E936EA36E806FBE1000EE926050EEA22F5
:10468000020EE926000EEA22EF50B40816E1B4C586
:10469000E9FFEA6AE9BEEA68040ED890E936EA362C
:1046A000E806FBE1000EE926050EEA22030EE926E4
:1046B000000EEA22EFCFD2F415D0B4C5E9FFEA6AC2
:1046C000E9BEEA68040ED890E936EA36E806FBE16E
:1046D000000EE926050EEA22020EE926000EEA2265
:1046E000EFCFD2F40401D251000813E2D251106E80
:1046F000116AD890115004E6D20E105C000E1158C9
:1047000008E2D251EA6A000FE96E040EEA220E0EA8
:10471000EF6E00D0160E0001F45D09E1E6EC02F048
:10472000010EF36E030EF3CFDBFF0001F46BF50512
:1047300009E1E6EC02F0010EF36E030EF3CFDBFFAE
:104740000001F56B020EF55D13E1F60503E1F3ECF4
:1047500003F009D0410E0E010F5D03E1FCEC01F006
:1047600002D0E6EC02F0010EF36E030EF3CFDBFF96
:10477000030E0001F55D50E1B4C5E9FFEA6AE9BE48
:10478000EA68040ED890E936EA36E806FBE1000E46
:10479000E926050EEA22010EEFCFDBFFDF6E020EE7
:1047A000DB6A010EDB50F36E020EDBCFF4FFF35039
:1047B000F45C27E2B4C510F0116A10BE1168040E53
:1047C000D89010361136E806FBE1000E1026050ED3
:1047D0001122DF50DF2A0F011024E96E000E112094
:1047E000EA6EEF50E66E020EDBCFF3FFDB2AF350EA
:1047F000EA6A1E0FE96E0E0EEA22E552E750EF6EEE
:10480000D0D7010EDBCFE6FF17EC2BF0E552010EFF
:10481000F36E030EF3CFDBFF05D0010EF36E030E34
:10482000F3CFDBFF050E0001F55D01E01AD1010EAB
:10483000F36E030EF3CFDBFF0E010A5141E1B4C565
:10484000E9FFEA6AE9BEEA68040ED890E936EA367A
:10485000E806FBE1000EE926050EEA22EF0416E168
:10486000B4C5E9FFEA6AE9BEEA68040ED890E93601
:10487000EA36E806FBE1000EE926050EEA22010E03
:10488000E926000EEA22EF50A50817E04E0EE66E6C
:10489000D5DAE552410E0E010F5D02E1FCEC01F0AC
:1048A0000E01096B0A6B380EE66E620EE66E1FDBB8
:1048B000E552E5520001F56B02D00E010A2BD0D073
:1048C000B4C5E9FFEA6AE9BEEA68040ED890E936A1
:1048D000EA36E806FBE1000EE926050EEA22EF5073
:1048E000070870E1B4C5E9FFEA6AE9BEEA68040EA8
:1048F000D890E936EA36E806FBE1000EE926050E17
:10490000EA22010EE926000EEA22EF50A8085AE139
:10491000B4C5E9FFEA6AE9BEEA68040ED890E93650
:10492000EA36E806FBE1000EE926050EEA22030E50
:10493000E926000EEA22EF500E010B5D43E1B4C5FB
:10494000E9FFEA6AE9BEEA68040ED890E936EA3679
:10495000E806FBE1000EE926050EEA22040EE92630
:10496000000EEA22EF5012082DE1B4C5E9FFEA6A11
:10497000E9BEEA68040ED890E936EA36E806FBE1BB
:10498000000EE926050EEA22050EE926000EEA22AF
:10499000EF500E010D5D16E1B4C5E9FFEA6AE9BE0C
:1049A000EA68040ED890E936EA36E806FBE1000E24
:1049B000E926050EEA22070EE926000EEA22EF504C
:1049C000A30817E04E0EE66E39DAE552410E0E01ED
:1049D0000F5D02E1FCEC01F00E01096B0A6B380E71
:1049E000E66E620EE66E83DAE552E5520001F56B83
:1049F00002D00E010A2B0E010A51030831E2090709
:104A00000A6B09510AE10001F56B2B0EE66E620E8E
:104A1000E66E6DDAE552E55223D06B0EE66E0EDAE5
:104A2000E5520E010B2B0C070D2B0D2BA80E1E6F44
:104A30000BCE1FFE0CCE20FE120E216F0DCE22FEDD
:104A40001F51201921192219236FA30E246F070E5D
:104A5000E66E17EC2BF0E5522E0EE66EEFD9E5521E
:104A6000CBD0040EF55D01E0C7D0DF6ADE52010E47
:104A7000DD6EB4C5E9FFEA6AE9BEEA68040ED890C3
:104A8000E936EA36E806FBE1000EE926050EEA22E1
:104A9000EF50F36E010EDBCFF4FFF350F45C28E22D
:104AA000B4C511F0126A11BE1268040ED890113606
:104AB0001236E806FBE1000E1126050E1222010E49
:104AC000DB500F011124E96E000E1220EA6EEFCFC9
:104AD00010F0010EDB04EA6A1E0FE96E0E0EEA22E8
:104AE000EF50105C02E0010EDF6E010EDB2AC1D731
:104AF000DF5005E16B0EE66EA1D9E55215D04E0EE2
:104B0000E66E9CD9E552410E0E010F5D02E1FCEC10
:104B100001F00E01096B380EE66E620EE66EE7D903
:104B2000E552E5520001F56B0F0E0E011E15E76E02
:104B3000010EE7CFDBFF040EF36E010EDBCFF4FFB7
:104B4000F350F45C03E2DE52040EDD6EDF6A010E08
:104B5000DB50DF5C11E2DF50EA6A1E0FE96E0E0ED9
:104B6000EA22EF2ADF2ADF50EA6A1E0FE96E0E0EF4
:104B7000EA22EF06DF2AEBD7010EDF6E020EDB6AB8
:104B8000010EDB50FE0FDF5C10E2DF50EA6A1E0F01
:104B9000E96E0E0EEA22020EDBCFE7FFEF50E71AB6
:104BA000020EE7CFDBFFDF2AEBD7010EDB50FE0F53
:104BB000EA6A1E0FE96E0E0EEA22020EDBCFEFFF4D
:104BC000010EDBCFE6FF17EC2BF0E5522E0EE66E62
:104BD00035D9E5520E010907095109E10001F56BCC
:104BE0002B0EE66E620EE66E82D9E552E552010E9C
:104BF000F36E030EF3CFDBFF030EDB5002E0EEECAF
:104C000001F008D0160E0001F45D04E1E6EC02F0BC
:104C10000001F46B040EE15C02E2E16AE552E16E30
:104C2000E552E7CFD9FF1200D9CFE6FFE1CFD9FF98
:104C3000E652B6D8DF6E0E010551FBE0DF5000D022
:104C4000E552E552E7CFD9FF1200D9CFE6FFE1CF19
:104C5000D9FF030EE126010EDB6A020EDB6AE4DFF8
:104C6000DF6E300EDF5C22E3DF5039081FE3300EC9
:104C7000DF5ED950010FE96EDACFEAFF0A0EEC02CF
:104C8000F3CFEDFFEF02F3CFEEFFF450ED26DF5050
:104C9000106E116AD950010FE96EDACFEAFF105099
:104CA000EE261150ED22C0DFDF6EDBD7010EDBCF29
:104CB00010F0020EDBCF11F010C0F3FF11C0F4FFB3
:104CC000030EE15C03E200D0E16AE552E16EE552D9
:104CD000E7CFD9FF1200D9CFE6FFE1CFD9FF020E0F
:104CE000E126010EDB6AA0DFDF6E300EDF5C06E33B
:104CF000DF50390803E3300EDF5E13D0410EDF5C76
:104D000006E3DF50460803E3370EDF5E0AD0610E8C
:104D1000DF5C06E3DF50660803E3570EDF5E01D079
:104D2000DF6A010EDFCFDBFFDBCFF3FFF338F00BE1
:104D3000F36E010EF3CFDBFF77DFDF6E300EDF5C4B
:104D400006E3DF50390803E3300EDF5E13D0410E77
:104D5000DF5C06E3DF50460803E3370EDF5E0AD070
:104D6000610EDF5C06E3DF50660803E3570EDF5E8B
:104D700001D0DF6A010EDBCFE7FFDF50E712010E43
:104D8000E7CFDBFFDB50106E020EE15C03E200D0E8
:104D9000E16AE552E16E1050E552E7CFD9FF12000B
:104DA000D9CFE6FFE1CFD9FFE652DF6A000E060158
:104DB000E76EAD19E8AE02D0AD3503D0E750D8802C
:104DC000AD5533E20001F951F92BE96EEA6AE9BE0B
:104DD000EA686C0EE926060EEA22EFCFDFFF400EEE
:104DE000E76EF919E8AE02D0E73402D0E750F95D7A
:104DF00001E3F96B0601AD070601AE510FE0AEA16C
:104E000004D00001FA2B000EFB230601AEA304D050
:104E10000001FC2B000EFD230601AE6B0E01010EFE
:104E2000056F0001ED6FDF5004D00E01056BDF5000
:104E300000D0E552E552E7CFD9FF1200D9CFE6FF07
:104E4000E1CFD9FF0001ED0502E0EE5105E0ACA293
:104E5000FED7FE0EDB50AD6EE552E7CFD9FF120054
:104E6000D9CFE6FFE1CFD9FFFE0EDBCFE6FF5CEC4A
:104E70002EF0E552E66EE2DFE552FE0EDBCFE6FFF6
:104E800077EC2EF0E552E66ED9DFE552E552E7CF3A
:104E9000D9FF1200D9CFE6FFE1CFD9FF020EE126FC
:104EA0000001ED0502E0EE5118E0FD0EDBCFDEFF64
:104EB000DBCFDDFFDECFE9FFDDCFEAFFEF500DE016
:104EC000ACA2FED7DFCFE9FFDF2A010EDBCFEAFF7E
:104ED00001E3DB2AEF50AD6EEDD7020EE15C02E29A
:104EE000E16AE552E16EE552E7CFD9FF1200D9CF72
:104EF000E6FFE1CFD9FF020EE1260001ED0502E059
:104F0000EE511AE0FD0EDBCFDEFFDBCFDDFFDECFA3
:104F1000F6FFDDCFF7FF0800F5500EE0ACA2FED79C
:104F2000DFCFF6FFDF2A010EDBCFF7FF01E3DB2A3D
:104F30000800F550AD6EEBD7020EE15C02E2E16ACB
:104F4000E552E16EE552E7CFD9FF1200D9CFE6FF77
:104F5000E1CFD9FFE652DF6A200EE66E620EE66E02
:104F6000C6DFE552E552DFCF10F0400EE76E1018B5
:104F7000E8AE02D0E73402D0E750105C13E2DFCF96
:104F8000E9FFEA6AE9BEEA686C0EE926060EEA2243
:104F9000EF50E66E65DFE552200EE66E4FDFE5521C
:104FA000DF2AE1D7170EE66E620EE66EA0DFE5524D
:104FB000E552ACC6E6FF54DFE5520E0EE66E620E19
:104FC000E66E95DFE552E552F9C0E6FF49DFE552AE
:104FD000000E0601E76EAD19E8AE02D0AD3503D084
:104FE000E750D880AD550BE2060EE66E620EE66E17
:104FF0007EDFE552E552ADC6E6FF32DFE552E5520F
:10500000E552E7CFD9FF1200D9CFE6FFE1CFD9FFB4
:10501000060EE1260501B36B0501B46B0501B56B06
:105020000501B66B0501B76B0501B86B0E01306B5E
:105030000501C66B0501C56B0501C58F0E01110E7B
:10504000116F640EF36E020EF3CFDBFF030EDB6A0B
:10505000020EDBCF10F0DB06030EDBCF11F001E216
:10506000DB061050111006E0100EE66E8BEC34F0EB
:10507000E552EED70400100EE66E000EE66EE66A0C
:105080000E0EE66E0E0EE66E9DEC2DF0106E050E09
:10509000E15E10508D0E0E010E5D06E031EC01F068
:1050A0000E01FE0E116F02D027EC2EF00001D85138
:1050B000190802E20001D86B0E011851090802E23A
:1050C0000E01186BFF0E0E01165D03E10E01300E8E
:1050D000166F12CEB5F513CEB6F514CEB7F515CEC4
:1050E000B8F517CEC7F50401D26B0401D251106E8A
:1050F000116AD890115004E6D20E105C000E1158BF
:105100000AE20401D251D22BEA6A000FE96E040EC2
:10511000EA22EF68EAD7DF6A190EDF5C39E2DF5076
:10512000060DF3CFE9FFF4CFEAFF4C0EE926030E9C
:10513000EA22EF6ADF50060DF3CFE9FFF4CFEAFF72
:105140004C0EE926030EEA22EE52EE6AED6ADF50BB
:10515000060DF3CFE9FFF4CFEAFF4C0EE926030E6C
:10516000EA22030EE926000EEA22EE68ED68DF501F
:10517000060DF3CFE9FFF4CFEAFF4C0EE926030E4C
:10518000EA22050EE926000EEA22EF6ADF2AC4D7DA
:10519000DF6A0001D851DF5C24E2DF50030DF3CF5A
:1051A000E9FFF4CFEAFF000EE926030EEA22010E22
:1051B000EFCFDBFF010EDB50106E116AD89011505B
:1051C00004E6D20E105C000E115809E2010EDB500D
:1051D000EA6A000FE96E040EEA22090EEF6EDF2A7A
:1051E000D8D7DF6A400EDF5C09E2DF50DF2AEA6AC7
:1051F0006C0FE96E060EEA22EF6AF4D7040016EC93
:1052000000F020EC01F0960EF36E040EF3CFDBFFFE
:10521000050EDB6A040EDBCF10F0DB06050EDBCFDC
:1052200011F001E2DB061050111006E0100EE66EE0
:105230008BEC34F0E552EED70E01006B91EC2EF0C2
:10524000C7C517FED0EC01F0FE0E0E01115D10E196
:10525000D2EC00F00E01116F0E0111511F0BF36E15
:10526000E00EB514F310B56EE66A0EEC2EF0E552C2
:105270000501B96B04005FEC04F068EC1AF0FAEC7D
:105280001FF0F8D7060EE15C02E2E16AE552E16E3A
:10529000E552E7CFD9FF1200D9CFE6FFE1CFD9FF22
:1052A000080EE126070EDB6A030E0E01185D02E20E
:1052B000010E92D1FD0EDBCF10F0640EE76E1018D8
:1052C000E8AE02D0103403D0E750D880105405E285
:1052D000640EF36EFD0EF3CFDBFFFD0EDBCF10F09F
:1052E000116A126A136A10AE03D01168126813684B
:1052F00010C0DFFF010E11C0DBFF020E12C0DBFF8A
:10530000030E13C0DBFF03014B6B0001D8510301F7
:105310004B5D01E35FD14B51030DF3CFE9FFF4CFB8
:10532000EAFF000EE926030EEA22EFCF10F0FE0E90
:10533000DB50105C01E04BD14B51030DF3CFE9FF83
:10534000F4CFEAFF000EE926030EEA22EE52EECF7A
:1053500010F0EFCF11F0126A136AD9CFE9FFDACF5C
:10536000EAFF10C009F011C00AF012C00BF013C020
:105370000CF0EECF04F0EECF05F0EECF06F0EFCF5D
:1053800007F0D0EC33F003C0EDFF02C0EDFF01C029
:10539000EDFF00C0EFFFD9CFE9FFDACFEAFF640EDF
:1053A000096E0A6A0B6A0C6AEECF04F0EECF05F0C4
:1053B000EECF06F0EFCF07F036EC34F007C0EDFF8C
:1053C00006C0EDFF05C0EDFF04C0EFFF03014B5128
:1053D000060DF3CFE9FFF4CFEAFF4C0EE926030EEA
:1053E000EA22EE52EECF10F0EFCF11F0DFCF12F045
:1053F000010EDBCF13F01050125C1150135823E252
:105400004B51060DF3CFE9FFF4CFEAFF4C0EE9262E
:10541000030EEA22EE52EECF12F0EFCF13F0000EA1
:10542000DB50125C106E010EDB501358116E040E2F
:1054300010C0DBFF050E11C0DBFF090EF36E070E77
:10544000F3CFDBFF52D0DFCF12F0010EDBCF13F032
:105450004B51060DF3CFE9FFF4CFEAFF4C0EE926DE
:10546000030EEA22EE52EE50125C106EEE5013580C
:10547000116E040E10C0DBFF050E11C0DBFFD9500A
:10548000040FE96EDACFEAFF000ED880EE54000E6A
:10549000ED5406E2080EF36E070EF3CFDBFF25D0C6
:1054A0004B51060DF3CFE9FFF4CFEAFF4C0EE9268E
:1054B000030EEA22030EE926000EEA22EE68ED68EA
:1054C0004B51060DF3CFE9FFF4CFEAFF4C0EE9266E
:1054D000030EEA22EF6A0A0EE66EFE0EDBCFE6FF4F
:1054E00087D8E552E552000E77D04B51060DF3CF29
:1054F000E9FFF4CFEAFF4C0EE926030EEA22EF5053
:105500000F0B000933E14B51060DF3CFE9FFF4CF48
:10551000EAFF4C0EE926030EEA22030EE926000EEE
:10552000EA22DFCFEEFF010EDBCFEDFF070EDB50EF
:10553000106E4B51060DF3CFE9FFF4CFEAFF4C0E8E
:10554000E926030EEA2210500F0BF36EF00EEF1453
:10555000F310EF6E070EDBCFE6FFFE0EDBCFE6FFAC
:1055600047D8E552E552000E37D031D04B51060DE9
:10557000F3CFE9FFF4CFEAFF4C0EE926030EEA224F
:10558000EF500F0B106E070EDB50105C16E14B5105
:10559000060DF3CFE9FFF4CFEAFF4C0EE926030E28
:1055A000EA22030EE926000EEA22DFCFEEFF010E0B
:1055B000DBCFEDFF000E10D00AD00A0EE66EFE0E15
:1055C000DBCFE6FF15D8E552E552000E05D003010A
:1055D0004B2B9BD6010E00D0106E080EE15C02E250
:1055E000E16AE552E16E1050E552E7CFD9FF1200B3
:1055F000D9CFE6FFE1CFD9FF0E01A80E1E6FFE0E38
:10560000DBCF1FFE206B120E216FFD0EDBCF22FEC3
:105610001F51201921192219236FA30E246F070E81
:10562000E66E05D8E552E552E7CFD9FF1200D9CF93
:10563000E6FFE1CFD9FF090EE126040EDB6A020E78
:10564000DB6A030EDB6AFE0EDB50E76E010EE7CF6E
:10565000DBFF010EDB500F0803E2DE520F0EDD6EA2
:10566000020EDB6A030EDB6A020EDBCF10F0030EC4
:10567000DBCF11F0010EDB50000111AE02D0D8904B
:1056800003D0105C000E11581FE2020EDBCFE9FFC1
:10569000030EDBCFEAFF1E0EE9260E0EEA22EF50C4
:1056A000E66E020EDBCFE9FF030EDBCFEAFFA00EB2
:1056B000E926050EEA22E552E750EF6E020EDB2ADC
:1056C000030E01E3DB2AD0D7020E0001F55D09E1EC
:1056D000410E0E010F5D05E1010EDBCFE6FF93D811
:1056E000E552040EDF6E020EDB6A030EDB6ADF504A
:1056F00035E0020EDBCF10F0030EDBCF11F0D890B7
:10570000115004E62C0E105C010E115827E2010E18
:10571000F36E050EF3CFDBFF060EDB6A050EDBCF63
:1057200010F0DB06060EDBCF11F001E2DB061050B5
:10573000111006E0100EE66E8BEC34F0E552EED759
:105740000501C6A509D00400040EDF6E020EDB2A97
:10575000030E01E3DB2A01D0DF06C9D7F29EF29CDB
:10576000010EDBCFE6FFA8EC2FF0E552E66ED95034
:10577000020FE96EDACFEAFFE552E750EE6EED6A0E
:10578000040EDB2A0501C5A504D00001EF2B000E95
:10579000F02305010501C551040B09E0320EF36E3B
:1057A000040EDBCFF4FFF350F45C01E248D70E01A6
:1057B0003569B798A192F294F28EF28C0501C66B0E
:1057C000340EF36E070EF3CFDBFF080EDB6A070E15
:1057D000DBCF10F0DB06080EDBCF11F001E2DB06B9
:1057E0001050111006E0100EE66E8BEC34F0E5520E
:1057F000EED7090EE15C02E2E16AE552E16EE552A4
:10580000E7CFD9FF1200D9CFE6FFE1CFD9FF050ED0
:10581000E126F90E106E610E116E126A10C0E6FFDD
:1058200011C0E6FF12C0E6FF600EE66E000EE66EE7
:105830005AEC34F0136E050EE15E1350FE0EDBCF12
:10584000E6FF3ADAE5520001666FFE0EDBCFE6FFB7
:105850004EDAE5520001676F0B0EF36E020EF3CFC6
:10586000DBFF030EDB6AFE0EDB50F36E030EDBCFB5
:10587000F4FFF350F45C41E2030EDB50EA6AA00F40
:10588000E96E050EEA22EF50E66E16DAE552E66E94
:10589000020EDBCFF3FFDB2AF350EA6A600FE96EFA
:1058A000000EEA22E552E750EF6E030EDB50EA6A83
:1058B000A00FE96E050EEA22EF50E66E18DAE55207
:1058C000E66E020EDBCFF3FFDB2AF350EA6A600FCD
:1058D000E96E000EEA22E552E750EF6E020EDBCFD2
:1058E000F3FFDB2AF350EA6A600FE96E000EEA224A
:1058F000200EEF6E030EDB2AB6D7020EDB50EA6AEB
:10590000600FE96E000EEA22EF6A600EE66E000E8E
:10591000E66E4AEC27F0E552E552050EE15C02E244
:10592000E16AE552E16EE552E7CFD9FF1200D9CF27
:10593000E6FFE1CFD9FF030EE126020EDB6A0A0E75
:10594000F36E020EDBCFF4FFF350F45C01E381D081
:10595000EC0E106E610E116E126A10C0E6FF11C0DF
:10596000E6FF12C0E6FF600EE66E000EE66E5AEC31
:1059700034F0136E050EE15E1350020EDBCFE6FF2E
:10598000B6D9E5520001676F0B0EDF6E010EDB6AC0
:10599000100EF36E010EDBCFF4FFF350F45C47E220
:1059A000020EDB50100DF3CF10F0F4CF11F0000E0B
:1059B0001026050E1122010EDB500F011024E96E96
:1059C000000E1120EA6EEF50E66E76D9E552E66ED3
:1059D000DF50DF2AEA6A600FE96E000EEA22E55224
:1059E000E750EF6E020EDB50100DF3CF10F0F4CF46
:1059F00011F0000E1026050E1122010EDB500F01D2
:105A00001024E96E000E1120EA6EEF50E66E6FD999
:105A1000E552E66EDF50DF2AEA6A600FE96E000E9B
:105A2000EA22E552E750EF6E010EDB2AB1D7DF50D4
:105A3000EA6A600FE96E000EEA22EF6A600EE66E17
:105A4000000EE66E4AEC27F0E552E552020EDB2A24
:105A500076D7DF0E106E610E116E126A10C0E6FF6F
:105A600011C0E6FF12C0E6FF600EE66E000EE66EA5
:105A70005AEC34F0136E050EE15E1350B3C5E6FF29
:105A80001BD9E5520001686FB3C5E6FF30D9E55276
:105A90000001696F600EE66E000EE66E4AEC27F0BC
:105AA000E552E552D00E106E610E116E126A10C0F2
:105AB000E6FF11C0E6FF12C0E6FF600EE66E000EC4
